:020000040000FA
:1000000078110010CD020000DD020000D5020000D2
:1000100000000000000000000000000000000000E0
:10002000000000000000000000000000410100008E
:100030000000000000000000E50100004502000093
:10004000DD020000DD020000DD020000DD02000034
:10005000DD020000DD020000DD020000DD02000024
:10006000DD020000DD020000DD020000DD02000014
:10007000DD020000DD020000DD02000021210000A1
:10008000DD020000DD020000950700009707000078
:10009000DD020000DD020000DD020000DD020000E4
:1000A00000000000DD020000DD020000DD020000B3
:1000B00000000000DD020000DD020000034885466C
:1000C00002F04CF9004800471F1C00007811001096
:1000D00080F309887047EFF309807047684680F322
:1000E000098806480078C00703D1032080F31488EC
:1000F0007047022080F3148870470000202D000014
:10010000064B9C46EFF305831B0605D1EFF31483E2
:10011000DB0701D000DF7047604700004324000088
:10012000064B9C46EFF305831B0605D1EFF31483C2
:10013000DB0701D000DF704760470000A925000001
:10014000EFF309808169891E0978002933D1A64619
:100150001FC8A4467446E0471F4B06CB914224D0EB
:10016000083B002910D00CB4203101238B71EFF330
:100170000983203BCB60F0C344464D4656465F465C
:10018000F0C300F0A2F80CBC1A602032D368103320
:10019000F0CBA046A946B246BB4683F30988203B74
:1001A000F0CB9079002803D05079EFF309831860E1
:1001B0000223DB43184710B5084A1268914209D858
:1001C000074C89006458A6461FC8A446F047EFF3C1
:1001D00009840FC410BD00006000001080230000DF
:1001E0008023000002F0A8FA154B06CB914223D0E1
:1001F000083B0CB4203100238B71EFF30983203BC3
:10020000CB60F0C344464D4656465F46F0C300F00F
:100210005CF80CBC1A602032D3681033F0CBA046D7
:10022000A946B246BB4683F30988203BF0CB9079C0
:10023000002801D0507918610223DB4318470000E1
:100240006000001002F046FCCEE7000002F0F8F873
:1002500002F040FCC8E70000F0B5184902888E465D
:1002600091091207120F94460589C278848903699F
:10027000242910D025290ED08678478900793E435D
:100280006746384306432E43164326431E438900E0
:1002900070464650F0BDC68860462E430243F3E7E1
:1002A0000021018010228270C170C18001814181D2
:1002B000802202718181016170470000004004408A
:1002C000FEE77047FEE77047704770470448804775
:1002D00004480047FEE7FEE7FEE7FEE7FEE7000012
:1002E000651D0000BD000000001D0321401E0378B5
:1002F00012021A43491EF9D510467047FFFFFFFF4F
:10030000FB49CF220028C86802D01040202201E01B
:10031000104030221043C8607047F548C068302153
:100320000840202801D00020704701207047F14983
:10033000CF220028C86802D01040202201E01040DF
:1003400030221043C8607047EA48C0683021084036
:10035000202801D00020704701207047E649002284
:100360004A718A710A46C871203A107001200871DA
:100370007047E1490A79002A01D10023CB71CB797A
:100380001B18CB71DC4B203B98540879401C08713A
:10039000704770B5D84C0020203C2246203213799B
:1003A000D34D51798B4207D0665C2E60491C401CAE
:1003B000C0B251711028F4D370BDCF494E310A79C3
:1003C000002A01D10023CB71CB791B18CB71CA4B0A
:1003D0002E3398540879401C0871704770B5C64C8C
:1003E00000202E34224620321379C24D51798B429F
:1003F00007D0665C2E60491C401CC0B251711028A9
:10040000F4D370BD10B503460120FFF779FFB8485B
:1004100003600122022100F067FF10BD70B50D4698
:100420000646002404E0305DFFF7A3FF641CE4B23D
:10043000AC42F8D30020FFF763FFFFF7AAFF0122C9
:100440000221AB4800F050FF70BD10B5AA48817979
:1004500001710020FFF754FFFFF79BFF01220221EB
:10046000A34800F041FF10BDF8B507460020A24D9B
:100470000E464E3528716871044604E0385DFFF77A
:100480009CFF641CE4B2B442F8D3E879FFF795FF0F
:100490009A490320C870FFF7A1FF01220221954865
:1004A00000F022FFF8BD70B5FFF737FF904B924C7C
:1004B00001280FD020796179884219D11D4628463C
:1004C00000F00FFF4006FAD50120FFF719FFE07991
:1004D000286070BD6079A0710021617121710846AA
:1004E000FFF70EFF00220221184600F0FDFE70BD4E
:1004F000FFF74FFF70BD804810B54E30027941794B
:100500008A420BD181710024447104712246022178
:10051000784800F0E9FE7948C47010BDFFF75EFF2F
:1005200010BD10B5754BDC78734A08321146203186
:10053000002C11D0DC78012C0DD10C7910550879E4
:10054000401CC0B208715178884204D10220D87092
:100550006B4801F057FF10BD242803D0262801D096
:100560002728F8D10124DC7010700C7110BD62488E
:1005700010B5263800790021401E0206120E0DD05B
:100580005D4B0020463B04E01C5C6118401CC9B276
:10059000C0B29042F8D3985C884201D1012010BDCE
:1005A000002010BDF8B5554D0446AB7852482A4698
:1005B00046380746032612782037002B10D0AB7838
:1005C000012B1FD100291DD139794B1C242B19D2A5
:1005D00044543979491CC9B23971112A17D023E022
:1005E00000290FD00121A970047000223971022066
:1005F0002C70102C07D0112C2ED0122C03D0142CC0
:1006000003D06A70F8BD6870F8BD6E70F8BD4078B0
:10061000012836D1072934D1FFF7A9FF002803D1DB
:100620000D2068700120A8602878132804D01428B1
:1006300016D0172820D024E03879022821D12300B1
:1006400001F0A0FE0505040C04041700DDE7A8680E
:10065000002801D00920D6E70720D4E70520D2E7FB
:10066000387902280DD1002CCFD0012CCDD0022C0E
:10067000CBD0002068701DE03879022801D1002C11
:1006800016D06878002815D039798142BED101F0A2
:1006900039FD174C00220121204600F025FE0022E2
:1006A0000421204600F020FE164801F0ABFEF8BD04
:1006B0002020A8E7C82001F06CFDF8BD0E4810B559
:1006C000283000790021401E0206120E0DD00A4B80
:1006D0000020083304E01C5C6118401CC9B2C0B2A1
:1006E0009042F8D3985C88420ED1012010BD0000E2
:1006F0000080004000C00040C20000100000001058
:100700004C000010440000100020EFE770B5FE4DD3
:10071000284600F0FEFD04460E210C40284600F05D
:10072000E0FD062C08D0042C0AD00C2C08D0022C9A
:1007300001D1FFF7E0FE70BDC007FCD0286870BD96
:100740002868C0B2FFF7EDFE70BD70B5EF4D2846CA
:1007500000F0DFFD04460E210C40284600F0C1FDEC
:10076000062C08D0042C0FD00C2C0DD0022C01D15B
:10077000FFF799FE70BDC107FCD029684007CAB2D7
:10078000F8D50121104602E028680021C0B2FFF729
:1007900009FF70BDD9E7B9E7DD48012101700222E8
:1007A0004270112383705623C37001714271C822B5
:1007B0008271C171704710B5D64C09202070032298
:1007C000D5A1601C01F093FD0C22D4A1201D01F0E5
:1007D0008EFD20460C22D4A1103001F088FD0120AE
:1007E00020771820607781E710B5D24C0320207065
:1007F000D14A20464270110A8170E11CCF4801F0B5
:1008000083FD0020E071207260726FE710B588B040
:100810006846FFF745FD0D20C0016A461080684616
:10082000FFF71AFD052001220821000700F0EEFA6B
:1008300001210C03204600F07DFB122000F0B1FAEC
:100840006846FFF72DFDBE496A4611806846FFF7EE
:1008500003FDBB496A46403111806846FFF7FCFC46
:100860000021042000F090FB0121204600F062FBF3
:10087000012000F0A2FBA54C204600F08FFC05A94A
:10088000204600F0E2FC4B208001059003206A46E0
:1008900010761820907600215176D1761177517715
:1008A00005A9204600F0A1FC0121204600F0DCFC57
:1008B00001221146204600F017FD012204212046A6
:1008C00000F012FD122000F065FA08B00EE730B516
:1008D0009C4900200A4689B0044626320C54145420
:1008E000401CC0B22428F9D39648203044710471CA
:1008F0002630C4710471447184716846FFF7D0FCDE
:10090000FF200130694608806846FFF7A5FC1521E5
:100910000122080700F07AFA01214D03284600F071
:1009200009FB132000F03DFA6846FFF7B9FC844A42
:100930006946C23A0A806846FFF78EFC80486946DD
:10094000823808806846FFF787FC0021082000F005
:100950001BFB0121284600F0EDFA012000F032FBDC
:10096000694D284600F01AFC05A9284600F06DFCE8
:100970004B20C00105900320694608768C764C76A2
:10098000CC760C774C7705A9284600F02EFC012187
:10099000284600F069FC01221146284600F0A4FC1C
:1009A000132000F0F7F95A4802210C38017166490A
:1009B0000C6066490C6066490C6066490C606649CB
:1009C0000C6066490C60C47009B030BD10B588B0C9
:1009D0006846FFF765FC192080016A46108068466A
:1009E000FFF73AFC052001220721000700F00EFA6C
:1009F00001210C03204600F09DFA122000F0D1F9ED
:100A00006846FFF74DFC4E496A4611806846FFF77D
:100A100023FC4B496A46403111806846FFF71CFCB5
:100A20000021042000F0B0FA0121204600F082FAF3
:100A3000012000F0C2FA354C204600F0AFFB05A9BA
:100A4000204600F002FC4B20C001059003206A46BE
:100A50001076002191765176D1761177517705A9DC
:100A6000204600F0C2FB0121204600F0FDFB0122E0
:100A70001146204600F038FC01220421204600F0F7
:100A800033FC122000F086F91FE790B589B0684664
:100A9000FFF706FC1B2080016A4610806846FFF7BE
:100AA000DBFB052001220921000700F0AFF901213D
:100AB000480700F03FFA6846FFF7F2FB0320000208
:100AC0006A4610806846FFF7C7FB254C01220D21BE
:100AD000204600F09BF901220D21204600F08CF900
:100AE000204F1920BC4600DF01220D21204600F0D6
:100AF0007EF901214C03204600F01CFA132000F07F
:100B000050F9684630E0000000C00040008000401E
:100B10000C000010300100104D4343004B5731369C
:100B20003032303030310000694B41574520323689
:100B3000300000004E01001007D00000000001F45A
:100B400044070000CA0000102C0000103000001004
:100B500034000010380000103C000010400000106D
:100B60000000025051250000FFF79AFB91496A46A8
:100B700011806846FFF770FB8E496A46403111804C
:100B80006846FFF769FB0021082000F0FDF901210C
:100B9000204600F0CFF9012000F014FA864C2046E0
:100BA00000F0FCFA05A9204600F04FFB4B20C001E5
:100BB000059003206A461076382090760021517601
:100BC000D1761177517705A9204600F00EFB01215F
:100BD000204600F049FB01221146204600F084FB2C
:100BE00001220421204600F07FFB132000F0D2F800
:100BF00009B090BD30B5714900200A4689B026324F
:100C000004460C541454401CC0B22428F9D36B4839
:100C10002030447104712630C471047144718471B0
:100C20006846FFF73DFBC02168460180FFF714FBD3
:100C300014210122880600F0E9F801210D0328465D
:100C400000F078F9122000F0ACF86846FFF728FBB6
:100C50005B49684601804021C170FFF7FDFA5849A1
:100C6000684640310180FFF7F7FA0021042000F0C8
:100C70008BF90121284600F05DF9012000F09DF973
:100C8000504D284600F08AFA05A9284600F0DDFA02
:100C90004B20C001059003216846017638218176FA
:100CA0004476C4760477447705A9284600F09DFA77
:100CB0000121284600F0D8FA01221146284600F00A
:100CC00013FB01220421284600F00EFB3E48016878
:100CD000FF2212049143EA0111430160122000F047
:100CE00059F83A4884706FE670B5012186B0C8079C
:100CF00000F020F96846FFF7D3FA1320C0016946D7
:100D000008806846FFF7A8FA052000220C2100079A
:100D100000F07CF80121880700F00CF96846FFF725
:100D2000BFFA0D200002694608806846FFF794FA72
:100D3000274D00220521284600F068F83320800165
:100D4000694608806846FFF787FA00220421284692
:100D500000F05CF81920C001694608806846FFF77A
:100D60007BFA00220321284600F050F80321284690
:100D700000F036F806460421284600F031F8044613
:100D80000521284600F02CF86000104930434871D6
:100D900006B070BDC106C90E012088400D4908602B
:100DA0007047C106C90E012088400A498031086099
:100DB00070470000C302000000C000407C0000102B
:100DC000820400000080004010E400E000000010F9
:100DD0000000015000E100E010B500F06EF810BD19
:100DE00010B5001D00F05AF810BD8160704710B5B5
:100DF0000C3000F062F810BD10B5103000F05DF856
:100E000010BD10B5143000F058F810BD10B52030EA
:100E100000F053F810BD10B5203000F03FF810BDC1
:100E200010B501248C40130001F0ACFA0504070A48
:100E3000111A1000416AA1430BE0416AA14311E07D
:100E4000416AA1434162816A2143816210BD416AC6
:100E500021434162816AA1438162C16AA14307E0E3
:100E6000416A21434162816AA1438162C16A21438F
:100E7000C16210BD10B5303000F01FF810BD10B5C4
:100E8000343000F00BF810BD10B5383000F006F823
:100E900010BD10B53C3000F010F810BD0246002027
:100EA0001268202905D201238B40134200D0012073
:100EB0007047FF29FCD110467047202909D2012331
:100EC0008B400168002A01D0194300E0994301607A
:100ED0007047FF29FCD10260704700007448006B26
:100EE000C006C00E704780077149800F08607047C8
:100EF00081076F48890F4030016001214160002265
:100F0000426041604168C907FCD070477047810763
:100F10006748890F40300163012141630022426329
:100F20004163416BC907FCD070476149C0B2403191
:100F3000886370475E4A80320029116801D00143FE
:100F400000E0814311607047400820280BD80F292A
:100F500009D84901401E0143554841625548816BFB
:100F60004022914381637047830751489B0FC030F3
:100F7000CAB2036201214162002343624162416AB5
:100F8000C907FCD082627047494A0129516802D0E2
:100F90000143516070478143FBE701224449D2037A
:100FA0000128486802D09043486070471043FBE72F
:100FB0003F49C0B28031486170473D49C0B280317D
:100FC000886170473A49C0B28031C8617047394979
:100FD000C0B2C039C86070473649C0B2C0398860F5
:100FE00070473449C0B2C039486070473149C0B217
:100FF000C039086070473049C0B2C86370472E4995
:10100000C0B2886370472C49C0B248637047294A10
:101010000129116B02D08143116370470143FBE743
:10102000244A0129916B02D08143916370470143A7
:10103000FBE7204A0129516B02D08143516370477D
:101040000143FBE71C49403148637047194A0029B6
:10105000516801D0014300E0814351607047154A57
:101060000029116801D0014300E0814311607047FD
:1010700010498A6802438A6070470E4A0029516904
:1010800001D0014300E0814351617047094A0029C2
:10109000116901D0014300E08143116170470549A6
:1010A0008A6902438A6170470448406B70470000B8
:1010B000008004400082044000810440C08304405A
:1010C000F3B5054687B000200590049001200090FC
:1010D00000200190029008989F4A40090390A04880
:1010E0009E490068954201D1896903E09D4A954275
:1010F00004D1C96901F078F8000904900026741C35
:1011000026E0049A2046A119504301F06DF806909C
:10111000089901F069F8074608984008814200D90B
:101120007F1C9149F81E884211D23946069801F079
:101130005BF80899884201D8081A00E0401A039920
:10114000884204D26946D0C1039001200590641CF6
:101150000F2CD6D9761C0F2ED1D3059801281AD181
:10116000E86880210843E8600299009A019B09041D
:1011700012070298090E120E1B071B0FC0B21A436A
:1011800006E028606960EB685B065B0EEB60AA62B4
:10119000EB681B06F5D4059809B0F0BD38B51021F1
:1011A00081620721816001E0016800914169C907FE
:1011B000FAD18021016341698906FCD500240463CA
:1011C0004460C46004624169009100F0BDF80C21E4
:1011D00000904843654903220C5040180271447145
:1011E0008471C4710472447238BDF8B50C46074668
:1011F00000F0AAF80C2105464D435C4E2168705959
:10120000884204D03846FFF75BFF20687051207990
:10121000A179627A0843617911430843F860207A22
:10122000E179084301210843CF210840B8602179C2
:10123000A819017161794171A1798171617A417255
:10124000E179C171217A0172F8BD10B50C4600F048
:101250007BF80C2148434549401842680168806882
:1012600062602160A06010BD0129016B02D00021E5
:101270000163704780221143FAE770B5002616E03B
:101280001C4602E0002C14D0641E4569AD06F9D559
:10129000002C0ED0102507E00C78491C04606D1E50
:1012A000521E761C002D02D0002AF5D101E0002A42
:1012B000E6D1304670BD70B5054600200EE01C46F4
:1012C00002E0002C0CD0641E6E69F607F9D0002CE9
:1012D00006D02C680C70491C521E401C002AEED10E
:1012E00070BD4069C0B2704770B50E460446012A11
:1012F00005D01F4D00F028F8002803D004E06068F6
:10130000084304E01A4D88356068B54328406060A2
:1013100070BD80681649C8310840704710B5C36871
:1013200080242343C360002303604360C368A34356
:10133000C36010238362114301221143016210BD77
:1013400003210902016270470349884201D100204C
:1013500070470120704700000080004080800440FA
:101360005C00001000C00040FDFF000018010010EC
:101370000703000010B505200C210007FFF730FD22
:10138000002801D0002010BD012010BD002086B033
:10139000FF4F06460090029001460190FB48BC4674
:1013A00000DFFA4824213038017003214170F948E8
:1013B00002250390F84C2078801E030000F0E2FF25
:1013C0000705FE39FDFCFBFAFE00F44F1420BC4675
:1013D00000DFEE4800213438416281620221001DA5
:1013E000FFF742F8EE4F7D21C900E848BC4600DF18
:1013F000012876D0FFF762F9012872D1E948007818
:101400002428FAD1E748817801290DD1DF4E343EF6
:10141000F161C01CFEF768FF7061E348B061002015
:1014200006460090042039E1D84900203439C861CB
:1014300009E2DA4F0320BC4600DFD4483438006AA2
:10144000002803D1FFF796FF00287BD0D14F26203C
:101450000B3F38700B207870CC48B91D3438406988
:1014600000F052FFC9483438006A00280FD0C7483E
:10147000002134380162416200880A2100F0B4FE84
:10148000B870000AF870C1483238008804E00120C2
:10149000B8700020F8700C203871000A7871BD48CF
:1014A0000A210B38FEF7E0FFB849012034394862C1
:1014B000BB4F7D21C900B548BC4600DF01283CD0A8
:1014C000FFF7FCF801280AD1B6480078262806D193
:1014D000B44804908078022804D0032802D0062063
:1014E00028E020E0AD4F0320BC4600DFA7480221E2
:1014F0003038FEF7B9FFAA4FFF21F531A348BC46AB
:1015000000DF01280FD0FFF7D9F801280BD1A5483B
:1015100000782428FAD104988078062804D0082876
:1015200002D002287ED08FE19849002034398862A9
:1015300094E007E09D49087085E19C490620087009
:101540000820ABE091483438406A002813D0019855
:10155000002810D09648761CB6B20190864215D964
:1015600000268A483146343846618661426A002A3C
:1015700004D0062203E04B200001ECE70E228B4B47
:101580001A7008222270416281625DE1874800780A
:101590000D2817D07D4802213038FEF765FF804FB7
:1015A0007D21C9007948BC4600DF0128BBD0FFF788
:1015B00085F804E0D7E0AFE082E051E015E10128D2
:1015C0000AD041E12078082801D0082020706F4916
:1015D00000203439C86137E1724800782428A2D14C
:1015E0007048817805290CD0022922D0032920D007
:1015F000062923D0042921D008291FD0072927D064
:1016000022E1624F343FB96A00298CD1C01CFEF739
:101610006BFE78616448B861002078620120B8628E
:10162000002000E005E006460090604905200870B3
:1016300034E0564901203439486205E15B490E2007
:101640000870524800213438416281620E46FAE047
:101650004E49002034394862886206460E2069E708
:101660004E4F0220BC4600DFFFF784FE002802D068
:101670000020009011E000984E49401C80B200907C
:1016800088420DD9002000904848017807290FD0E2
:101690000078082810D0072000E006202070D3E052
:1016A00042480178072903D00078082804D0CBE00D
:1016B00020780628F1D1C7E020780728EBD1C3E0D5
:1016C000364F0320BC4600DF32492820491E0870EF
:1016D0000A204870012088702C48491D3438406920
:1016E00000F012FE29483238018803988170090AF7
:1016F000C17028480921401EFEF7B6FE284F7D2103
:10170000C9002248BC4600DF2AE0FEF7D7FF0128C7
:1017100001D12448007896E0204F0320BC4600DF2A
:101720001C492820491E08700A2048700020887033
:101730001648491D3438406900F0E6FD1348323838
:10174000018803988170090AC17012480921401E5E
:10175000FEF78AFE124F7D21C9000C48BC4600DF0F
:101760000128D2D16FE00D4F0320BC4600DF0748AF
:1017700030212E380170032141700298401C80B244
:101780000290052818D9002002905CE04C0000105F
:101790000929000063010010040000105125000019
:1017A00049290000CA00001007D0000014000010F2
:1017B000D80E0000E02E00000221F748FEF754FE8C
:1017C000F548F64F64212E30BC4600DF01283BD09F
:1017D000FEF774FF012836D1F1480078302832D165
:1017E000EF48807801282ED02EE0EE4F1420BC4622
:1017F00000DFE9480221801EFEF736FE7D21E64823
:10180000E64FC9002E30BC4600DF01281BD0FEF792
:1018100055FF012818D1E2480078242814D1E04867
:101820008178012900D0FFE5C01CFEF75DFDDA4993
:10183000891F4861DC4888610120C861042020704C
:101840000020009000E02570D84900200870B1E524
:1018500008B5FEF7A1FFFEF7AEFFFEF7C5FFCE48C5
:10186000D34F00212630BC4600DFD24C0020207030
:10187000D14DD24802260090C748C84FD0492630E3
:10188000BC4600DFFEF773FE012801D0AA201BE052
:10189000CC480670C9482038017810390B0000F098
:1018A00071FD080507169BF1FBBFFDBF0020F1E0AD
:1018B000012121704078002802D0012803D0AFE038
:1018C0000821C14838E00020FEF79CFDA8E0207800
:1018D00000282ED02078022831D020780428F2D099
:1018E00020780328EFD0207805283FD020780728DB
:1018F000E9D02078062853D0207808281ED02078F8
:101900000928E0D020780A284ED020780D284FD022
:1019100020780F285CD020780E28D4D12878082889
:1019200001D0082028700121A848FEF777FD032088
:1019300075E0A6480121401EFEF770FD70E0964F4D
:10194000BF1FF8690028BED00020F8610320207076
:101950009F49001F00F0D8FCB8699D49C91E487016
:10196000000A88709A480A21C01EE5E78A490520C6
:10197000891C0A460870083A90694870000A887005
:10198000906A012804D00020FEF73CFD207847E053
:101990000020906280480321801CFEF73FFDF5E7A0
:1019A0008A480121801CC7E788480221C01CC3E780
:1019B0002878022805D07848801FC069002800D107
:1019C0002E7082480121401CFEF728FD267027E07A
:1019D0007E480221401DAFE741780B0000F0D2FCA9
:1019E00007061931383F205005006CE704212170AB
:1019F0008178C27809028918674A921F118001799B
:101A0000407909020818911C08800120891E08628B
:101A100059E7082028700020FEF7F4FC062020700B
:101A2000009900200871674908706A4F0122114629
:101A30003846FFF759FC012204213846FFF754FCD1
:101A40001AE7062028700020FEF7DCFC0720E6E7F6
:101A5000072028700020FEF7D5FC0820DFE74E485D
:101A6000801FC069002802D00820287000E02E7076
:101A70000020FEF7C7FC0D20D1E70FE00CE001E0ED
:101A80000B20CCE74078002803D00128ADD1267088
:101A900019E70120207016E70C21217040780028FA
:101AA000A3D14B481E21213846E710B5142101224D
:101AB0008806FFF79CF910BD10B514210122880695
:101AC000FFF79AF910BD10B514218806FFF788F9C1
:101AD000002802D0FFF7F0FF10BDFFF7E6FF10BDB2
:101AE000B0B50546002407E0FFF7EDFF2D4F0520B8
:101AF000BC4600DF641CE4B2AC42F5D3B0BD10B507
:101B0000152101220807FFF772F910BD10B5152144
:101B100001220807FFF770F910BD10B5152108075D
:101B2000FFF75EF9002802D0FFF7F0FF10BDFFF7C6
:101B3000E6FF10BDB0B50546002407E0FFF7EDFF56
:101B4000184F0A20BC4600DF641CE4B2AC42F5D357
:101B5000B0BD194C174D134F0A20BC4600DF20784A
:101B6000022807D22878022804D2FFF7D6FFFFF711
:101B7000AAFF06E02078022803D20920FFF7DAFF47
:101B8000F3E72878022827D20920FFF7A9FFFFF7FB
:101B90009AFFFFF7C2FFDEE71E0000104929000090
:101BA000CA0000105125000007D0000003000010FB
:101BB0000929000014000010040000109C0000100F
:101BC000FFFF0000020000100C0000100D2D0000AF
:101BD00051010010008000401A4F6420BC4600DF15
:101BE000FFF79BFFFFF76FFFB5E70023174F1A467C
:101BF00014211548BC4600DF154CE06000231A464E
:101C00000A211448BC4600DF206100231A46022145
:101C10001148BC4600DF114F0020BC4600DF80B5F4
:101C2000FFF762F8FEF753FEFEF7E4FF00F094FAC8
:101C3000FEF754FA0B4F0022FA210948BC4600DF98
:101C4000002080BD5125000051180000512B0000DC
:101C5000180000108D130000531B0000CD2B000056
:101C6000EB1B00009D29000070B55D4D0020696AE6
:101C7000C905090F0B0000F085FB10090B0D0F11B2
:101C8000131517191B1D1F212325272855481CE054
:101C900055481AE0554818E0554816E0554814E0F4
:101CA000554812E0554810E055480EE055480CE004
:101CB00055480AE0554808E0554806E0554804E014
:101CC000554802E0554800E05548696AC906890E42
:101CD000891C00F089FA424B4033196B514A89073D
:101CE000514C890F1BD00026012904D0022928D08D
:101CF000032930D108E019688907890F0FD001291D
:101D00000DD0022908D11CE019688907890F0FD06E
:101D100001290DD0022910D003291CD11AE022601C
:101D200019E0A8683F49C006C00E401C484308E0BF
:101D3000A868C005800FF4D0F1E7A968C905890F2C
:101D400001D0206007E0A968C906C90E491C4143BB
:101D5000216000E0266020686060996B00F044FA22
:101D6000206070BD70B51E49022008602F48002217
:101D70000260AA238360552383600A622C4B986B10
:101D80002024A04398630A62104600BF401CC82864
:101D9000FBD3134840300260012545604260456036
:101DA0004468E407FCD08D609C6B8026B4439C6340
:101DB000CB68DB07FCD003210163456342634563C5
:101DC000416BC907FCD0856305488030456185615A
:101DD000C56102620168012212041143016070BDF5
:101DE00000800440801A060020A1070000350C0086
:101DF000E0C81000C05C1500006A180040771B00A6
:101E000080841E00C0912100009F240040AC270068
:101E1000E032290020402C00604D2F0000D430001B
:101E200040E13300001BB7005800001000400040A4
:101E300000820440024610B5AD48002100680B4600
:101E400000F018FAAB4A002300F0E4F910BD006876
:101E5000084000D0012070470068704702680A43BC
:101E60000260704700214160A34AA449904202D118
:101E700008684A1504E0A24A904203D10868121586
:101E800090430860704770B504469B4B9B489C424A
:101E900002D10368451504E0994B9C4203D10368C5
:101EA00025152B430360A06A80088000A062A06A09
:101EB000A0620020A0602061E060002907D0A06A35
:101EC0000C218843A0620020C043206070BD1078C0
:101ED0000028506801D0FFF7ADFF401EE060F2E738
:101EE000002802D000204870704701200870486028
:101EF000704730B50A78002A06D0012A07D0022A96
:101F000008D0032A0BD108E08A68826107E08A685A
:101F1000C26104E08A68026201E08A684262436941
:101F20000A78540014190722A240934343614A7867
:101F30000123002A07D044690A78550055191A462A
:101F4000AA4014434461CA78002A08D044690A7838
:101F500055005219521C1D4695402C4344618A7805
:101F6000002A07D044690A7855005219921C934000
:101F70001C434461C36B0A7803245200121D944031
:101F8000A343C3630A7909789207920F4900091D98
:101F90008A40C26330BD30B5836A0A785400141990
:101FA0000722A240934383624A780123002A07D084
:101FB000846A0A78550055191A46AA401443846267
:101FC0008A78002A08D0846A0A7855005219521C6F
:101FD0001D4695402C438462CA78002A07D0826A45
:101FE00009784C000919891C8B401A43826230BD64
:101FF00030B50A78002A06D0012A07D0022A08D074
:10200000032A0BD108E08A68826107E08A68C2610E
:1020100004E08A68026201E08A68426243690A78E1
:10202000540014190722A240934343614B780122C4
:10203000002B07D044690B785D005D191346AB4057
:102040001C434461CB78002B08D044690B785D00B9
:102050005B195B1C15469D402C4344618B78002B1B
:1020600008D044690B785D005B199B1C15469D40A8
:102070002C4344610B79002B436F097802D08A40CE
:10208000134301E08A409343436730BD012941680F
:1020900003D0490849004160704701221143FAE723
:1020A000426802210A43426042688A4342607047A4
:1020B00080687047002907D0012907D0022907D07E
:1020C000032907D000207047C06A7047006B704733
:1020D000406B7047806B7047426F01238B409A437F
:1020E00042677047416F0909090141677047000065
:1020F0005800001040420F000080014080800440E2
:1021000000C0014010B5334C00212046FFF7BEFF50
:102110002046FFF7C5FF01212046FFF79FFE10BDB7
:1021200010B52C4C2046FFF797FEC00713D00121B5
:102130002046FFF793FEFFF7E5FF274C0022012121
:102140002046FFF7D1F8002204212046FFF7CCF803
:10215000224800F057F910BD1CB501214802FEF7D6
:10216000E9FE01201E49C4030C60694608700A207C
:1021700001906A4600211748FFF785FE194801685B
:102180000902090A020711430160154880380460FA
:102190001CBD3EB50F4C054600212046FFF776FFDB
:1021A00000216846017001224270C2708170017185
:1021B000694620460295FFF79CFE2046FFF770FF18
:1021C00001212046FFF74AFE01212046FFF75EFF6E
:1021D0003EBD00000080014000800040440000102F
:1021E00080E100E00CE400E030B50B460146002041
:1021F0002022012409E00D46D5409D4205D31D460D
:102200009540491B2546954040191546521E002D04
:10221000F1DC30BDF0B51FB40646002082B00546A3
:102220004024019100901BE0019922460F46304660
:1022300000F083F8049A059B801A994110D3104648
:102240001946224600F069F8361A8F410197224656
:1022500001200021009F00F060F838184D410090E7
:102260002046641E0028DFDC019B00982946324688
:1022700007B0F0BDF0B51FB486B00020009001900B
:1022800002900698069980B204900798090C0204FF
:102290000014114307900027089D099806913E46B7
:1022A0003C4603900398A9B20204000C03900498E2
:1022B0002D0C154348430021224600F02EF8C71983
:1022C000714110340E46402CECDB3846029A00F087
:1022D00024F8009A019B80180090594102980191BE
:1022E000103002904028CCDB00980BB0F0BD10B548
:1022F000044605E00B780370401C002B00D0491CFD
:10230000521EF7D2204610BD034603220870491C16
:10231000000A521EFAD51846704710B5202A04DB71
:102320000146203A9140002010BD914020239C1A84
:102330000346E3401943904010BD10B5202A04DB4A
:102340000846203AD040002110BD0B46D340D04073
:102350002024A21A91400843194610BD064C0125BD
:10236000064E05E02046E36807C82B439847103423
:10237000B442F7D3FDF7A6FE3C2D00005C2D000013
:102380000000000030B47446641E2578641CAB4223
:1023900000D21D46635D5B00E31830BC184702E0C5
:1023A00008C8121F08C1002AFAD1704770470020E0
:1023B00001E001C1121F002AFBD1704710B5002AAD
:1023C00006DA52005208D21DD308DB00102203E0C7
:1023D000D21C93089B000C22002B02D09C188C422C
:1023E00001D9012010BD821883604118026041604C
:1023F000C91AD018884202D810600246F9E70020B6
:10240000106010BD10B5002100F0DEF900F0CCF92D
:1024100010BD000007480168074841610021816143
:10242000072101610548016AFF221206114301627A
:10243000401770471C2D000000E000E000ED00E0B8
:1024400070470146EFF31080C207D20F72B60868DA
:10245000002801D003680B60002A00D162B67047E3
:1024600070B50D4600280FD00849094C884204D2A7
:1024700022680146104600F0C7F9206845700548FB
:1024800000F0A5F800F082FA70BD0000FFFF000028
:1024900060000010480F001070B51B4DE868002860
:1024A00031D0A88A401EA882002626E0A068002815
:1024B00008D0616841606068002802D0A16881602E
:1024C0006660A66010482146183800F0C5F9A08A59
:1024D000A8826078042804D10C49E08A0988401851
:1024E000A0820120607025210855E068E860E0685E
:1024F000002801D00561E6602661A88A002802D183
:10250000EC68002CD2D170BD600F00106800001084
:1025100070B504000ED00C4DA17828680126827891
:1025200091420BD900F0B6F928684670204600F0B9
:102530002DFA70BD054800F04AF8F8E766702146AC
:10254000024800F089F970BD60000010480F0010CB
:1025500010B50321FFF784FF10BD000010B504463D
:10256000008B084320836278618B062A15D0052AE8
:1025700012D10A4610420FD0024062838843208362
:10258000204600F091F901206070022125200155BC
:102590002146044800F060F910BD0A468243EDD0A0
:1025A00010BD0000480F0010814202D342688A42E9
:1025B00001D801207047EFF31082D207D20F72B614
:1025C00003680B60016000D162B6002070470146CD
:1025D000406842684A600B780022022B05D0012B2C
:1025E00003D0032B01D0426070474368002B01D019
:1025F000996042608260704770B5044615460020BD
:102600002070012262702346A1702033197160602E
:10261000A060E06020612062A082E082208360836D
:1026200058719871208D002803D10448FFF709FFE5
:1026300020632946204600F003F870BD68020010B0
:1026400030B5028D920803D10E4A12881204920C02
:10265000036B92009A18530700D5121F403A0123CA
:102660001B06D363002391631C469D005B1C5451E1
:102670000E2BFAD3C3691362C2624163006B024935
:10268000016030BD182D0000A52E5AE2F8B50446B1
:10269000406800260F46002805D06078022818D030
:1026A000A08900282FD0A089E18988423ED22089C4
:1026B00080000019076172B6A089401CA08162B633
:1026C0002089401C80B22081E189884200D1268186
:1026D000F8BD66702046FFF77AFF05462030467148
:1026E0002189E86989000919086172B6A089401C2E
:1026F000A08162B62089401C80B22081E189884295
:102700000AD1268108E02046FFF761FF0546C0692F
:10271000042107602520415501206870284600F0FB
:10272000C3F82946034800F097F8F8BD0320FDF7E9
:10273000C9FDF8BD480F001070B5184801210268A6
:102740005170006800F0A6F8154C657813E0E800B9
:10275000011948680278002A17D0012A1AD000F01F
:10276000D9F8E0786D1C854200D1002572B6A078BA
:10277000401EA07062B6A0780028E8D165700948B4
:10278000FFF725FF00F002F970BD098989B2FFF754
:10279000E5FEE6E78968FFF779FFE2E760000010F1
:1027A000780E0010480F001005480178002902D06B
:1027B00001214170704701200249000748607047BD
:1027C0006C00001000ED00E070B50E4BDD789C1C35
:1027D0001E4672B69A78AA4207D2521C22703278EC
:1027E000541CAC4200D10024347062B6DC789442B0
:1027F00004D9D200D2189160506070BD0220FDF75C
:1028000061FD70BD780E001010B5124AD368002B20
:1028100017D013469B8A04E0002C12D02246A48ACB
:10282000E318D4688B42F7D3C460D0600261C468F7
:10283000002C00D02061591A8182908A401A90821F
:1028400010BD0024C460D060C91A026191828482E4
:1028500010BD0000600F001030B502780023022A7E
:1028600003D0012A01D0032A00D101238C7800E093
:1028700010464268002A02D09578A542F8D24A60F4
:102880004160002B04D0002A00D09160886030BDE8
:102890000020FBE703494A684260002282604860EA
:1028A00070470000480F001010B5016900290FD0D3
:1028B000C268CA60C3680022002B07D08B8A848A52
:1028C0001B198B82C3681961C26000E08A820261B1
:1028D00010BD00008168002907D042684A60416845
:1028E000002901D0806888607047064906E04A6880
:1028F000824202D140684860704711460029F6D1F3
:1029000070470000480F001002220270002242604F
:102910004180704710B5416800290ED0FFF757FE7F
:102920000446FFF7C1FF01206070032125200155F7
:1029300021460448FFF790FF10BD4188491C4180A3
:1029400010BD0000480F001010B50C46418800294A
:1029500003D0491E4180002010BD002C07D00A4A38
:1029600043681168002B04D0FFF776FF07E00120D1
:1029700010BD41601368002159601168886007210B
:102980002046FFF76DFDF2E7600000100249486045
:10299000022141707047000060000010F7B5164634
:1029A00000200446374A384902E08300D450401CD6
:1029B0000B889842F9D33548382201883448FFF70C
:1029C000FDFC344801210088C90780B24218324812
:1029D00001683248FFF7F2FC31480822018831488B
:1029E0000068FFF7EBFC304FFF25FD703C852F4A58
:1029F00000213846FFF700FE2D4804210170446095
:102A00002C480170C46004618482F86A2030FDF7AC
:102A10005FFB29482A490760022078702748047024
:102A200044700978C170FDF74EFC2648016A2A04FB
:102A300011430162C169026A5202920E9206114369
:102A4000C161FFF7E7FC20490028086012DB82081B
:102A50001E49920051180A688307DB0E9D402A43E5
:102A60000A60C206D20E012191404011184A80002E
:102A700080180160002332460199009800F068F840
:102A8000FEBD0000FC0E0010142D00002C2D0000D7
:102A90006C010010182D0000302D0000680200109D
:102AA000362D000054000010100F0010C10200006D
:102AB000480F0010600F001060000010780E00102A
:102AC000342D000000ED00E07000001000E400E094
:102AD00000E100E010B50B48012102685170006868
:102AE000FFF7D8FEFDF7F0FB07480168491C0160BD
:102AF000FFF7D2FC00F00CF80448FFF768FDFFF781
:102B000045FF10BD6000001068000010480F001065
:102B100070B50D4C2068002815D0A0880B4E401EC3
:102B2000A0800AE0E888FDF7CCFBA888A080286890
:102B3000206029463068FFF737FDA088002802D1C1
:102B40002568002DEED170BD7400001054000010F7
:102B5000FFB5080681B01E4617460C46000E00D190
:102B60004C1C1648FFF76DFC050025D02002000C18
:102B70002F632885EE61E1B22846019AFFF73CFDFC
:102B800001240F480F4906E0A2001218403AD26B08
:102B9000002A04D0641C0A889442F5D90024A100BC
:102BA00008184038C563EC702846FFF7B1FC0648AA
:102BB000006820304471204605B0F0BD6C01001063
:102BC000FC0E0010142D000060000010F8B5494DF7
:102BD0000028296802D0CA7882423AD100274F7073
:102BE000FDF779FA2968C862FDF76FFB2868046A67
:102BF0001BE06068002817D02046FFF7E8FC064677
:102C00000520252188553046FFF74EFE01207070C3
:102C100031463948FFF720FE01206080A660306A07
:102C2000E0603462E46800E0E468002CE1D12868E8
:102C3000C1788A00314951184039CF63016B30485F
:102C4000FFF7B2FC29682F480F63FFF7ADFC2F6038
:102C50004AE02D49098888420ED8810027480F187C
:102C6000403FFD6B002D07D02846FFF733FE284676
:102C7000FFF71AFE2C6A1DE0FF20F8BD60680028EF
:102C800017D02046FFF7A3FC0646052025218855CE
:102C90003046FFF709FE0120707031461648FFF7F5
:102CA000DBFD01216180A660316AE1603462E46885
:102CB00000E0E468002CE1D1FC631148296BFFF7C8
:102CC00073FC29460F482C63FFF76EFC0A484068E6
:102CD0008278084801688B789A4208D901224A70A4
:102CE00001680548FFF7B8FD0020FFF711FC002040
:102CF000F8BD000060000010480F0010FC0E00102E
:102D0000680200106C010010142D0000000407067A
:102D10000AC00A1005000000000200007FA903009D
:102D2000000000001027000000000000FC00000070
:102D3000100C000010000000490004005C2D000091
:102D4000000000107C0000009E230000D82D000031
:102D50007C000010FC100000AE230000000000000A
:102D60000000000000000000000000000000000063
:102D70000000000000000000000000000000000053
:102D80000000000000000000000000000000000043
:102D90000000000000000000000000000000000033
:102DA0000000000000000000000000000000000023
:102DB0000000000000366E0100366E0100000000C9
:102DC0000000000000000000000000000000000003
:082DD0000000000000000000FB
:04000005000000BD3A
:00000001FF
