:020000040000FA
:1000000070110010CD020000DD020000D5020000DA
:1000100000000000000000000000000000000000E0
:10002000000000000000000000000000410100008E
:100030000000000000000000E50100004502000093
:10004000DD020000DD020000DD020000DD02000034
:10005000DD020000DD020000DD020000DD02000024
:10006000DD020000DD020000DD020000DD02000014
:10007000DD020000DD020000DD020000D9230000E7
:10008000DD020000DD020000190800001B0800006E
:10009000DD020000DD020000DD020000DD020000E4
:1000A00000000000DD020000DD020000DD020000B3
:1000B00000000000DD020000DD020000034885466C
:1000C00002F0A8FA00480047C71E00007011001097
:1000D00080F309887047EFF309807047684680F322
:1000E000098806480078C00703D1032080F31488EC
:1000F0007047022080F3148870470000302F000002
:10010000064B9C46EFF305831B0605D1EFF31483E2
:10011000DB0701D000DF704760470000FB260000CE
:10012000064B9C46EFF305831B0605D1EFF31483C2
:10013000DB0701D000DF7047604700006128000046
:10014000EFF309808169891E0978002933D1A64619
:100150001FC8A4467446E0471F4B06CB914224D0EB
:10016000083B002910D00CB4203101234B70EFF371
:100170000983203B4B60F0C344464D4656465F46DC
:10018000F0C300F0A2F80CBC1A60203253681033A0
:10019000F0CBA046A946B246BB4683F30988203B74
:1001A000F0CB5078002803D01078EFF30983186063
:1001B0000223DB43184710B5084A1268914209D858
:1001C000074C89006458A6461FC8A446F047EFF3C1
:1001D00009840FC410BD0000600000103826000024
:1001E0003826000002F002FC154B06CB914223D0CA
:1001F000083B0CB4203100234B70EFF30983203B04
:100200004B60F0C344464D4656465F46F0C300F08F
:100210005CF80CBC1A60203253681033F0CBA04657
:10022000A946B246BB4683F30988203BF0CB507801
:10023000002801D0107818610223DB431847000022
:100240006000001002F0A0FDCEE7000002F054FABA
:1002500002F09AFDC8E70000F0B5184902888E4602
:1002600091091207120F94460589C278848903699F
:10027000242910D025290ED08678478900793E435D
:100280006746384306432E43164326431E438900E0
:1002900070464650F0BDC68860462E430243F3E7E1
:1002A0000021018010228270C170C18001814181D2
:1002B000802202718181016170470000004004408A
:1002C000FEE77047FEE77047704770470448804775
:1002D00004480047FEE7FEE7FEE7FEE7FEE7000012
:1002E0001D200000BD000000001D0321401E0378FA
:1002F00012021A43491EF9D510467047FFFFFFFF4F
:10030000FA49CF220028C86802D01040202201E01C
:10031000104030221043C8607047F448C068302154
:100320000840202801D00020704701207047F04984
:10033000CF220028C86802D01040202201E01040DF
:1003400030221043C8607047E948C0683021084037
:10035000202801D00020704701207047E549002285
:100360004A718A710A46C871203A107001200871DA
:100370007047E0490A79002A01D10023CB71CB797B
:100380001B18CB71DB4B203B98540879401C08713B
:10039000704770B5D74C0020203C2246203213799C
:1003A000D24D51798B4207D0665C2E60491C401CAF
:1003B000C0B251711028F4D370BDCE494E310A79C4
:1003C000002A01D10023CB71CB791B18CB71C94B0B
:1003D0002E3398540879401C0871704770B5C54C8D
:1003E00000202E34224620321379C14D51798B42A0
:1003F00007D0665C2E60491C401CC0B251711028A9
:10040000F4D370BD10B503460120FFF779FFB7485C
:1004100003600122022101F005F810BD70B50D4600
:100420000646002404E0305DFFF7A3FF641CE4B23D
:10043000AC42F8D30020FFF763FFFFF7AAFF0122C9
:100440000221AA4800F0EEFF70BD10B5A9488179DD
:1004500001710020FFF754FFFFF79BFF01220221EB
:10046000A24800F0DFFF10BDF8B507460020A14DFF
:100470000E464E3528716871044604E0385DFFF77A
:100480009CFF641CE4B2B442F8D3E879FFF795FF0F
:1004900099490320C870FFF7A1FF01220221944867
:1004A00000F0C0FFF8BD70B5FFF737FF8F4B914CE0
:1004B00001280FD020796179884219D11D4628463C
:1004C00000F0ADFF4006FAD50120FFF719FFE079F3
:1004D000286070BD6079A0710021617121710846AA
:1004E000FFF70EFF00220221184600F09BFF70BDAF
:1004F000FFF74FFF70BD7F4810B54E30027941794C
:100500008A420BD181710024447104712246022178
:10051000774800F087FF7848C47010BDFFF75EFF92
:1005200010BD10B5744BDC78724A08321146203188
:10053000002C11D0DC78012C0DD10C7910550879E4
:10054000401CC0B208715178884204D10220D87092
:100550006A4802F0B3F810BD242805D0262803D03D
:10056000282801D03028F6D10124DC7010700C71DD
:1005700010BD604810B5263800790021401E0206E3
:10058000120E0DD05B4B0020463B04E01C5C611852
:10059000401CC9B2C0B29042F8D3985C884201D1E5
:1005A000012010BD002010BDF8B5534A8C4691784B
:1005B0000646504B1046463B1F4603240025007854
:1005C0002037002916D011468978012932D1614699
:1005D00000292FD139794A1C242A2BD25E5439792B
:1005E000454A491CC9B239719279002A59D011285B
:1005F00025D032E0604600281CD0012090701E708B
:10060000387116709179022000290AD0102E12D06C
:10061000112E04D0122E0ED0142E0AD10DE0072078
:1006200009E0602E07D0612EF9D0622E03D0642E2F
:1006300003D05570F8BD5070F8BD5470F8BD5878AF
:1006400001286DD107296BD1FFF793FF002804D152
:1006500029480D2141700121816027480178132923
:1006600004D0142912D0172957D059E0397902291A
:1006700056D1330001F0E2FF05040E480E0E1000C3
:10068000816800293ED009214170F8BD39790229DD
:100690003CD045E04470F8BD45705BE0002E57D07B
:1006A0003EE061280DD15878012839D1072937D18A
:1006B000FFF75FFF002804D10F480D214170012191
:1006C00081600D480178632904D06429DED0672950
:1006D00023D025E03979022922D1330001F0AEFF81
:1006E0000511101410100400D6E70000008000402F
:1006F00000C00040C2000010000000104C000010BC
:10070000C8E7BDE70721BFE70521BDE7002EC1D03F
:10071000012EBFD0022EBFD1BCE739790229BDD04E
:10072000FE484078002815D039798142B3D101F0D4
:1007300045FEFB4C00220121204600F073FE002202
:100740000421204600F06EFEF64801F0B7FFF8BD28
:10075000202199E7C82001F078FEF8BD10B5F248D5
:1007600000210079401E0206120E0DD0EE4B002033
:10077000203B04E01C5C6118401CC9B2C0B290422E
:10078000F8D3985C884201D1012010BD002010BD33
:1007900070B5E64D284600F05AFE04460E210C4086
:1007A000284600F03CFE062C08D0042C0AD00C2C65
:1007B00008D0022C01D1FFF79EFE70BDC007FCD00F
:1007C000286870BD2868C0B2FFF7ABFE70BD70B579
:1007D000D34D284600F03BFE04460E210C4028462F
:1007E00000F01DFE062C08D0042C0FD00C2C0DD0D0
:1007F000022C01D1FFF757FE70BDC107FCD029685C
:100800004007CAB2F8D50121104602E0286800214D
:10081000C0B2FFF7C9FE70BDD9E7B9E7BF480121F3
:100820000C30017002224270112383705623C37072
:10083000BA4B0171DB79002B01D0427100E04171AC
:100840003C2181710821C171704710B5B84C092055
:1008500020700322B7A1601C01F0A5FE0C22B6A1F6
:10086000201D01F0A0FE20460C22B6A1103001F0A0
:100870009AFE032020772020607710BD10B5B44C7D
:1008800003202070B34A20464270110A8170E11C97
:10089000B14801F095FE0020E0712072607210BD39
:1008A00010B588B06846FFF7FBFC0D20C0016A4612
:1008B00010806846FFF7D0FC0520012208210007C0
:1008C00000F042FB01210C03204600F0D1FB122076
:1008D00000F002FB6846FFF7E3FCA0496A4611807E
:1008E0006846FFF7B9FC9D496A4640311180684669
:1008F000FFF7B2FC0021042000F0E4FB01212046B8
:1009000000F0B6FB012000F0F6FB854C204600F01D
:10091000E3FC05A9204600F036FD4B208001059040
:1009200003206A4610761820907600215176D17601
:100930001177517705A9204600F0F5FC01212046EA
:1009400000F030FD01221146204600F06BFD01222F
:100950000421204600F066FD122000F0B6FA08B02F
:1009600010BD30B57049002020390A4689B00446D0
:1009700026320C541454401CC0B22428F9D36A48BF
:10098000447104712630C4710471447184716846E5
:10099000FFF786FCFF200130694608806846FFF7B4
:1009A0005BFC15210122080700F0CEFA01214D035E
:1009B000284600F05DFB132000F08EFA6846FFF732
:1009C0006FFC664A6946C23A0A806846FFF744FCF3
:1009D00062486946823808806846FFF73DFC00217E
:1009E000082000F06FFB0121284600F041FB0120A8
:1009F00000F086FB4D4D284600F06EFC05A9284608
:100A000000F0C1FC4B20C001059003206946087628
:100A10008C764C76CC760C774C7705A9284600F07E
:100A200082FC0121284600F0BDFC01221146284627
:100A300000F0F8FC132000F048FA38480221017158
:100A400047490C6047490C6047490C6047490C60B6
:100A500047490C6047490C60C47009B030BD10B5FF
:100A600088B06846FFF71CFC192080016A46108098
:100A70006846FFF7F1FB052001220721000700F07F
:100A800063FA01210C03204600F0F2FA122000F074
:100A900023FA6846FFF704FC30496A46118068462D
:100AA000FFF7DAFB2D496A46403111806846FFF7AF
:100AB000D3FB0021042000F005FB0121204600F0BB
:100AC000D7FA012000F017FB154C204600F004FC7B
:100AD00005A9204600F057FC4B20C00105900320DB
:100AE0006A461076002191765176D176117751774A
:100AF00005A9204600F017FC0121204600F052FC19
:100B000001221146204600F08DFC012204212046DE
:100B100000F088FC122000F0D8F920E70000001057
:100B20000080004044000010EA00001000C00040B7
:100B3000300100104B5745004B57303032363030C3
:100B400035310000694B41574520323630000000F6
:100B50004E01001007D00000000001F4440700001F
:100B60002C0000103000001034000010380000107D
:100B70003C0000104000001090B589B06846FFF7B7
:100B80008FFB1B2080016A4610806846FFF764FBDC
:100B9000052001220921000700F0D6F901214807AC
:100BA00000F066FA6846FFF77BFB032000026A4606
:100BB00010806846FFF750FBCB4C01220D212046E8
:100BC00000F0C2F901220D21204600F0B3F9C74F11
:100BD0001920BC4600DF01220D21204600F0A5F9B6
:100BE00001214C03204600F043FA132000F074F971
:100BF0006846FFF755FBBE496A4611806846FFF715
:100C00002BFBBB496A46403111806846FFF724FB45
:100C10000021082000F056FA0121204600F028FAB1
:100C2000012000F06DFAB34C204600F055FB05A9F9
:100C3000204600F0A8FB4B20C001059003206A4627
:100C400010763820907600215176D1761177517741
:100C500005A9204600F067FB0121204600F0A2FB19
:100C600001221146204600F0DDFB0122042120462E
:100C700000F0D8FB132000F028F909B090BD30B582
:100C80009D4900200A4689B0263204460C5414546B
:100C9000401CC0B22428F9D3974820304471047115
:100CA0002630C4710471447184716846FFF7F8FA04
:100CB000C02168460180FFF7CFFA1421012288067F
:100CC00000F042F901210D03284600F0D1F912206D
:100CD00000F002F96846FFF7E3FA884968460180A8
:100CE0004021C170FFF7B8FA84496846403101805D
:100CF000FFF7B2FA0021042000F0E4F901212846B0
:100D000000F0B6F9012000F0F6F97D4D284600F01C
:100D1000E3FA05A9284600F036FB4B20C0010590F8
:100D2000032168460176382181764476C4760477BB
:100D3000447705A9284600F0F6FA0121284600F07C
:100D400031FB01221146284600F06CFB01220421F0
:100D5000284600F067FB6B480168FF2212049143AC
:100D6000EA0111430160122000F0AFF86648847078
:100D700073E630B5644C85B00120E0710146800710
:100D800000F076F96846FFF78BFAFF20413069469C
:100D900008806846FFF760FA05252D070122162115
:100DA000284600F0D1F801221621284600F0BDF8AF
:100DB0001920C001694608806846FFF74DFA534D77
:100DC00000220321284600F0BFF80321284600F046
:100DD000A5F8E07105B030BD30B54B4C85B00120B1
:100DE000A0710146800700F043F96846FFF758FA02
:100DF0008020694608806846FFF72EFA05252D07F2
:100E000001221321284600F09FF8012213212846D1
:100E100000F090F835208001694608806846FFF7A9
:100E20001BFA3A4D00220621284600F08DF80621D3
:100E3000284600F073F8A071CCE730B5012185B0E9
:100E4000C80700F015F96846FFF72AFA1320C00119
:100E5000694608806846FFF7FFF9052000220C214B
:100E6000000700F071F80121880700F001F96846D9
:100E7000FFF716FA0D200002694608806846FFF762
:100E8000EBF9224D00220521284600F05DF83320C1
:100E90008001694608806846FFF7DEF900220421D8
:100EA000284600F051F80421284600F037F804469F
:100EB0000521284600F032F86100014312484171D3
:100EC000FFF78AFFFFF755FF84E7C106C90E01202F
:100ED00088400F4908607047C106C90E012088404C
:100EE0000B4980310860704700000250092800005B
:100EF000C302000000C000407C000010820400001B
:100F00000080004010E400E00000001000000150EC
:100F100000E100E010B500F06EF810BD10B5001D46
:100F200000F05AF810BD8160704710B50C3000F029
:100F300062F810BD10B5103000F05DF810BD10B5AE
:100F4000143000F058F810BD10B5203000F053F800
:100F500010BD10B5203000F03FF810BD10B50124D1
:100F60008C40130001F06AFB0504070A111A1000F7
:100F7000416AA1430BE0416AA14311E0416AA143E8
:100F80004162816A2143816210BD416A214341620D
:100F9000816AA1438162C16AA14307E0416A21439A
:100FA0004162816AA1438162C16A2143C16210BD6D
:100FB00010B5303000F01FF810BD10B5343000F01F
:100FC0000BF810BD10B5383000F006F810BD10B5A4
:100FD0003C3000F010F810BD0246002012682029B5
:100FE00005D201238B40134200D001207047FF2916
:100FF000FCD110467047202909D201238B4001689B
:10100000002A01D0194300E0994301607047FF298D
:10101000FCD10260704700007448006BC006C00E2F
:10102000704780077149800F0860704781076F48DB
:10103000890F40300160012141600022426041601F
:101040004168C907FCD07047704781076748890F1E
:101050004030016301214163002242634163416BDF
:10106000C907FCD070476149C0B2403188637047FE
:101070005E4A80320029116801D0014300E08143BB
:1010800011607047400820280BD80F2909D8490162
:10109000401E0143554841625548816B40229143AF
:1010A00081637047830751489B0FC030CAB2036207
:1010B00001214162002343624162416AC907FCD0B9
:1010C00082627047494A0129516802D00143516048
:1010D00070478143FBE701224449D2030128486855
:1010E00002D09043486070471043FBE73F49C0B2CD
:1010F0008031486170473D49C0B280318861704796
:101100003A49C0B28031C86170473949C0B2C0396C
:10111000C86070473649C0B2C039886070473449EA
:10112000C0B2C039486070473149C0B2C0390860A8
:1011300070473049C0B2C86370472E49C0B2886357
:1011400070472C49C0B248637047294A0129116B86
:1011500002D08143116370470143FBE7244A012910
:10116000916B02D08143916370470143FBE7204AB2
:101170000129516B02D08143516370470143FBE762
:101180001C49403148637047194A0029516801D011
:10119000014300E0814351607047154A00291168FE
:1011A00001D0014300E081431160704710498A6813
:1011B00002438A6070470E4A0029516901D00143F9
:1011C00000E0814351617047094A0029116901D04B
:1011D000014300E081431161704705498A69024378
:1011E0008A6170470448406B7047000000800440EB
:1011F0000082044000810440C0830440F3B50546EA
:1012000087B00020059004900120009000200190FC
:10121000029008989F4A40090390A0489E490068A0
:10122000954201D1896903E09D4A954204D1C9697B
:1012300001F036F9000904900026741C26E0049A97
:101240002046A119504301F02BF90690089901F0AE
:1012500027F9074608984008814200D97F1C914928
:10126000F81E884211D23946069801F019F90899FA
:10127000884201D8081A00E0401A0399884204D233
:101280006946D0C1039001200590641C0F2CD6D96B
:10129000761C0F2ED1D3059801281AD1E868802139
:1012A0000843E8600299009A019B0904120702981A
:1012B000090E120E1B071B0FC0B21A4306E028606E
:1012C0006960EB685B065B0EEB60AA62EB681B066D
:1012D000F5D4059809B0F0BD38B510218162072119
:1012E000816001E0016800914169C907FAD180215C
:1012F000016341698906FCD5002404634460C4602D
:1013000004624169009100F0BDF80C21009048434F
:10131000654903220C504018027144718471C471F4
:101320000472447238BDF8B50C46074600F0AAF8BE
:101330000C2105464D435C4E21687059884204D00B
:101340003846FFF75BFF206870512079A179627AF7
:101350000843617911430843F860207AE179084332
:1013600001210843CF210840B8602179A8190171F3
:1013700061794171A1798171617A4172E179C171BB
:10138000217A0172F8BD10B50C4600F07BF80C21F3
:10139000484345494018426801688068626021609E
:1013A000A06010BD0129016B02D0002101637047CC
:1013B00080221143FAE770B5002616E01C4602E0D1
:1013C000002C14D0641E4569AD06F9D5002C0ED052
:1013D000102507E00C78491C04606D1E521E761C17
:1013E000002D02D0002AF5D101E0002AE6D13046D6
:1013F00070BD70B5054600200EE01C4602E0002CD2
:101400000CD0641E6E69F607F9D0002C06D02C684B
:101410000C70491C521E401C002AEED170BD406960
:10142000C0B2704770B50E460446012A05D01F4D64
:1014300000F028F8002803D004E06068084304E0C6
:101440001A4D88356068B5432840606070BD80687B
:101450001649C8310840704710B5C368802423433B
:10146000C360002303604360C368A343C3601023C9
:101470008362114301221143016210BD032109025D
:10148000016270470349884201D100207047012062
:101490007047000000800040808004405C00001025
:1014A00000C00040FDFF000018010010070300000D
:1014B00010B505200C210007FFF730FD002801D0F2
:1014C000002010BD012010BD002086B0FB4F064655
:1014D0000090029001460190F748BC4600DFF648B4
:1014E00024213038017003214170F5480225039012
:1014F000F44C2078801E030001F0A0F80705FE568A
:10150000FDFCFBFAFE00F04F1420BC4600DFEA4968
:101510000020343948628862E74802213038FEF7FB
:10152000A3FFEA4F7D21C900E348BC4600DF012844
:1015300033D0FFF713F9012829D1E5480078242892
:10154000FAD1E3488178012904D0072920D008295D
:1015500015D01DE0D84E0121343EF161C01CFEF7CC
:10156000C3FE7061DB480078002801D0DA4800E053
:10157000DA48B06100200646009004205DE1CE49C3
:1015800000203439C8612570D5490F2008702DE23C
:10159000C94900203439C86127E201202070C649BA
:1015A00000203439C861EFE7C74F0320BC4600DF95
:1015B000C1483438006A002803D1FFF779FF0028BA
:1015C00077D0BF4F26200B3F38700B207870BA4879
:1015D000B91D3438406900F0F3FFB7483438006A69
:1015E000002831D0B4490020343908624862B94833
:1015F00000780028084602D001880A2901D2008814
:1016000003E000880A2100F04BFFB870000AF87070
:10161000A948323800883871000A7871A8480A2130
:101620000B38FEF721FFA449012034394862A74F47
:101630007D21C900A048BC4600DF012842D0FFF749
:101640008DF8012806D010E00120B8700020F87055
:101650000C20E0E79E480078262806D19C4804909C
:101660008078022803D0032801D0062027E0964F77
:101670000320BC4600DF904802213038FEF7F4FE1C
:10168000924FFF21F5318C48BC4600DF01280FD076
:10169000FFF764F801280BD18D4800782428FAD18F
:1016A00004988078062805D0082803D002287DD029
:1016B0009CE10CE080490020343988629DE0884933
:1016C000087092E18649062008700820B5E07A4843
:1016D0003438406A002819D00198002816D0814873
:1016E000761CB6B2019086421BD90026314604E032
:1016F00021E1FBE0B3E082E04AE16F483438466123
:101700008661426A002A04D0062203E04B200001D1
:10171000E6E70E22724B1A70082222704162816243
:1017200064E16F4800780D2811D0634802213038F9
:10173000FEF79AFE654F7D21C9005F48BC4600DF79
:101740000128B5D0FFF70AF801280AD04EE1207829
:10175000082801D008202070574900203439C8617A
:1017600044E15B4800782428A2D1594881780529B2
:101770000CD0022927D003292AD006292DD00429EC
:101780002BD0082929D0072931D02FE14A4F343FE7
:10179000B96A00298CD1C01CFEF7A6FD78614848C3
:1017A0000B38C17882780802104300E00BE0B86182
:1017B000002078620120B862002006460090484967
:1017C0000520087039E03C490120343948620DE1B8
:1017D000394801213438416208E141490E2008703E
:1017E000354900203439486288620646FDE03248B7
:1017F00000213438416281620E460E205FE7324F8D
:101800000220BC4600DFFFF753FE002802D0002074
:10181000009011E000983449401C80B2009088424A
:101820000DD9002000902E48017807290FD00078AC
:10183000082810D0072000E006202070D6E02848B5
:101840000178072903D00078082804D0CEE020785A
:101850000628F1D1CAE020780728EBD1C6E01A4F5C
:101860000320BC4600DF16492820491E08700A20C4
:101870004870012088701048491D3438406900F0D4
:101880009FFE0D483238018803988170090AC170A3
:101890000B480921401EFEF7E7FD0C4F7D21C900D2
:1018A0000548BC4600DF43E0FEF758FF012801D1A0
:1018B0000748007899E000004C000010BD2B0000A4
:1018C000630100100400001009280000FD2B000037
:1018D000CA000010070000100BB80000012C000027
:1018E00014000010D80E0000E02E0000F94F032075
:1018F000BC4600DFF849282008700A204870002004
:101900008870F648491D406900F05AFEF348801C73
:10191000018803988170090AC1700921EE48FEF719
:10192000A3FD7D21ED48EE4FC9003430BC4600DFF9
:101930000128B9D159E0E74F0320BC4600DFE74852
:101940003021801D0170032141700298401C80B23B
:101950000290052802D90020029046E0DF480221CB
:10196000801DFEF781FDDD48DD4F64213430BC462B
:1019700000DF01283AD0FEF7F1FE012835D1D94821
:101980000078302831D1D748807801282DD02DE03B
:10199000D04F1420BC4600DFD0480221001DFEF7C6
:1019A00063FD7D21CD48CE4FC9003430BC4600DFF9
:1019B00001281AD0FEF7D2FE012817D1C9480078B5
:1019C000242813D1C7488178012900D0E0E5C01C44
:1019D000FEF78AFCC1494861C34888610120C8619B
:1019E000042020700020009000E02570BF490020F6
:1019F00008707DE5FEF712FFFEF727FFFEF73EFFBA
:101A0000B648BB4F00212C30BC4600DFB94C00204B
:101A10002070B94D0226B148B14FB8492C30BC46B0
:101A200000DFFEF7A6FD012801D0AA202AE0B44875
:101A30000670B449B44A08781278002A07D11828E9
:101A400072D002091201602A0AD0102AF8D0103888
:101A5000030000F0F3FD08090B1AA4FBF1C9F0C95B
:101A60000007000F1030F2E70020F7E0012020709F
:101A70004878002802D0012803D0B5E00821A34807
:101A800038E00020FEF7BEFCAEE0207800282ED023
:101A90002078022831D020780428F2D0207803283A
:101AA000EFD02078052840D020780728E9D020788A
:101AB000062859D0207808281ED020780928E0D0A0
:101AC00020780A2854D020780D2855D020780F2867
:101AD00061D020780E28D4D12878082801D0082099
:101AE000287001218A48FEF799FC03207BE0884892
:101AF0000121401EFEF792FC76E0784FF86900283D
:101B0000BFD00020F861032020707349001F1139F5
:101B100000F056FDB869704914394870000A8870A1
:101B20006D480A211438E5E7A3E06C490520083127
:101B30000870083908784978000208436749083175
:101B40004870000A88706548816A012904D0002025
:101B5000FEF758FC207847E0002181625F480321AE
:101B60000830FEF75BFCF5E769480121801CC1E7FE
:101B700067480221C01CBDE72878022804D05748D6
:101B8000C069002800D12E7061480121401CFEF779
:101B900045FC267028E05E480221401DAAE74878EF
:101BA000030000F04BFD07061A333A4121510500AE
:101BB00067E704202070C8788A7800021043474AFB
:101BC00040BA1080487909790002084340BA911C54
:101BD00008800120891E086253E708202870002031
:101BE000FEF710FC062020704649002020310871C5
:101BF00043490870474F012211463846FFF712FC4F
:101C0000012204213846FFF70DFC04E70620287066
:101C10000020FEF7F7FB0720E5E7072028700020EB
:101C2000FEF7F0FB0820DEE72C48C069002805D04D
:101C30000820287003E015E012E007E02E70002075
:101C4000FEF7E0FB0D20CEE70B20CCE7487800281C
:101C500003D00128ACD1267013E70120207010E7D3
:101C60000C20207048780028A2D11B481E21323851
:101C700040E710B5142101228806FFF756F910BD80
:101C800010B5142101228806FFF754F910BD10B5D4
:101C900014218806FFF742F9002802D0FFF7F0FF71
:101CA00010BDFFF7E6FF10BDB0B50546002407E004
:101CB000FFF7EDFF074F0520BC4600DF641CE4B2D0
:101CC000AC42F5D3B0BD10B5152101220807FFF7CE
:101CD0002CF910BD09280000620100101800001046
:101CE000FD2B0000CA0000100BB80000030000101C
:101CF000BD2B00001400001004000010FFFF0000C6
:101D0000020000107C000010060000100C00001003
:101D10001D2F00000080004010B51521012208078A
:101D2000FFF708F9D5E710B515210807FFF7F6F812
:101D3000002802D0FFF7F0FFCBE7FFF7C4FFC8E7AA
:101D400010B50520012213210007FFF7EEF8C0E7C8
:101D500010B50520012213210007FFF7EBF8B8E7C3
:101D600010B5052013210007FFF7D8F8002802D08E
:101D7000FFF7EEFFADE7FFF7E3FFAAE710B5052099
:101D8000012216210007FFF7D0F8A2E710B50520C1
:101D9000012216210007FFF7CDF89AE710B50520BC
:101DA00016210007FFF7BAF8002802D0FFF7EEFF70
:101DB0008FE7FFF7E3FF8CE7B0B50546002407E0A7
:101DC000FFF7ECFF494F3220BC4600DF641CE4B251
:101DD000AC42F5D3B0BDB0B50546002407E0FFF72F
:101DE000A2FF424F1420BC4600DF641CE4B2AC42A8
:101DF000F5D3B0BD3E4E3F4C3F4D3C4F0A20BC4654
:101E000000DF3078002806D00520012213210007CA
:101E1000FFF790F801E0FFF7A3FF384800780028AB
:101E200003D00420FFF7C8FF05E0FFF7B7FF2F4FEF
:101E30000A20BC4600DF207802280FD2287802282A
:101E40000CD20920FFF7C7FFFFF76DFF274F0A20CD
:101E5000BC4600DF0920FFF727FF17E020780228A3
:101E600003D20920FFF7B7FF0EE02878022807D237
:101E70000920FFF719FFFFF70AFFFFF754FFBCE740
:101E80001A4F6420BC4600DFFFF74DFFFFF7FFFE4F
:101E9000B3E700231B4F1A4614211948BC4600DF44
:101EA000194CE06000231A460A211848BC4600DF9E
:101EB000206100231A4602211548BC4600DF154F59
:101EC0000020BC4600DF80B5FEF7B7FFFEF749FDF6
:101ED000FEF7D5FE00F09CFAFEF700F90F4F002246
:101EE000FA210D48BC4600DF002080BD0928000013
:101EF000060000100400001014000010070000107D
:101F0000F5190000052E000018000010C91400008B
:101F1000F51D0000812E0000931E0000512C0000D2
:101F200070B55D4D0020696AC905090F0B0000F00E
:101F300085FB10090B0D0F11131517191B1D1F2100
:101F40002325272855481CE055481AE0554818E035
:101F5000554816E0554814E0554812E0554810E041
:101F600055480EE055480CE055480AE0554808E051
:101F7000554806E0554804E0554802E0554800E061
:101F80005548696AC906890E891C00F089FA424BD6
:101F90004033196B514A8907514C890F1BD00026D9
:101FA000012904D0022928D0032930D108E019687A
:101FB0008907890F0FD001290DD0022908D11CE013
:101FC00019688907890F0FD001290DD0022910D077
:101FD00003291CD11AE0226019E0A8683F49C00615
:101FE000C00E401C484308E0A868C005800FF4D02C
:101FF000F1E7A968C905890F01D0206007E0A96849
:10200000C906C90E491C4143216000E026602068D2
:102010006060996B00F044FA206070BD70B51E4995
:10202000022008602F4800220260AA238360552303
:1020300083600A622C4B986B2024A04398630A6249
:10204000104600BF401CC828FBD313484030026034
:1020500001254560426045604468E407FCD08D601E
:102060009C6B8026B4439C63CB68DB07FCD00321C8
:102070000163456342634563416BC907FCD08563D7
:102080000548803045618561C561026201680122B1
:1020900012041143016070BD00800440801A0600E4
:1020A00020A1070000350C00E0C81000C05C15003E
:1020B000006A180040771B0080841E00C091210038
:1020C000009F240040AC2700E032290020402C0073
:1020D000604D2F0000D4300040E13300001BB700FA
:1020E000580000100040004000820440024610B535
:1020F000AD48002100680B4600F018FAAB4A0023F7
:1021000000F0E4F910BD0068084000D001207047DD
:102110000068704702680A4302607047002141600E
:10212000A34AA449904202D108684A1504E0A24A91
:10213000904203D10868121590430860704770B54B
:1021400004469B4B9B489C4202D10368451504E022
:10215000994B9C4203D1036825152B430360A06A69
:1021600080088000A062A06AA0620020A0602061B8
:10217000E060002907D0A06A0C218843A0620020FB
:10218000C043206070BD10780028506801D0FFF770
:10219000ADFF401EE060F2E7002802D0002048704A
:1021A0007047012008704860704730B50A78002AEF
:1021B00006D0012A07D0022A08D0032A0BD108E052
:1021C0008A68826107E08A68C26104E08A68026204
:1021D00001E08A68426243690A78540014190722B0
:1021E000A240934343614A780123002A07D04469FF
:1021F0000A78550055191A46AA4014434461CA7812
:10220000002A08D044690A7855005219521C1D460C
:1022100095402C4344618A78002A07D044690A78A3
:1022200055005219921C93401C434461C36B0A78B9
:1022300003245200121D9440A343C3630A79097812
:102240009207920F4900091D8A40C26330BD30B524
:10225000836A0A78540014190722A24093438362C8
:102260004A780123002A07D0846A0A785500551954
:102270001A46AA40144384628A78002A08D0846AE5
:102280000A7855005219521C1D4695402C43846211
:10229000CA78002A07D0826A09784C000919891C7B
:1022A0008B401A43826230BD30B50A78002A06D0CE
:1022B000012A07D0022A08D0032A0BD108E08A6835
:1022C000826107E08A68C26104E08A68026201E014
:1022D0008A68426243690A78540014190722A240AE
:1022E000934343614B780122002B07D044690B785C
:1022F0005D005D191346AB401C434461CB78002B55
:1023000008D044690B785D005B195B1C15469D4045
:102310002C4344618B78002B08D044690B785D0016
:102320005B199B1C15469D402C4344610B79002B87
:10233000436F097802D08A40134301E08A409343F7
:10234000436730BD0129416803D049084900416015
:10235000704701221143FAE7426802210A434260B2
:1023600042688A434260704780687047002907D0FE
:10237000012907D0022907D0032907D00020704780
:10238000C06A7047006B7047406B7047806B704746
:10239000426F01238B409A4342677047416F09099E
:1023A00009014167704700005800001040420F00CB
:1023B000008001408080044000C0014010B5334CD3
:1023C00000212046FFF7BEFF2046FFF7C5FF012191
:1023D0002046FFF79FFE10BD10B52C4C2046FFF79E
:1023E00097FEC00713D001212046FFF793FEFFF7A9
:1023F000E5FF274C002201212046FFF713F80022B9
:1024000004212046FFF70EF8224800F057F910BDCE
:102410001CB501214802FEF72BFE01201E49C40312
:102420000C60694608700A2001906A46002117482E
:10243000FFF785FE194801680902090A02071143DE
:1024400001601548803804601CBD3EB50F4C054640
:1024500000212046FFF776FF002168460170012227
:102460004270C27081700171694620460295FFF783
:102470009CFE2046FFF770FF01212046FFF74AFE31
:1024800001212046FFF75EFF3EBD000000800140B5
:10249000008000404400001080E100E00CE400E017
:1024A00030B50B46014600202022012409E00D46EC
:1024B000D5409D4205D31D469540491B2546954074
:1024C00040191546521E002DF1DC30BDF0B51FB489
:1024D0000646002082B005464024019100901BE092
:1024E000019922460F46304600F083F8049A059B76
:1024F000801A994110D310461946224600F069F817
:10250000361A8F410197224601200021009F00F0DA
:1025100060F838184D4100902046641E0028DFDC2A
:10252000019B00982946324607B0F0BDF0B51FB4B4
:1025300086B000200090019002900698069980B223
:1025400004900798090C0204001411430790002717
:10255000089D099806913E463C4603900398A9B20F
:102560000204000C039004982D0C154348430021ED
:10257000224600F02EF8C719714110340E46402C47
:10258000ECDB3846029A00F024F8009A019B801890
:102590000090594102980191103002904028CCDB04
:1025A00000980BB0F0BD10B5044605E00B78037041
:1025B000401C002B00D0491C521EF7D2204610BDF3
:1025C000034603220870491C000A521EFAD5184619
:1025D000704710B5202A04DB0146203A91400020C4
:1025E00010BD914020239C1A0346E34019439040BC
:1025F00010BD10B5202A04DB0846203AD040002147
:1026000010BD0B46D340D0402024A21A914008436D
:10261000194610BD064C0125064E05E02046E3682C
:1026200007C82B4398471034B442F7D3FDF74AFD4F
:10263000482F0000682F00000000000030B47446EE
:10264000641E2578641CAB4200D21D46635D5B00AE
:10265000E31830BC184702E008C8121F08C1002A5E
:10266000FAD170477047002001E001C1121F002A13
:10267000FBD1704710B5002A06DA52005208D21D6D
:10268000D308DB00102203E0D21C93089B000C222D
:10269000002B02D09C188C4201D9012010BD821859
:1026A0008360411802604160C91AD018884202D87C
:1026B00010600246F9E70020106010BD10B500213F
:1026C00000F0DCF900F0CAF910BD0000074801680D
:1026D0000748416100218161072101610548016AC4
:1026E000FF22120611430162401770472C2F000091
:1026F00000E000E000ED00E070470146EFF31080DD
:10270000C207D20F72B60868002801D003680B60B8
:10271000002A00D162B6704770B50D4600280FD070
:102720000849094C884204D222680146104600F04C
:10273000C5F920684570054800F0A5F800F080FA5A
:1027400070BD0000FFFF000060000010400F00108F
:1027500070B51B4DE868002831D0A88A401EA882B9
:10276000002626E0A068002808D061684160606803
:10277000002802D0A16881606660A66010482146EA
:10278000183800F0C3F9A08AA8826078042804D120
:102790000C49E08A09884018A0820120607020213D
:1027A0000855E068E860E068002801D00561E6604F
:1027B0002661A88A002802D1EC68002CD2D170BD15
:1027C000580F00106800001070B504000ED00C4DBA
:1027D000A17828680126827891420BD900F0B4F9DB
:1027E00028684670204600F02BFA70BD054800F0BE
:1027F0004AF8F8E766702146024800F087F970BD94
:1028000060000010400F001010B50321FFF784FF97
:1028100010BD000010B50446008B08432083627889
:10282000618B062A15D0052A12D10A4610420FD014
:102830000240628388432083204600F08FF9012004
:1028400060700221202001552146044800F05EF905
:1028500010BD0A468243EDD010BD0000400F0010AD
:10286000814202D342688A4201D801207047EFF3C7
:102870001082D207D20F72B603680B60016000D1DC
:1028800062B6002070470146406842684A600B7893
:102890000022022B05D0012B03D0032B01D0426074
:1028A00070474368002B01D0996042608260704796
:1028B00070B5044615460020207001226270A17098
:1028C0006060A060E0602061A082E08220832346F7
:1028D0006083203318705870608C002803D104483E
:1028E000FFF70BFFA0622946204600F003F870BDF9
:1028F0006802001030B5428C920803D10E4A12884B
:102900001204920C836A92009A18530700D5121F82
:10291000403A01231B06D363002391631C469D00AC
:102920005B1C54510E2BFAD3C36913624262C1621D
:10293000806A0249016030BD282F0000A52E5AE2AE
:10294000F8B50446406800260F46002805D0607898
:10295000022818D0A08900282FD0A089E1898842B8
:102960003ED2208980000019076172B6A089401C00
:10297000A08162B62089401C80B22081E189884212
:1029800000D12681F8BD66702046FFF77CFF054622
:10299000203006702189E86989000919086172B63A
:1029A000A089401CA08162B62089401C80B2208191
:1029B000E18988420AD1268108E02046FFF763FFBB
:1029C0000546C06904210760202041550120687038
:1029D000284600F0C3F82946034800F097F8F8BDF0
:1029E0000320FDF76FFCF8BD400F001070B51848CC
:1029F00001210068417000F0A7F8164C657813E0DB
:102A0000E800011948680278002A17D0012A1AD074
:102A100000F0DAF8E0786D1C854200D1002572B62E
:102A2000A078401EA07062B6A0780028E8D165703A
:102A30000948FFF728FF00F003F970BD098989B242
:102A4000FFF7E8FEE6E78968FFF77AFFE2E70000B4
:102A500060000010780E0010400F0010054801784B
:102A6000002902D00121417070470120024900076E
:102A7000486070476C00001000ED00E070B50E4B30
:102A8000DD789C1C1E4672B69A78AA4207D2521C68
:102A900022703278541CAC4200D10024347062B6EB
:102AA000DC78944204D9D200D2189160506070BD95
:102AB0000220FDF707FC70BD780E001010B5124A19
:102AC000D368002B17D013469B8A04E0002C12D049
:102AD0002246A48AE318D4688B42F7D3C460D0603E
:102AE0000261C468002C00D02061591A8182908A4A
:102AF000401A908210BD0024C460D060C91A0261DF
:102B00009182848210BD0000580F001030B5027809
:102B10000023022A03D0012A01D0032A00D1012375
:102B20008C7800E010464268002A02D09578A542D1
:102B3000F8D24A604160002B04D0002A00D0916096
:102B4000886030BD0020FBE703494A6842600022EC
:102B50008260486070470000400F001010B50169A6
:102B600000290FD0C268CA60C3680022002B07D0BA
:102B70008B8A848A1B198B82C3681961C26000E04A
:102B80008A82026110BD00008168002907D0426876
:102B90004A604168002901D0806888607047064912
:102BA00006E04A68824202D1406848607047114698
:102BB0000029F6D170470000400F00100222027079
:102BC000002242604180704710B5416800290ED054
:102BD000FFF759FE0446FFF7C1FF01206070032193
:102BE0002020015521460448FFF790FF10BD418881
:102BF000491C418010BD0000400F001010B50C466C
:102C00004188002903D0491E4180002010BD002CBE
:102C100007D00A4A43681168002B04D0FFF776FFFB
:102C200006E0012010BD4160116800234B60886000
:102C300007212046FFF770FDF3E700006000001059
:102C40000249486002214170704700006000001096
:102C5000F7B5164600200446374A384902E083009B
:102C6000D450401C0B889842F9D335483022018853
:102C70003448FFF7FFFC344801210088C90780B2BF
:102C80004218324801683248FFF7F4FC3148082204
:102C9000018831480068FFF7EDFC304FFF25FD70DB
:102CA0007C842F4A00213846FFF702FE2D4804217C
:102CB000017044602C480170C46004618482786AA9
:102CC0002030FDF705FA29482A490760022078706C
:102CD0002748047044700978C170FDF7F4FA26485B
:102CE000016A2A0411430162C169026A5202920E0A
:102CF00092061143C161FFF7E9FC204900280860F2
:102D000012DB82081E49920051180A688307DB0E05
:102D10009D402A430A60C206D20E01219140401113
:102D2000184A8000801801600023324601990098FB
:102D300000F068F8FEBD0000FC0E0010242F00001B
:102D40003C2F00006C010010282F0000402F0000D5
:102D500068020010462F000054000010100F0010F1
:102D6000C1020000400F0010580F0010600000105A
:102D7000780E0010442F000000ED00E070000010FD
:102D800000E400E000E100E010B50B48012100681C
:102D90004170FFF7D9FEFDF797FA08480168491C12
:102DA0000160FFF7D5FC00F00DF80548FFF76BFD5B
:102DB000FFF746FF10BD0000600000106800001023
:102DC000400F001070B50D4C2068002815D0A08869
:102DD0000B4E401EA0800AE0E888FDF772FAA88832
:102DE000A0802868206029463068FFF739FDA08858
:102DF000002802D12568002DEED170BD74000010AE
:102E000054000010FFB5080681B01E4617460C4658
:102E1000000E00D14C1C1648FFF76FFC050025D0B2
:102E20002002000CAF626884EE61E1B22846019A8C
:102E3000FFF73EFD01240F480F4906E0A2001218DB
:102E4000403AD26B002A04D0641C0A889442F5D917
:102E50000024A10008184038C563EC702846FFF72D
:102E6000B3FC0648006820300470204605B0F0BD71
:102E70006C010010FC0E0010242F000060000010F8
:102E800070B5214C0025214E2168002802D0CA7857
:102E900082421AD14D70FDF71EF921684862FDF794
:102EA00014FA2068C178890089194039CD63816A94
:102EB0001748FFF7D5FC216816488D62FFF7D0FC54
:102EC00000202560FFF780FC19E01349098888423B
:102ED00017D880008619403EF46B002C11D0204694
:102EE000FFF752FE2046FFF739FEF5630848A16A56
:102EF000FFF7B6FC21460748A562FFF7B1FC0020AA
:102F000070BDFF2070BD000060000010FC0E0010BE
:102F1000680200106C010010242F00000004070656
:102F20000AC00A1005000000000200007FA903008B
:102F3000000000001027000000000000FC0000005E
:102F4000100C000010000000682F000000000010AE
:102F50007C00000056260000E42F00007C000010DA
:102F6000F4100000662600000000000000000000D1
:102F70000000000000000000000000000000000051
:102F80000000000000000000000000000000000041
:102F90000000000000000000000000000000000031
:102FA0000000000000000000000000000000000021
:102FB0000000000000000000000000000000000011
:102FC00000366E0100366E010000000000000000B7
:102FD00000000000000000000000000000000000F1
:042FE00000000000ED
:04000005000000BD3A
:00000001FF
