:020000040000FA
:1000000070110010CD020000DD020000D5020000DA
:1000100000000000000000000000000000000000E0
:10002000000000000000000000000000410100008E
:100030000000000000000000E50100004502000093
:10004000DD020000DD020000DD020000DD02000034
:10005000DD020000DD020000DD020000DD02000024
:10006000DD020000DD020000DD020000DD02000014
:10007000DD020000DD020000DD02000019220000A8
:10008000DD020000DD020000190800001B0800006E
:10009000DD020000DD020000DD020000DD020000E4
:1000A00000000000DD020000DD020000DD020000B3
:1000B00000000000DD020000DD020000034885466C
:1000C00002F0C8F900480047171D00007011001029
:1000D00080F309887047EFF309807047684680F322
:1000E000098806480078C00703D1032080F31488EC
:1000F0007047022080F3148870470000702D0000C4
:10010000064B9C46EFF305831B0605D1EFF31483E2
:10011000DB0701D000DF7047604700003B2500008F
:10012000064B9C46EFF305831B0605D1EFF31483C2
:10013000DB0701D000DF704760470000A126000008
:10014000EFF309808169891E0978002933D1A64619
:100150001FC8A4467446E0471F4B06CB914224D0EB
:10016000083B002910D00CB4203101234B70EFF371
:100170000983203B4B60F0C344464D4656465F46DC
:10018000F0C300F0A2F80CBC1A60203253681033A0
:10019000F0CBA046A946B246BB4683F30988203B74
:1001A000F0CB5078002803D01078EFF30983186063
:1001B0000223DB43184710B5084A1268914209D858
:1001C000074C89006458A6461FC8A446F047EFF3C1
:1001D00009840FC410BD00006000001078240000E6
:1001E0007824000002F022FB154B06CB914223D06D
:1001F000083B0CB4203100234B70EFF30983203B04
:100200004B60F0C344464D4656465F46F0C300F08F
:100210005CF80CBC1A60203253681033F0CBA04657
:10022000A946B246BB4683F30988203BF0CB507801
:10023000002801D0107818610223DB431847000022
:100240006000001002F0C0FCCEE7000002F074F97C
:1002500002F0BAFCC8E70000F0B5184902888E46E3
:1002600091091207120F94460589C278848903699F
:10027000242910D025290ED08678478900793E435D
:100280006746384306432E43164326431E438900E0
:1002900070464650F0BDC68860462E430243F3E7E1
:1002A0000021018010228270C170C18001814181D2
:1002B000802202718181016170470000004004408A
:1002C000FEE77047FEE77047704770470448804775
:1002D00004480047FEE7FEE7FEE7FEE7FEE7000012
:1002E0005D1E0000BD000000001D0321401E0378BC
:1002F00012021A43491EF9D510467047FFFFFFFF4F
:10030000FA49CF220028C86802D01040202201E01C
:10031000104030221043C8607047F448C068302154
:100320000840202801D00020704701207047F04984
:10033000CF220028C86802D01040202201E01040DF
:1003400030221043C8607047E948C0683021084037
:10035000202801D00020704701207047E549002285
:100360004A718A710A46C871203A107001200871DA
:100370007047E0490A79002A01D10023CB71CB797B
:100380001B18CB71DB4B203B98540879401C08713B
:10039000704770B5D74C0020203C2246203213799C
:1003A000D24D51798B4207D0665C2E60491C401CAF
:1003B000C0B251711028F4D370BDCE494E310A79C4
:1003C000002A01D10023CB71CB791B18CB71C94B0B
:1003D0002E3398540879401C0871704770B5C54C8D
:1003E00000202E34224620321379C14D51798B42A0
:1003F00007D0665C2E60491C401CC0B251711028A9
:10040000F4D370BD10B503460120FFF779FFB7485C
:1004100003600122022100F0CBFF10BD70B50D4634
:100420000646002404E0305DFFF7A3FF641CE4B23D
:10043000AC42F8D30020FFF763FFFFF7AAFF0122C9
:100440000221AA4800F0B4FF70BD10B5A948817917
:1004500001710020FFF754FFFFF79BFF01220221EB
:10046000A24800F0A5FF10BDF8B507460020A14D39
:100470000E464E3528716871044604E0385DFFF77A
:100480009CFF641CE4B2B442F8D3E879FFF795FF0F
:1004900099490320C870FFF7A1FF01220221944867
:1004A00000F086FFF8BD70B5FFF737FF8F4B914C1A
:1004B00001280FD020796179884219D11D4628463C
:1004C00000F073FF4006FAD50120FFF719FFE0792D
:1004D000286070BD6079A0710021617121710846AA
:1004E000FFF70EFF00220221184600F061FF70BDE9
:1004F000FFF74FFF70BD7F4810B54E30027941794C
:100500008A420BD181710024447104712246022178
:10051000774800F04DFF7848C47010BDFFF75EFFCC
:1005200010BD10B5744BDC78724A08321146203188
:10053000002C11D0DC78012C0DD10C7910550879E4
:10054000401CC0B208715178884204D10220D87092
:100550006A4801F0D3FF10BD242805D0262803D017
:10056000282801D03028F6D10124DC7010700C71DD
:1005700010BD604810B5263800790021401E0206E3
:10058000120E0DD05B4B0020463B04E01C5C611852
:10059000401CC9B2C0B29042F8D3985C884201D1E5
:1005A000012010BD002010BDF8B5534A8C4691784B
:1005B0000646504B1046463B1F4603240025007854
:1005C0002037002916D011468978012932D1614699
:1005D00000292FD139794A1C242A2BD25E5439792B
:1005E000454A491CC9B239719279002A59D011285B
:1005F00025D032E0604600281CD0012090701E708B
:10060000387116709179022000290AD0102E12D06C
:10061000112E04D0122E0ED0142E0AD10DE0072078
:1006200009E0602E07D0612EF9D0622E03D0642E2F
:1006300003D05570F8BD5070F8BD5470F8BD5878AF
:1006400001286DD107296BD1FFF793FF002804D152
:1006500029480D2141700121816027480178132923
:1006600004D0142912D0172957D059E0397902291A
:1006700056D1330001F002FF05040E480E0E1000A3
:10068000816800293ED009214170F8BD39790229DD
:100690003CD045E04470F8BD45705BE0002E57D07B
:1006A0003EE061280DD15878012839D1072937D18A
:1006B000FFF75FFF002804D10F480D214170012191
:1006C00081600D480178632904D06429DED0672950
:1006D00023D025E03979022922D1330001F0CEFE62
:1006E0000511101410100400D6E70000008000402F
:1006F00000C00040C2000010000000104C000010BC
:10070000C8E7BDE70721BFE70521BDE7002EC1D03F
:10071000012EBFD0022EBFD1BCE739790229BDD04E
:10072000FB484078002815D039798142B3D101F0D7
:1007300065FDF84C00220121204600F039FE002220
:100740000421204600F034FEF34801F0D7FEF8BD46
:10075000202199E7C82001F098FDF8BD10B5EF48B9
:1007600000210079401E0206120E0DD0EB4B002036
:10077000203B04E01C5C6118401CC9B2C0B290422E
:10078000F8D3985C884201D1012010BD002010BD33
:1007900070B5E34D284600F020FE04460E210C40C3
:1007A000284600F002FE062C08D0042C0AD00C2C9F
:1007B00008D0022C01D1FFF79EFE70BDC007FCD00F
:1007C000286870BD2868C0B2FFF7ABFE70BD70B579
:1007D000D04D284600F001FE04460E210C4028466C
:1007E00000F0E3FD062C08D0042C0FD00C2C0DD00B
:1007F000022C01D1FFF757FE70BDC107FCD029685C
:100800004007CAB2F8D50121104602E0286800214D
:10081000C0B2FFF7C9FE70BDD9E7B9E7BC480122F5
:100820000C30027002214170112383705623C37073
:10083000027141713C2181710821C171704710B56D
:10084000B84C092020700322B7A1601C01F0CBFD39
:100850000C22B6A1201D01F0C6FD20460C22B6A137
:10086000103001F0C0FD022020771820607710BD05
:1008700010B5B44C03202070B34A20464270110AD0
:100880008170E11CB14801F0BBFD0020E0712072D5
:10089000607210BD10B588B06846FFF701FD0D20ED
:1008A000C0016A4610806846FFF7D6FC0520012289
:1008B0000821000700F00EFB01210C03204600F088
:1008C0009DFB122000F0CEFA6846FFF7E9FCA04934
:1008D0006A4611806846FFF7BFFC9D496A46403171
:1008E00011806846FFF7B8FC0021042000F0B0FB3F
:1008F0000121204600F082FB012000F0C2FB854C64
:10090000204600F0AFFC05A9204600F002FD4B2078
:100910008001059003206A46107618209076002109
:100920005176D1761177517705A9204600F0C1FCA8
:100930000121204600F0FCFC01221146204600F077
:1009400037FD01220421204600F032FD122000F084
:1009500082FA08B010BD30B57049002020390A462F
:1009600089B0044626320C541454401CC0B22428CA
:10097000F9D36A48447104712630C471047144711A
:1009800084716846FFF78CFCFF20013069460880BF
:100990006846FFF761FC15210122080700F09AFA6A
:1009A00001214D03284600F029FB132000F05AFADC
:1009B0006846FFF775FC664A6946C23A0A8068468F
:1009C000FFF74AFC62486946823808806846FFF7AC
:1009D00043FC0021082000F03BFB0121284600F0E9
:1009E0000DFB012000F052FB4D4D284600F03AFC73
:1009F00005A9284600F08DFC4B20C001059003207E
:100A0000694608768C764C76CC760C774C7705A9BF
:100A1000284600F04EFC0121284600F089FC012206
:100A20001146284600F0C4FC132000F014FA3848A0
:100A30000221017147490C6047490C6047490C602D
:100A400047490C6047490C6047490C60C47009B0C5
:100A500030BD10B588B06846FFF722FC1920800130
:100A60006A4610806846FFF7F7FB05200122072140
:100A7000000700F02FFA01210C03204600F0BEFA17
:100A8000122000F0EFF96846FFF70AFC30496A4689
:100A900011806846FFF7E0FB2D496A46403111801E
:100AA0006846FFF7D9FB0021042000F0D1FA0121AC
:100AB000204600F0A3FA012000F0E3FA154C20468E
:100AC00000F0D0FB05A9204600F023FC4B20C0011C
:100AD000059003206A461076002191765176D176F2
:100AE0001177517705A9204600F0E3FB012120464C
:100AF00000F01EFC01221146204600F059FC0122A4
:100B00000421204600F054FC122000F0A4F920E754
:100B1000000000100080004044000010EA000010B7
:100B200000C00040300100104B5745004B5730309B
:100B30003236303031330000694B41574520323670
:100B4000300000004E01001007D00000000001F44A
:100B5000440700002C00001030000010340000108A
:100B6000380000103C0000104000001090B589B023
:100B70006846FFF795FB1B2080016A461080684697
:100B8000FFF76AFB052001220921000700F0A2F906
:100B90000121480700F032FA6846FFF781FB032085
:100BA00000026A4610806846FFF756FBB14C0122EE
:100BB0000D21204600F08EF901220D21204600F083
:100BC0007FF9AD4F1920BC4600DF01220D212046E0
:100BD00000F071F901214C03204600F00FFA1320B8
:100BE00000F040F96846FFF75BFBA4496A461180B4
:100BF0006846FFF731FBA1496A46403111806846DB
:100C0000FFF72AFB0021082000F022FA01212046EC
:100C100000F0F4F9012000F039FA994C204600F078
:100C200021FB05A9204600F074FB4B20C001059074
:100C300003206A4610763820907600215176D176CE
:100C40001177517705A9204600F033FB012120469A
:100C500000F06EFB01221146204600F0A9FB0122A4
:100C60000421204600F0A4FB132000F0F4F809B0A2
:100C700090BD30B5834900200A4689B0263204462B
:100C80000C541454401CC0B22428F9D37D482030A1
:100C9000447104712630C4710471447184716846D2
:100CA000FFF7FEFAC02168460180FFF7D5FA14214C
:100CB0000122880600F00EF901210D03284600F0FC
:100CC0009DF9122000F0CEF86846FFF7E9FA6E4968
:100CD000684601804021C170FFF7BEFA6A49684644
:100CE00040310180FFF7B8FA0021042000F0B0F98C
:100CF0000121284600F082F9012000F0C2F9634D7D
:100D0000284600F0AFFA05A9284600F002FB4B2068
:100D1000C00105900321684601763821817644762A
:100D2000C4760477447705A9284600F0C2FA012169
:100D3000284600F0FDFA01221146284600F038FB53
:100D400001220421284600F033FB51480168FF22AC
:100D500012049143EA0111430160122000F07BF874
:100D60004C48847073E630B54A4C85B00120A071C0
:100D70000146800700F042F96846FFF791FA3520F6
:100D80008001694608806846FFF766FA424D0022F6
:100D90000621284600F09EF80621284600F084F837
:100DA000A07105B030BD70B5012186B0C80700F054
:100DB00025F96846FFF774FA1320C00169460880D8
:100DC0006846FFF749FA052000220C21000700F0D1
:100DD00081F80121880700F011F96846FFF760FAF1
:100DE0000D200002694608806846FFF735FA2A4D53
:100DF00000220521284600F06DF833208001694665
:100E000008806846FFF728FA00220421284600F0EF
:100E100061F81920C001694608806846FFF71CFA8E
:100E200000220321284600F055F80321284600F04F
:100E30003BF806460421284600F036F80446052112
:100E4000284600F031F86000124930434871FFF73E
:100E50008AFF06B070BDC106C90E012088400F4947
:100E600008607047C106C90E012088400B498031D7
:100E7000086070470000025049260000C3020000CD
:100E800000C000407C000010820400000080004090
:100E900010E400E0000000100000015000E100E05C
:100EA00010B500F06EF810BD10B5001D00F05AF836
:100EB00010BD8160704710B50C3000F062F810BDB5
:100EC00010B5103000F05DF810BD10B5143000F012
:100ED00058F810BD10B5203000F053F810BD10B513
:100EE000203000F03FF810BD10B501248C401300F5
:100EF00001F0C4FA0504070A111A1000416AA1435F
:100F00000BE0416AA14311E0416AA1434162816A59
:100F10002143816210BD416A21434162816AA1433C
:100F20008162C16AA14307E0416A21434162816A4B
:100F3000A1438162C16A2143C16210BD10B5303046
:100F400000F01FF810BD10B5343000F00BF810BDE4
:100F500010B5383000F006F810BD10B53C3000F088
:100F600010F810BD024600201268202905D2012386
:100F70008B40134200D001207047FF29FCD110465E
:100F80007047202909D201238B400168002A01D033
:100F9000194300E0994301607047FF29FCD10260CA
:100FA000704700007448006BC006C00E7047800791
:100FB0007149800F0860704781076F48890F403082
:100FC0000160012141600022426041604168C9071F
:100FD000FCD07047704781076748890F4030016334
:100FE00001214163002242634163416BC907FCD088
:100FF00070476149C0B24031886370475E4A8032B1
:101000000029116801D0014300E08143116070475D
:10101000400820280BD80F2909D84901401E014358
:10102000554841625548816B402291438163704726
:10103000830751489B0FC030CAB20362012141624D
:10104000002343624162416AC907FCD08262704753
:10105000494A0129516802D00143516070478143D8
:10106000FBE701224449D2030128486802D090439B
:10107000486070471043FBE73F49C0B28031486188
:1010800070473D49C0B28031886170473A49C0B26B
:101090008031C86170473949C0B2C039C8607047F3
:1010A0003649C0B2C039886070473449C0B2C039CF
:1010B000486070473149C0B2C03908607047304954
:1010C000C0B2C86370472E49C0B2886370472C49CC
:1010D000C0B248637047294A0129116B02D081438D
:1010E000116370470143FBE7244A0129916B02D049
:1010F0008143916370470143FBE7204A0129516B0B
:1011000002D08143516370470143FBE71C494031E2
:1011100048637047194A0029516801D0014300E033
:10112000814351607047154A0029116801D001437D
:1011300000E081431160704710498A6802438A6069
:1011400070470E4A0029516901D0014300E08143F4
:1011500051617047094A0029116901D0014300E03B
:1011600081431161704705498A6902438A6170476A
:101170000448406B70470000008004400082044037
:1011800000810440C0830440F3B5054687B00020C9
:101190000590049001200090002001900290089892
:1011A0009F4A40090390A0489E490068954201D19A
:1011B000896903E09D4A954204D1C96901F090F81C
:1011C000000904900026741C26E0049A2046A11908
:1011D000504301F085F80690089901F081F8074620
:1011E00008984008814200D97F1C9149F81E884226
:1011F00011D23946069801F073F80899884201D84F
:10120000081A00E0401A0399884204D26946D0C106
:10121000039001200590641C0F2CD6D9761C0F2E4C
:10122000D1D3059801281AD1E86880210843E860E5
:101230000299009A019B090412070298090E120EE6
:101240001B071B0FC0B21A4306E028606960EB68F9
:101250005B065B0EEB60AA62EB681B06F5D4059893
:1012600009B0F0BD38B5102181620721816001E02D
:10127000016800914169C907FAD180210163416980
:101280008906FCD5002404634460C460046241699B
:10129000009100F0BDF80C210090484365490322FD
:1012A0000C504018027144718471C471047244720C
:1012B00038BDF8B50C46074600F0AAF80C210546E3
:1012C0004D435C4E21687059884204D03846FFF780
:1012D0005BFF206870512079A179627A08436179B7
:1012E00011430843F860207AE1790843012108435B
:1012F000CF210840B8602179A81901716179417145
:10130000A1798171617A4172E179C171217A0172A9
:10131000F8BD10B50C4600F07BF80C214843454958
:10132000401842680168806862602160A06010BD5A
:101330000129016B02D00021016370478022114313
:10134000FAE770B5002616E01C4602E0002C14D027
:10135000641E4569AD06F9D5002C0ED0102507E0B6
:101360000C78491C04606D1E521E761C002D02D0A4
:10137000002AF5D101E0002AE6D1304670BD70B5F3
:10138000054600200EE01C4602E0002C0CD0641E36
:101390006E69F607F9D0002C06D02C680C70491C39
:1013A000521E401C002AEED170BD4069C0B2704789
:1013B00070B50E460446012A05D01F4D00F028F8EE
:1013C000002803D004E06068084304E01A4D883523
:1013D0006068B5432840606070BD80681649C831B8
:1013E0000840704710B5C36880242343C3600023BE
:1013F00003604360C368A343C36010238362114347
:1014000001221143016210BD0321090201627047EC
:101410000349884201D10020704701207047000035
:1014200000800040808004405C00001000C000404C
:10143000FDFF0000180100100703000010B5052093
:101440000C210007FFF730FD002801D0002010BD5F
:10145000012010BD002086B0FF4F0646009002908C
:1014600001460190FB48BC4600DFFA482421303891
:10147000017003214170F94802250390F84C20784F
:10148000801E030000F0FAFF0705FE39FDFCFBFAA1
:10149000FE00F44F1420BC4600DFEE480021343833
:1014A000416281620221001DFEF7DEFFEE4F7D21C9
:1014B000C900E848BC4600DF012876D0FFF74EF9A6
:1014C000012872D1E94800782428FAD1E7488178C8
:1014D00001290DD1DF4E343EF161C01CFEF704FF3F
:1014E0007061E348B061002006460090042039E1B5
:1014F000D84900203439C86109E2DA4F0320BC46DC
:1015000000DFD4483438006A002803D1FFF796FF83
:1015100000287BD0D14F26200B3F38700B207870ED
:10152000CC48B91D3438406900F06AFFC9483438E6
:10153000006A00280FD0C748002134380162416298
:1015400000880A2100F0CCFEB870000AF870C1488B
:101550003238008804E00120B8700020F8700C20B8
:101560003871000A7871BD480A210B38FEF77CFFFC
:10157000B849012034394862BB4F7D21C900B548C4
:10158000BC4600DF01283CD0FFF7E8F801280AD16B
:10159000B6480078262806D1B448049080780228FE
:1015A00004D0032802D0062028E020E0AD4F03201D
:1015B000BC4600DFA74802213038FEF755FFAA4F8E
:1015C000FF21F531A348BC4600DF01280FD0FFF70B
:1015D000C5F801280BD1A54800782428FAD1049831
:1015E0008078062804D0082802D002287ED08FE117
:1015F000984900203439886294E007E09D490870DA
:1016000085E19C49062008700820ABE091483438F9
:10161000406A002813D00198002810D09648761C04
:10162000B6B20190864215D900268A483146343830
:1016300046618661426A002A04D0062203E04B20FC
:101640000001ECE70E228B4B1A70082222704162D7
:1016500081625DE1874800780D2817D07D4802211E
:101660003038FEF701FF804F7D21C9007948BC4624
:1016700000DF0128BBD0FFF771F804E0D7E0AFE04E
:1016800082E051E015E101280AD041E120780828E4
:1016900001D0082020706F4900203439C86137E13B
:1016A000724800782428A2D17048817805290CD08E
:1016B000022922D0032920D0062923D0042921D0B1
:1016C00008291FD0072927D022E1624F343FB96A89
:1016D00000298CD1C01CFEF707FE78616448B86110
:1016E000002078620120B862002000E005E0064694
:1016F000009060490520087034E0564901203439D3
:10170000486205E15B490E200870524800213438D8
:10171000416281620E46FAE04E4900203439486247
:10172000886206460E2069E74E4F0220BC4600DF65
:10173000FFF784FE002802D00020009011E00098FE
:101740004E49401C80B2009088420DD90020009084
:101750004848017807290FD00078082810D00720C2
:1017600000E006202070D3E042480178072903D02A
:101770000078082804D0CBE020780628F1D1C7E013
:1017800020780728EBD1C3E0364F0320BC4600DFAA
:1017900032492820491E08700A20487001208870AC
:1017A0002C48491D3438406900F02AFE2948323857
:1017B000018803988170090AC17028480921401ED8
:1017C000FEF752FE284F7D21C9002248BC4600DFAB
:1017D0002AE0FEF7C3FF012801D12448007896E0F3
:1017E000204F0320BC4600DF1C492820491E0870FA
:1017F0000A204870002088701648491D3438406916
:1018000000F0FEFD13483238018803988170090A00
:10181000C17012480921401EFEF726FE124F7D219D
:10182000C9000C48BC4600DF0128D2D16FE00D4F43
:101830000320BC4600DF074830212E380170032109
:1018400041700298401C80B20290052818D90020EF
:1018500002905CE04C000010FD29000063010010C4
:1018600004000010492600003D2A0000CA000010B4
:101870000BB8000014000010D80E0000E02E00008D
:101880000221F948FEF7F0FDF748F84F64212E30A9
:10189000BC4600DF01283BD0FEF760FF012836D1AF
:1018A000F3480078302832D1F148807801282ED0D2
:1018B0002EE0F04F1420BC4600DFEB480221801ED2
:1018C000FEF7D2FD7D21E848E84FC9002E30BC4626
:1018D00000DF01281BD0FEF741FF012818D1E448A2
:1018E0000078242814D1E2488178012900D0FFE54E
:1018F000C01CFEF7F9FCDC49891F4861DE4888619D
:101900000120C861042020700020009000E02570B4
:10191000DA4900200870B1E5FEF780FFFEF78FFF7F
:10192000FEF7A6FFD048D64F00212630BC4600DF88
:10193000D44C00202070D44DCB48CC4FD349263016
:10194000BC4600DFD24FD34938780A78002A02D14A
:101950004206920F04D10978002901D1C00672D441
:10196000FEF707FE012801D0AA201AE0CA48022685
:10197000067038781038030000F080FD080507165F
:10198000A3FDF3CAF2CA0020FDE0012020707878A0
:10199000002802D0012803D0BAE00821BF4838E06F
:1019A0000020FEF72FFDB3E0207800282ED020780D
:1019B000022831D020780428F2D020780328EFD0F4
:1019C0002078052840D020780728E9D020780628FC
:1019D0005BD0207808281ED020780928E0D0207815
:1019E0000A2856D020780D2857D020780F2864D0A8
:1019F00020780E28D4D12878082801D00820287013
:101A00000121A748FEF70AFD032080E0A448012138
:101A1000401EFEF703FD7BE0934EB61FF0690028E1
:101A2000BED00020F061032020709E49001F00F00E
:101A3000E7FCB0699B49C91E4870000A8870994844
:101A40000A21C01EE5E7A9E087480521801C017036
:101A50000146083908784978000208438249891C00
:101A60004870000A887008460838816A012904D045
:101A70000020FEF7C7FC20784AE0002181627A4806
:101A80000321801CFEF7CAFCF5E785480121801C74
:101A9000BFE783480221C01CBBE72878022805D095
:101AA0007148801FC069002800D12E707C48012138
:101AB000401CFEF7B3FC26702AE079480221401D45
:101AC000A7E77878030000F0D9FC07061C353C43F3
:101AD0002354050064E704202070F878B9780002E8
:101AE0000843614940BA891F088078793979000232
:101AF00008435D4940BA091F08800120891E086219
:101B00004EE7082028700020FEF77CFC062020709D
:101B10005F490020203108715F490870624E012240
:101B200011463046FFF744FC012204213046FFF7FE
:101B30003FFC01E7062028700020FEF763FC072029
:101B4000E5E7072028700020FEF75CFC0820DEE7B0
:101B50004548801FC069002805D00820287003E090
:101B600015E012E007E02E700020FEF74BFC0D2080
:101B7000CDE70B20CBE77878002803D00128A9D146
:101B800026700DE7012020700AE70C20207078787D
:101B900000289FD143481E2121383AE710B514216F
:101BA00001228806FFF787F910BD10B51421012224
:101BB0008806FFF785F910BD10B514218806FFF7D8
:101BC00073F9002802D0FFF7F0FF10BDFFF7E6FF22
:101BD00010BDB0B50546002407E0FFF7EDFF254F27
:101BE0000520BC4600DF641CE4B2AC42F5D3B0BDB6
:101BF00010B5152101220807FFF75DF910BD10B5DA
:101C0000152101220807FFF75BF910BD10B515215A
:101C10000807FFF749F9002802D0FFF7F0FF10BDD1
:101C2000FFF7E6FF10BDB0B50546002407E0FFF75B
:101C3000EDFF104F0A20BC4600DF641CE4B2AC424A
:101C4000F5D3B0BD104C0F4D0A4F0A20BC4600DF43
:101C5000207802282AD22878022827D2FFF7D6FF38
:101C6000FFF7AAFF29E000001E0000103D2A000037
:101C7000CA000010492600000BB800000300001045
:101C8000FD2900001400001004000010FFFF0000F8
:101C90007C00001006000010020000100C00001074
:101CA0005D2D0000510100100080004020780228C6
:101CB00003D20920FFF7B7FFD0E72878022807D220
:101CC0000920FFF786FFFFF777FFFFF79FFFBBE7CE
:101CD0001A4F6420BC4600DFFFF798FFFFF76CFF48
:101CE000B2E70023174F1A4614211548BC4600DFFF
:101CF000154CE06000231A460A211448BC4600DF58
:101D0000206100231A4602211148BC4600DF114F12
:101D10000020BC4600DF80B5FFF745F8FEF71BFE4C
:101D2000FEF7A7FF00F094FAFEF7D8F90B4F002258
:101D3000FA210948BC4600DF002080BD492600008A
:101D400019190000452C000018000010551400005F
:101D5000451C0000C12C0000E31C0000912A00007B
:101D600070B55D4D0020696AC905090F0B0000F0D0
:101D700085FB10090B0D0F11131517191B1D1F21C2
:101D80002325272855481CE055481AE0554818E0F7
:101D9000554816E0554814E0554812E0554810E003
:101DA00055480EE055480CE055480AE0554808E013
:101DB000554806E0554804E0554802E0554800E023
:101DC0005548696AC906890E891C00F089FA424B98
:101DD0004033196B514A8907514C890F1BD000269B
:101DE000012904D0022928D0032930D108E019683C
:101DF0008907890F0FD001290DD0022908D11CE0D5
:101E000019688907890F0FD001290DD0022910D038
:101E100003291CD11AE0226019E0A8683F49C006D6
:101E2000C00E401C484308E0A868C005800FF4D0ED
:101E3000F1E7A968C905890F01D0206007E0A9680A
:101E4000C906C90E491C4143216000E02660206894
:101E50006060996B00F044FA206070BD70B51E4957
:101E6000022008602F4800220260AA2383605523C5
:101E700083600A622C4B986B2024A04398630A620B
:101E8000104600BF401CC828FBD3134840300260F6
:101E900001254560426045604468E407FCD08D60E0
:101EA0009C6B8026B4439C63CB68DB07FCD003218A
:101EB0000163456342634563416BC907FCD0856399
:101EC0000548803045618561C56102620168012273
:101ED00012041143016070BD00800440801A0600A6
:101EE00020A1070000350C00E0C81000C05C150000
:101EF000006A180040771B0080841E00C0912100FA
:101F0000009F240040AC2700E032290020402C0034
:101F1000604D2F0000D4300040E13300001BB700BB
:101F2000580000100040004000820440024610B5F6
:101F3000AD48002100680B4600F018FAAB4A0023B8
:101F400000F0E4F910BD0068084000D0012070479F
:101F50000068704702680A430260704700214160D0
:101F6000A34AA449904202D108684A1504E0A24A53
:101F7000904203D10868121590430860704770B50D
:101F800004469B4B9B489C4202D10368451504E0E4
:101F9000994B9C4203D1036825152B430360A06A2B
:101FA00080088000A062A06AA0620020A06020617A
:101FB000E060002907D0A06A0C218843A0620020BD
:101FC000C043206070BD10780028506801D0FFF732
:101FD000ADFF401EE060F2E7002802D0002048700C
:101FE0007047012008704860704730B50A78002AB1
:101FF00006D0012A07D0022A08D0032A0BD108E014
:102000008A68826107E08A68C26104E08A680262C5
:1020100001E08A68426243690A7854001419072271
:10202000A240934343614A780123002A07D04469C0
:102030000A78550055191A46AA4014434461CA78D3
:10204000002A08D044690A7855005219521C1D46CE
:1020500095402C4344618A78002A07D044690A7865
:1020600055005219921C93401C434461C36B0A787B
:1020700003245200121D9440A343C3630A790978D4
:102080009207920F4900091D8A40C26330BD30B5E6
:10209000836A0A78540014190722A240934383628A
:1020A0004A780123002A07D0846A0A785500551916
:1020B0001A46AA40144384628A78002A08D0846AA7
:1020C0000A7855005219521C1D4695402C438462D3
:1020D000CA78002A07D0826A09784C000919891C3D
:1020E0008B401A43826230BD30B50A78002A06D090
:1020F000012A07D0022A08D0032A0BD108E08A68F7
:10210000826107E08A68C26104E08A68026201E0D5
:102110008A68426243690A78540014190722A2406F
:10212000934343614B780122002B07D044690B781D
:102130005D005D191346AB401C434461CB78002B16
:1021400008D044690B785D005B195B1C15469D4007
:102150002C4344618B78002B08D044690B785D00D8
:102160005B199B1C15469D402C4344610B79002B49
:10217000436F097802D08A40134301E08A409343B9
:10218000436730BD0129416803D0490849004160D7
:10219000704701221143FAE7426802210A43426074
:1021A00042688A434260704780687047002907D0C0
:1021B000012907D0022907D0032907D00020704742
:1021C000C06A7047006B7047406B7047806B704708
:1021D000426F01238B409A4342677047416F090960
:1021E00009014167704700005800001040420F008D
:1021F000008001408080044000C0014010B5334C95
:1022000000212046FFF7BEFF2046FFF7C5FF012152
:102210002046FFF79FFE10BD10B52C4C2046FFF75F
:1022200097FEC00713D001212046FFF793FEFFF76A
:10223000E5FF274C002201212046FFF7B9F80022D4
:1022400004212046FFF7B4F8224800F057F910BDEA
:102250001CB501214802FEF7D1FE01201E49C4032E
:102260000C60694608700A2001906A4600211748F0
:10227000FFF785FE194801680902090A02071143A0
:1022800001601548803804601CBD3EB50F4C054602
:1022900000212046FFF776FF0021684601700122E9
:1022A0004270C27081700171694620460295FFF745
:1022B0009CFE2046FFF770FF01212046FFF74AFEF3
:1022C00001212046FFF75EFF3EBD00000080014077
:1022D000008000404400001080E100E00CE400E0D9
:1022E00030B50B46014600202022012409E00D46AE
:1022F000D5409D4205D31D469540491B2546954036
:1023000040191546521E002DF1DC30BDF0B51FB44A
:102310000646002082B005464024019100901BE053
:10232000019922460F46304600F083F8049A059B37
:10233000801A994110D310461946224600F069F8D8
:10234000361A8F410197224601200021009F00F09C
:1023500060F838184D4100902046641E0028DFDCEC
:10236000019B00982946324607B0F0BDF0B51FB476
:1023700086B000200090019002900698069980B2E5
:1023800004900798090C02040014114307900027D9
:10239000089D099806913E463C4603900398A9B2D1
:1023A0000204000C039004982D0C154348430021AF
:1023B000224600F02EF8C719714110340E46402C09
:1023C000ECDB3846029A00F024F8009A019B801852
:1023D0000090594102980191103002904028CCDBC6
:1023E00000980BB0F0BD10B5044605E00B78037003
:1023F000401C002B00D0491C521EF7D2204610BDB5
:10240000034603220870491C000A521EFAD51846DA
:10241000704710B5202A04DB0146203A9140002085
:1024200010BD914020239C1A0346E340194390407D
:1024300010BD10B5202A04DB0846203AD040002108
:1024400010BD0B46D340D0402024A21A914008432F
:10245000194610BD064C0125064E05E02046E368EE
:1024600007C82B4398471034B442F7D3FDF72AFE30
:10247000882D0000A82D00000000000030B4744634
:10248000641E2578641CAB4200D21D46635D5B0070
:10249000E31830BC184702E008C8121F08C1002A20
:1024A000FAD170477047002001E001C1121F002AD5
:1024B000FBD1704710B5002A06DA52005208D21D2F
:1024C000D308DB00102203E0D21C93089B000C22EF
:1024D000002B02D09C188C4201D9012010BD82181B
:1024E0008360411802604160C91AD018884202D83E
:1024F00010600246F9E70020106010BD10B5002101
:1025000000F0DCF900F0CAF910BD000007480168CE
:102510000748416100218161072101610548016A85
:10252000FF22120611430162401770476C2D000014
:1025300000E000E000ED00E070470146EFF310809E
:10254000C207D20F72B60868002801D003680B607A
:10255000002A00D162B6704770B50D4600280FD032
:102560000849094C884204D222680146104600F00E
:10257000C5F920684570054800F0A5F800F080FA1C
:1025800070BD0000FFFF000060000010400F001051
:1025900070B51B4DE868002831D0A88A401EA8827B
:1025A000002626E0A068002808D0616841606068C5
:1025B000002802D0A16881606660A66010482146AC
:1025C000183800F0C3F9A08AA8826078042804D1E2
:1025D0000C49E08A09884018A082012060702021FF
:1025E0000855E068E860E068002801D00561E66011
:1025F0002661A88A002802D1EC68002CD2D170BDD7
:10260000580F00106800001070B504000ED00C4D7B
:10261000A17828680126827891420BD900F0B4F99C
:1026200028684670204600F02BFA70BD054800F07F
:102630004AF8F8E766702146024800F087F970BD55
:1026400060000010400F001010B50321FFF784FF59
:1026500010BD000010B50446008B0843208362784B
:10266000618B062A15D0052A12D10A4610420FD0D6
:102670000240628388432083204600F08FF90120C6
:1026800060700221202001552146044800F05EF9C7
:1026900010BD0A468243EDD010BD0000400F00106F
:1026A000814202D342688A4201D801207047EFF389
:1026B0001082D207D20F72B603680B60016000D19E
:1026C00062B6002070470146406842684A600B7855
:1026D0000022022B05D0012B03D0032B01D0426036
:1026E00070474368002B01D0996042608260704758
:1026F00070B5044615460020207001226270A1705A
:102700006060A060E0602061A082E08220832346B8
:102710006083203318705870608C002803D10448FF
:10272000FFF70BFFA0622946204600F003F870BDBA
:102730006802001030B5428C920803D10E4A12880C
:102740001204920C836A92009A18530700D5121F44
:10275000403A01231B06D363002391631C469D006E
:102760005B1C54510E2BFAD3C36913624262C162DF
:10277000806A0249016030BD682D0000A52E5AE232
:10278000F8B50446406800260F46002805D060785A
:10279000022818D0A08900282FD0A089E18988427A
:1027A0003ED2208980000019076172B6A089401CC2
:1027B000A08162B62089401C80B22081E1898842D4
:1027C00000D12681F8BD66702046FFF77CFF0546E4
:1027D000203006702189E86989000919086172B6FC
:1027E000A089401CA08162B62089401C80B2208153
:1027F000E18988420AD1268108E02046FFF763FF7D
:102800000546C069042107602020415501206870F9
:10281000284600F0C3F82946034800F097F8F8BDB1
:102820000320FDF74FFDF8BD400F001070B51848AC
:1028300001210068417000F0A7F8164C657813E09C
:10284000E800011948680278002A17D0012A1AD036
:1028500000F0DAF8E0786D1C854200D1002572B6F0
:10286000A078401EA07062B6A0780028E8D16570FC
:102870000948FFF728FF00F003F970BD098989B204
:10288000FFF7E8FEE6E78968FFF77AFFE2E7000076
:1028900060000010780E0010400F0010054801780D
:1028A000002902D001214170704701200249000730
:1028B000486070476C00001000ED00E070B50E4BF2
:1028C000DD789C1C1E4672B69A78AA4207D2521C2A
:1028D00022703278541CAC4200D10024347062B6AD
:1028E000DC78944204D9D200D2189160506070BD57
:1028F0000220FDF7E7FC70BD780E001010B5124AFB
:10290000D368002B17D013469B8A04E0002C12D00A
:102910002246A48AE318D4688B42F7D3C460D060FF
:102920000261C468002C00D02061591A8182908A0B
:10293000401A908210BD0024C460D060C91A0261A0
:102940009182848210BD0000580F001030B50278CB
:102950000023022A03D0012A01D0032A00D1012337
:102960008C7800E010464268002A02D09578A54293
:10297000F8D24A604160002B04D0002A00D0916058
:10298000886030BD0020FBE703494A6842600022AE
:102990008260486070470000400F001010B5016968
:1029A00000290FD0C268CA60C3680022002B07D07C
:1029B0008B8A848A1B198B82C3681961C26000E00C
:1029C0008A82026110BD00008168002907D0426838
:1029D0004A604168002901D08068886070470649D4
:1029E00006E04A68824202D140684860704711465A
:1029F0000029F6D170470000400F0010022202703B
:102A0000002242604180704710B5416800290ED015
:102A1000FFF759FE0446FFF7C1FF01206070032154
:102A20002020015521460448FFF790FF10BD418842
:102A3000491C418010BD0000400F001010B50C462D
:102A40004188002903D0491E4180002010BD002C80
:102A500007D00A4A43681168002B04D0FFF776FFBD
:102A600006E0012010BD4160116800234B608860C2
:102A700007212046FFF770FDF3E70000600000101B
:102A80000249486002214170704700006000001058
:102A9000F7B5164600200446374A384902E083005D
:102AA000D450401C0B889842F9D335483022018815
:102AB0003448FFF7FFFC344801210088C90780B281
:102AC0004218324801683248FFF7F4FC31480822C6
:102AD000018831480068FFF7EDFC304FFF25FD709D
:102AE0007C842F4A00213846FFF702FE2D4804213E
:102AF000017044602C480170C46004618482786A6B
:102B00002030FDF7E5FA29482A490760022078704D
:102B10002748047044700978C170FDF7D4FB26483B
:102B2000016A2A0411430162C169026A5202920ECB
:102B300092061143C161FFF7E9FC204900280860B3
:102B400012DB82081E49920051180A688307DB0EC7
:102B50009D402A430A60C206D20E012191404011D5
:102B6000184A8000801801600023324601990098BD
:102B700000F068F8FEBD0000FC0E0010642D00009F
:102B80007C2D00006C010010682D0000802D0000DD
:102B900068020010862D000054000010100F001075
:102BA000C1020000400F0010580F0010600000101C
:102BB000780E0010842D000000ED00E07000001081
:102BC00000E400E000E100E010B50B4801210068DE
:102BD0004170FFF7D9FEFDF777FB08480168491CF3
:102BE0000160FFF7D5FC00F00DF80548FFF76BFD1D
:102BF000FFF746FF10BD00006000001068000010E5
:102C0000400F001070B50D4C2068002815D0A0882A
:102C10000B4E401EA0800AE0E888FDF752FBA88812
:102C2000A0802868206029463068FFF739FDA08819
:102C3000002802D12568002DEED170BD740000106F
:102C400054000010FFB5080681B01E4617460C461A
:102C5000000E00D14C1C1648FFF76FFC050025D074
:102C60002002000CAF626884EE61E1B22846019A4E
:102C7000FFF73EFD01240F480F4906E0A20012189D
:102C8000403AD26B002A04D0641C0A889442F5D9D9
:102C90000024A10008184038C563EC702846FFF7EF
:102CA000B3FC0648006820300470204605B0F0BD33
:102CB0006C010010FC0E0010642D0000600000107C
:102CC00070B5214C0025214E2168002802D0CA7819
:102CD00082421AD14D70FDF7FEF921684862FDF776
:102CE000F4FA2068C178890089194039CD63816A76
:102CF0001748FFF7D5FC216816488D62FFF7D0FC16
:102D000000202560FFF780FC19E0134909888842FC
:102D100017D880008619403EF46B002C11D0204655
:102D2000FFF752FE2046FFF739FEF5630848A16A17
:102D3000FFF7B6FC21460748A562FFF7B1FC00206B
:102D400070BDFF2070BD000060000010FC0E001080
:102D5000680200106C010010642D000000040706DA
:102D60000AC00A1005000000000200007FA903004D
:102D7000000000001027000000000000FC00000020
:102D8000100C000010000000A82D00000000001032
:102D90007C00000096240000242E00007C0000101F
:102DA000F4100000A6240000000000000000000055
:102DB0000000000000000000000000000000000013
:102DC0000000000000000000000000000000000003
:102DD00000000000000000000000000000000000F3
:102DE00000000000000000000000000000000000E3
:102DF00000000000000000000000000000000000D3
:102E000000366E0100366E01000000000000000078
:102E100000000000000000000000000000000000B2
:042E200000000000AE
:04000005000000BD3A
:00000001FF
