:020000040000FA
:1000000070110010CD020000DD020000D5020000DA
:1000100000000000000000000000000000000000E0
:10002000000000000000000000000000410100008E
:100030000000000000000000E50100004502000093
:10004000DD020000DD020000DD020000DD02000034
:10005000DD020000DD020000DD020000DD02000024
:10006000DD020000DD020000DD020000DD02000014
:10007000DD020000DD020000DD020000F1210000D1
:10008000DD020000DD020000150800001708000076
:10009000DD020000DD020000DD020000DD020000E4
:1000A00000000000DD020000DD020000DD020000B3
:1000B00000000000DD020000DD020000034885466C
:1000C00002F0B4F900480047EF1C00007011001066
:1000D00080F309887047EFF309807047684680F322
:1000E000098806480078C00703D1032080F31488EC
:1000F0007047022080F3148870470000482D0000EC
:10010000064B9C46EFF305831B0605D1EFF31483E2
:10011000DB0701D000DF70476047000013250000B7
:10012000064B9C46EFF305831B0605D1EFF31483C2
:10013000DB0701D000DF7047604700007926000030
:10014000EFF309808169891E0978002933D1A64619
:100150001FC8A4467446E0471F4B06CB914224D0EB
:10016000083B002910D00CB4203101234B70EFF371
:100170000983203B4B60F0C344464D4656465F46DC
:10018000F0C300F0A2F80CBC1A60203253681033A0
:10019000F0CBA046A946B246BB4683F30988203B74
:1001A000F0CB5078002803D01078EFF30983186063
:1001B0000223DB43184710B5084A1268914209D858
:1001C000074C89006458A6461FC8A446F047EFF3C1
:1001D00009840FC410BD000060000010502400000E
:1001E0005024000002F00EFB154B06CB914223D0A9
:1001F000083B0CB4203100234B70EFF30983203B04
:100200004B60F0C344464D4656465F46F0C300F08F
:100210005CF80CBC1A60203253681033F0CBA04657
:10022000A946B246BB4683F30988203BF0CB507801
:10023000002801D0107818610223DB431847000022
:100240006000001002F0ACFCCEE7000002F060F9A4
:1002500002F0A6FCC8E70000F0B5184902888E46F7
:1002600091091207120F94460589C278848903699F
:10027000242910D025290ED08678478900793E435D
:100280006746384306432E43164326431E438900E0
:1002900070464650F0BDC68860462E430243F3E7E1
:1002A0000021018010228270C170C18001814181D2
:1002B000802202718181016170470000004004408A
:1002C000FEE77047FEE77047704770470448804775
:1002D00004480047FEE7FEE7FEE7FEE7FEE7000012
:1002E000351E0000BD000000001D0321401E0378E4
:1002F00012021A43491EF9D510467047FFFFFFFF4F
:10030000F949CF220028C86802D01040202201E01D
:10031000104030221043C8607047F348C068302155
:100320000840202801D00020704701207047EF4985
:10033000CF220028C86802D01040202201E01040DF
:1003400030221043C8607047E848C0683021084038
:10035000202801D00020704701207047E449002286
:100360004A718A710A46C871203A107001200871DA
:100370007047DF490A79002A01D10023CB71CB797C
:100380001B18CB71DA4B203B98540879401C08713C
:10039000704770B5D64C0020203C2246203213799D
:1003A000D14D51798B4207D0665C2E60491C401CB0
:1003B000C0B251711028F4D370BDCD494E310A79C5
:1003C000002A01D10023CB71CB791B18CB71C84B0C
:1003D0002E3398540879401C0871704770B5C44C8E
:1003E00000202E34224620321379C04D51798B42A1
:1003F00007D0665C2E60491C401CC0B251711028A9
:10040000F4D370BD10B503460120FFF779FFB6485D
:1004100003600122022100F0C5FF10BD70B50D463A
:100420000646002404E0305DFFF7A3FF641CE4B23D
:10043000AC42F8D30020FFF763FFFFF7AAFF0122C9
:100440000221A94800F0AEFF70BD10B5A84881791F
:1004500001710020FFF754FFFFF79BFF01220221EB
:10046000A14800F09FFF10BDF8B507460020A04D41
:100470000E464E3528716871044604E0385DFFF77A
:100480009CFF641CE4B2B442F8D3E879FFF795FF0F
:1004900098490320C870FFF7A1FF01220221934869
:1004A00000F080FFF8BD70B5FFF737FF8E4B904C22
:1004B00001280FD020796179884219D11D4628463C
:1004C00000F06DFF4006FAD50120FFF719FFE07933
:1004D000286070BD6079A0710021617121710846AA
:1004E000FFF70EFF00220221184600F05BFF70BDEF
:1004F000FFF74FFF70BD7E4810B54E30027941794D
:100500008A420BD181710024447104712246022178
:10051000764800F047FF7748C47010BDFFF75EFFD4
:1005200010BD10B5734BDC78714A0832114620318A
:10053000002C11D0DC78012C0DD10C7910550879E4
:10054000401CC0B208715178884204D10220D87092
:10055000694801F0BFFF10BD242803D0262801D030
:100560002728F8D10124DC7010700C7110BD604890
:1005700010B5263800790021401E0206120E0DD05B
:100580005B4B0020463B04E01C5C6118401CC9B278
:10059000C0B29042F8D3985C884201D1012010BDCE
:1005A000002010BDF8B5534A8C4691780646504B52
:1005B0001046463B1F4603240025007820370029BB
:1005C00016D011468978012932D1614600292FD1F0
:1005D00039794A1C242A2BD25E543979454A491C60
:1005E000C9B239719279002A59D0112825D032E048
:1005F000604600281CD0012090701E703871167063
:100600009179022000290AD0102E12D0112E04D088
:10061000122E0ED0142E0AD10DE0072009E0602E14
:1006200007D0612EF9D0622E03D0642E03D055700E
:10063000F8BD5070F8BD5470F8BD587801286DD1E0
:1006400007296BD1FFF793FF002804D129480D211A
:1006500041700121816027480178132904D01429B1
:1006600012D0172957D059E03979022956D13300D1
:1006700001F0F0FE05040E480E0E100081680029FE
:100680003ED009214170F8BD397902293CD045E0BE
:100690004470F8BD45705BE0002E57D03EE0612805
:1006A0000DD15878012839D1072937D1FFF75FFFDD
:1006B000002804D10F480D214170012181600D48AF
:1006C0000178632904D06429DED0672923D025E08E
:1006D0003979022922D1330001F0BCFE0511101432
:1006E00010100400D6E700000080004000C0004069
:1006F000C2000010000000104C000010C8E7BDE769
:100700000721BFE70521BDE7002EC1D0012EBFD0D4
:10071000022EBFD1BCE739790229BDD0FB48407811
:10072000002815D039798142B3D101F053FDF84C3E
:1007300000220121204600F035FE0022042120463F
:1007400000F030FEF34801F0C5FEF8BD202199E726
:10075000C82001F086FDF8BD10B5EF4800210079F2
:10076000401E0206120E0DD0EB4B0020203B04E091
:100770001C5C6118401CC9B2C0B29042F8D3985CAE
:10078000884201D1012010BD002010BD70B5E34D9D
:10079000284600F01CFE04460E210C40284600F0BE
:1007A000FEFD062C08D0042C0AD00C2C08D0022CFC
:1007B00001D1FFF7A0FE70BDC007FCD0286870BD56
:1007C0002868C0B2FFF7ADFE70BD70B5D04D2846A9
:1007D00000F0FDFD04460E210C40284600F0DFFD30
:1007E000062C08D0042C0FD00C2C0DD0022C01D1DB
:1007F000FFF759FE70BDC107FCD029684007CAB297
:10080000F8D50121104602E028680021C0B2FFF7A8
:10081000C9FE70BDD9E7B9E7BC4801220C300270AF
:1008200002214170112383705623C37002714171FC
:10083000C82181710821C171704710B5B84C0920D9
:1008400020700322B7A1601C01F0B9FD0C22B6A1F3
:10085000201D01F0B4FD20460C22B6A1103001F09D
:10086000AEFD012020771820607710BD10B5B44C84
:1008700003202070B34A20464270110A8170E11CA7
:10088000B14801F0A9FD0020E0712072607210BD36
:1008900010B588B06846FFF703FD0D20C0016A4619
:1008A00010806846FFF7D8FC0520012208210007C8
:1008B00000F00AFB01210C03204600F099FB1220F6
:1008C00000F0CAFA6846FFF7EBFCA0496A461180BF
:1008D0006846FFF7C1FC9D496A4640311180684671
:1008E000FFF7BAFC0021042000F0ACFB01212046F8
:1008F00000F07EFB012000F0BEFB854C204600F09E
:10090000ABFC05A9204600F0FEFC4B2080010590C1
:1009100003206A4610761820907600215176D17611
:100920001177517705A9204600F0BDFC0121204632
:1009300000F0F8FC01221146204600F033FD0122B0
:100940000421204600F02EFD122000F07EFA08B0AF
:1009500010BD30B57049002020390A4689B00446E0
:1009600026320C541454401CC0B22428F9D36A48CF
:10097000447104712630C4710471447184716846F5
:10098000FFF78EFCFF200130694608806846FFF7BC
:1009900063FC15210122080700F096FA01214D039E
:1009A000284600F025FB132000F056FA6846FFF7B2
:1009B00077FC664A6946C23A0A806846FFF74CFCF3
:1009C00062486946823808806846FFF745FC002186
:1009D000082000F037FB0121284600F009FB012028
:1009E00000F04EFB4D4D284600F036FC05A9284688
:1009F00000F089FC4B20C001059003206946087671
:100A00008C764C76CC760C774C7705A9284600F08E
:100A10004AFC0121284600F085FC012211462846A7
:100A200000F0C0FC132000F010FA384802210171D8
:100A300047490C6047490C6047490C6047490C60C6
:100A400047490C6047490C60C47009B030BD10B50F
:100A500088B06846FFF724FC192080016A461080A0
:100A60006846FFF7F9FB052001220721000700F087
:100A70002BFA01210C03204600F0BAFA122000F0F4
:100A8000EBF96846FFF70CFC30496A46118068466E
:100A9000FFF7E2FB2D496A46403111806846FFF7B7
:100AA000DBFB0021042000F0CDFA0121204600F0FC
:100AB0009FFA012000F0DFFA154C204600F0CCFB35
:100AC00005A9204600F01FFC4B20C0010590032023
:100AD0006A461076002191765176D176117751775A
:100AE00005A9204600F0DFFB0121204600F01AFC9A
:100AF00001221146204600F055FC01220421204627
:100B000000F050FC122000F0A0F920E700000010D7
:100B10000080004044000010EA00001000C00040C7
:100B2000300100104D4343004B57303032363030E7
:100B300030360000694B4157452032363000000006
:100B40004E01001007D00000000001F4440700002F
:100B50002C0000103000001034000010380000108D
:100B60003C0000104000001090B589B06846FFF7C7
:100B700097FB1B2080016A4610806846FFF76CFBDC
:100B8000052001220921000700F09EF901214807F4
:100B900000F02EFA6846FFF783FB032000026A4646
:100BA00010806846FFF758FBAF4C01220D2120460C
:100BB00000F08AF901220D21204600F07BF9AB4FAD
:100BC0001920BC4600DF01220D21204600F06DF9FE
:100BD00001214C03204600F00BFA132000F03CF9F1
:100BE0006846FFF75DFBA2496A4611806846FFF739
:100BF00033FB9F496A46403111806846FFF72CFB62
:100C00000021082000F01EFA0121204600F0F0F932
:100C1000012000F035FA974C204600F01DFB05A995
:100C2000204600F070FB4B20C001059003206A466F
:100C300010763820907600215176D1761177517751
:100C400005A9204600F02FFB0121204600F06AFB99
:100C500001221146204600F0A5FB01220421204676
:100C600000F0A0FB132000F0F0F809B090BD30B503
:100C7000814900200A4689B0263204460C54145497
:100C8000401CC0B22428F9D37B4820304471047141
:100C90002630C4710471447184716846FFF700FB0B
:100CA000C02168460180FFF7D7FA14210122880687
:100CB00000F00AF901210D03284600F099F91220ED
:100CC00000F0CAF86846FFF7EBFA6C496846018005
:100CD0004021C170FFF7C0FA684968464031018081
:100CE000FFF7BAFA0021042000F0ACF901212846F0
:100CF00000F07EF9012000F0BEF9614D284600F0B9
:100D0000ABFA05A9284600F0FEFA4B20C001059079
:100D1000032168460176382181764476C4760477CB
:100D2000447705A9284600F0BEFA0121284600F0C4
:100D3000F9FA01221146284600F034FB0122042171
:100D4000284600F02FFB4F480168FF221204914310
:100D5000EA0111430160122000F077F84A488470DC
:100D600073E610B5484C86B00120A071014680079B
:100D700000F03EF96846FFF793FA35208001694696
:100D800008806846FFF768FA002206213F4800F015
:100D90009BF80020A07106B010BD70B5012186B08F
:100DA000C80700F025F96846FFF77AFA1320C0015A
:100DB000694608806846FFF74FFA052000220C219B
:100DC000000700F081F80121880700F011F968465A
:100DD000FFF766FA0D200002694608806846FFF7B3
:100DE0003BFA2A4D00220521284600F06DF83320F9
:100DF0008001694608806846FFF72EFA0022042128
:100E0000284600F061F81920C0016946088068464C
:100E1000FFF722FA00220321284600F055F80321AB
:100E2000284600F03BF806460421284600F036F834
:100E300004460521284600F031F86000124930438D
:100E40004871FFF78EFF06B070BDC106C90E0120C4
:100E500088400F4908607047C106C90E01208840CC
:100E60000B498031086070470000025021260000C5
:100E7000C302000000C000407C000010820400009B
:100E80000080004010E400E000000010000001506D
:100E900000E100E010B500F06EF810BD10B5001DC7
:100EA00000F05AF810BD8160704710B50C3000F0AA
:100EB00062F810BD10B5103000F05DF810BD10B52F
:100EC000143000F058F810BD10B5203000F053F881
:100ED00010BD10B5203000F03FF810BD10B5012452
:100EE0008C40130001F0B6FA0504070A111A10002D
:100EF000416AA1430BE0416AA14311E0416AA14369
:100F00004162816A2143816210BD416A214341628D
:100F1000816AA1438162C16AA14307E0416A21431A
:100F20004162816AA1438162C16A2143C16210BDED
:100F300010B5303000F01FF810BD10B5343000F09F
:100F40000BF810BD10B5383000F006F810BD10B524
:100F50003C3000F010F810BD024600201268202935
:100F600005D201238B40134200D001207047FF2996
:100F7000FCD110467047202909D201238B4001681B
:100F8000002A01D0194300E0994301607047FF290E
:100F9000FCD10260704700007448006BC006C00EB0
:100FA000704780077149800F0860704781076F485C
:100FB000890F4030016001214160002242604160A0
:100FC0004168C907FCD07047704781076748890F9F
:100FD0004030016301214163002242634163416B60
:100FE000C907FCD070476149C0B24031886370477F
:100FF0005E4A80320029116801D0014300E081433C
:1010000011607047400820280BD80F2909D84901E2
:10101000401E0143554841625548816B402291432F
:1010200081637047830751489B0FC030CAB2036287
:1010300001214162002343624162416AC907FCD039
:1010400082627047494A0129516802D001435160C8
:1010500070478143FBE701224449D20301284868D5
:1010600002D09043486070471043FBE73F49C0B24D
:101070008031486170473D49C0B280318861704716
:101080003A49C0B28031C86170473949C0B2C039ED
:10109000C86070473649C0B2C0398860704734496B
:1010A000C0B2C039486070473149C0B2C039086029
:1010B00070473049C0B2C86370472E49C0B28863D8
:1010C00070472C49C0B248637047294A0129116B07
:1010D00002D08143116370470143FBE7244A012991
:1010E000916B02D08143916370470143FBE7204A33
:1010F0000129516B02D08143516370470143FBE7E3
:101100001C49403148637047194A0029516801D091
:10111000014300E0814351607047154A002911687E
:1011200001D0014300E081431160704710498A6893
:1011300002438A6070470E4A0029516901D0014379
:1011400000E0814351617047094A0029116901D0CB
:10115000014300E081431161704705498A690243F8
:101160008A6170470448406B70470000008004406B
:101170000082044000810440C0830440F3B505466A
:1011800087B000200590049001200090002001907D
:10119000029008989F4A40090390A0489E49006821
:1011A000954201D1896903E09D4A954204D1C969FC
:1011B00001F082F8000904900026741C26E0049ACD
:1011C0002046A119504301F077F80690089901F0E4
:1011D00073F8074608984008814200D97F1C91495E
:1011E000F81E884211D23946069801F065F8089930
:1011F000884201D8081A00E0401A0399884204D2B4
:101200006946D0C1039001200590641C0F2CD6D9EB
:10121000761C0F2ED1D3059801281AD1E8688021B9
:101220000843E8600299009A019B0904120702989A
:10123000090E120E1B071B0FC0B21A4306E02860EE
:101240006960EB685B065B0EEB60AA62EB681B06ED
:10125000F5D4059809B0F0BD38B510218162072199
:10126000816001E0016800914169C907FAD18021DC
:10127000016341698906FCD5002404634460C460AD
:1012800004624169009100F0BDF80C2100904843D0
:10129000654903220C504018027144718471C47175
:1012A0000472447238BDF8B50C46074600F0AAF83F
:1012B0000C2105464D435C4E21687059884204D08C
:1012C0003846FFF75BFF206870512079A179627A78
:1012D0000843617911430843F860207AE1790843B3
:1012E00001210843CF210840B8602179A819017174
:1012F00061794171A1798171617A4172E179C1713C
:10130000217A0172F8BD10B50C4600F07BF80C2173
:10131000484345494018426801688068626021601E
:10132000A06010BD0129016B02D00021016370474C
:1013300080221143FAE770B5002616E01C4602E051
:10134000002C14D0641E4569AD06F9D5002C0ED0D2
:10135000102507E00C78491C04606D1E521E761C97
:10136000002D02D0002AF5D101E0002AE6D1304656
:1013700070BD70B5054600200EE01C4602E0002C52
:101380000CD0641E6E69F607F9D0002C06D02C68CC
:101390000C70491C521E401C002AEED170BD4069E1
:1013A000C0B2704770B50E460446012A05D01F4DE5
:1013B00000F028F8002803D004E06068084304E047
:1013C0001A4D88356068B5432840606070BD8068FC
:1013D0001649C8310840704710B5C36880242343BC
:1013E000C360002303604360C368A343C36010234A
:1013F0008362114301221143016210BD03210902DE
:10140000016270470349884201D1002070470120E2
:101410007047000000800040808004405C000010A5
:1014200000C00040FDFF000018010010070300008D
:1014300010B505200C210007FFF730FD002801D072
:10144000002010BD012010BD002086B0FF4F0646D1
:101450000090029001460190FB48BC4600DFFA482C
:1014600024213038017003214170F948022503908E
:10147000F84C2078801E030000F0ECFF0705FE39D1
:10148000FDFCFBFAFE00F44F1420BC4600DFEE48E2
:1014900000213438416281620221001DFEF7E4FF21
:1014A000EE4F7D21C900E848BC4600DF012876D018
:1014B000FFF752F9012872D1E94800782428FAD1BF
:1014C000E748817801290DD1DF4E343EF161C01C1F
:1014D000FEF70AFF7061E348B06100200646009005
:1014E000042039E1D84900203439C86109E2DA4FD3
:1014F0000320BC4600DFD4483438006A002803D1FA
:10150000FFF796FF00287BD0D14F26200B3F387085
:101510000B207870CC48B91D3438406900F05CFF6E
:10152000C9483438006A00280FD0C7480021343831
:101530000162416200880A2100F0BEFEB870000A14
:10154000F870C1483238008804E00120B8700020EB
:10155000F8700C203871000A7871BD480A210B38E8
:10156000FEF782FFB849012034394862BB4F7D2124
:10157000C900B548BC4600DF01283CD0FFF7ECF8B5
:1015800001280AD1B6480078262806D1B44804902C
:101590008078022804D0032802D0062028E020E02A
:1015A000AD4F0320BC4600DFA74802213038FEF7CC
:1015B0005BFFAA4FFF21F531A348BC4600DF01289D
:1015C0000FD0FFF7C9F801280BD1A54800782428CF
:1015D000FAD104988078062804D0082802D002287E
:1015E0007ED08FE1984900203439886294E007E08A
:1015F0009D49087085E19C49062008700820ABE0F1
:1016000091483438406A002813D00198002810D03F
:101610009648761CB6B20190864215D900268A48B3
:101620003146343846618661426A002A04D0062277
:1016300003E04B200001ECE70E228B4B1A700822CE
:101640002270416281625DE1874800780D2817D0E1
:101650007D4802213038FEF707FF804F7D21C90009
:101660007948BC4600DF0128BBD0FFF775F804E0DD
:10167000D7E0AFE082E051E015E101280AD041E176
:101680002078082801D0082020706F4900203439C4
:10169000C86137E1724800782428A2D17048817867
:1016A00005290CD0022922D0032920D0062923D0D5
:1016B000042921D008291FD0072927D022E1624F11
:1016C000343FB96A00298CD1C01CFEF70DFE786149
:1016D0006448B861002078620120B862002000E010
:1016E00005E00646009060490520087034E0564940
:1016F00001203439486205E15B490E2008705248E8
:1017000000213438416281620E46FAE04E490020E1
:1017100034394862886206460E2069E74E4F02203F
:10172000BC4600DFFFF784FE002802D000200090B6
:1017300011E000984E49401C80B2009088420DD9BB
:10174000002000904848017807290FD00078082829
:1017500010D0072000E006202070D3E04248017836
:10176000072903D00078082804D0CBE02078062889
:10177000F1D1C7E020780728EBD1C3E0364F032032
:10178000BC4600DF32492820491E08700A204870F4
:10179000012088702C48491D3438406900F01CFE37
:1017A00029483238018803988170090AC170284895
:1017B0000921401EFEF758FE284F7D21C90022480E
:1017C000BC4600DF2AE0FEF7C7FF012801D124480C
:1017D000007896E0204F0320BC4600DF1C492820FB
:1017E000491E08700A204870002088701648491D5C
:1017F0003438406900F0F0FD13483238018803980E
:101800008170090AC17012480921401EFEF72CFEA2
:10181000124F7D21C9000C48BC4600DF0128D2D1FF
:101820006FE00D4F0320BC4600DF074830212E3803
:101830000170032141700298401C80B2029005287B
:1018400018D9002002905CE04C000010D52900005F
:10185000630100100400001021260000152A00007A
:10186000CA0000100BB8000014000010D80E0000D1
:10187000E02E00000221FC48FEF7F6FDFA48FB4F7F
:1018800064212E30BC4600DF01283BD0FEF764FF08
:10189000012836D1F6480078302832D1F4488078D3
:1018A00001282ED02EE0F34F1420BC4600DFEE4876
:1018B0000221801EFEF7D8FD7D21EB48EB4FC900C9
:1018C0002E30BC4600DF01281BD0FEF745FF012863
:1018D00018D1E7480078242814D1E54881780129F7
:1018E00000D0FFE5C01CFEF7FFFCDF49891F4861FF
:1018F000E14888610120C861042020700020009028
:1019000000E02570DD4900200870B1E508B5FEF75C
:1019100083FFFEF792FFFEF7A9FFD348D84F0021BF
:101920002630BC4600DFD74C00202070D64DD7486B
:1019300002260090CC48CD4FD5492630BC4600DF6A
:10194000FEF715FE012801D0AA201BE0D148067041
:10195000CE482038017810390B0000F07BFD0805D7
:101960000716A1FAF0C8EFC80020FAE001212170A3
:101970004078002802D0012803D0B8E00821C648EA
:1019800038E00020FEF73EFDB1E0207800282ED0A0
:101990002078022831D020780428F2D0207803283B
:1019A000EFD0207805283FD020780728E9D020788C
:1019B000062859D0207808281ED020780928E0D0A1
:1019C00020780A2854D020780D2855D020780F2868
:1019D00062D020780E28D4D12878082801D0082099
:1019E00028700121AD48FEF719FD03207EE0AB48C9
:1019F0000121401EFEF712FD79E09B4FBF1FF869E1
:101A00000028BED00020F86103202070A449001FE8
:101A100000F0E2FCB869A249C91E4870000A88704B
:101A20009F480A21C01EE5E78F490520891C0870E0
:101A3000083908784978000208438B49891C4870A6
:101A4000000A887008460838816A012904D00020FD
:101A5000FEF7D8FC20784AE0002181628248032109
:101A6000801CFEF7DBFCF5E78C480121801CC1E7F8
:101A70008A480221C01CBDE72878022805D07A4890
:101A8000801FC069002800D12E7084480121401CAD
:101A9000FEF7C4FC26702AE080480221401DA9E719
:101AA00041780B0000F0D6FC07061C343B42235360
:101AB000050066E704212170C1788278090211438C
:101AC000694A49BA921F118041790279080210438C
:101AD000654940BA091F08800120891E086250E745
:101AE000082028700020FEF78DFC06202070009949
:101AF00000200871674908706A4F01221146384674
:101B0000FFF750FC012204213846FFF74BFC11E798
:101B1000062028700020FEF775FC0720E6E7072066
:101B200028700020FEF76EFC0820DFE74E48801F7B
:101B3000C069002805D00820287003E015E012E0F5
:101B400007E02E700020FEF75DFC0D20CEE70B2095
:101B5000CCE74078002803D00128AAD1267010E7EE
:101B6000012020700DE70C21217040780028A0D1C1
:101B70004B481E2121383DE710B51421012288066B
:101B8000FFF793F910BD10B5142101228806FFF765
:101B900091F910BD10B514218806FFF77FF90028D0
:101BA00002D0FFF7F0FF10BDFFF7E6FF10BDB0B5A4
:101BB0000546002407E0FFF7EDFF2E4F0520BC4649
:101BC00000DF641CE4B2AC42F5D3B0BD10B5152102
:101BD00001220807FFF769F910BD10B51521012290
:101BE0000807FFF767F910BD10B515210807FFF7C3
:101BF00055F9002802D0FFF7F0FF10BDFFF7E6FF10
:101C000010BDB0B50546002407E0FFF7EDFF194F02
:101C10000A20BC4600DF641CE4B2AC42F5D3B0BD80
:101C2000194C184D134F0A20BC4600DF20780228BB
:101C300007D22878022804D2FFF7D6FFFFF7AAFFC1
:101C400006E02078022803D20920FFF7DAFFF3E745
:101C50002878022828D20920FFF7A9FFFFF79AFF6A
:101C6000FFF7C2FFDEE700001E000010152A00008B
:101C7000CA000010212600000BB80000030000106D
:101C8000D529000014000010040000109C00001072
:101C9000FFFF0000020000100C000010352D0000B6
:101CA00051010010008000401A4F6420BC4600DF44
:101CB000FFF79AFFFFF76EFFB4E70023174F1A46AE
:101CC00014211548BC4600DF154CE06000231A467D
:101CD0000A211448BC4600DF206100231A46022175
:101CE0001148BC4600DF114F0020BC4600DF80B524
:101CF000FFF753F8FEF72DFEFEF7B9FF00F094FA58
:101D0000FEF7ECF90B4F0022FA210948BC4600DF30
:101D1000002080BD212600000D1900001D2C0000B0
:101D20001800001049140000211C0000992C00002C
:101D3000BB1C0000692A000070B55D4D0020696A77
:101D4000C905090F0B0000F085FB10090B0D0F11E1
:101D5000131517191B1D1F212325272855481CE083
:101D600055481AE0554818E0554816E0554814E023
:101D7000554812E0554810E055480EE055480CE033
:101D800055480AE0554808E0554806E0554804E043
:101D9000554802E0554800E05548696AC906890E71
:101DA000891C00F089FA424B4033196B514A89076C
:101DB000514C890F1BD00026012904D0022928D0BC
:101DC000032930D108E019688907890F0FD001294C
:101DD0000DD0022908D11CE019688907890F0FD09E
:101DE00001290DD0022910D003291CD11AE022604C
:101DF00019E0A8683F49C006C00E401C484308E0EF
:101E0000A868C005800FF4D0F1E7A968C905890F5B
:101E100001D0206007E0A968C906C90E491C4143EA
:101E2000216000E0266020686060996B00F044FA51
:101E3000206070BD70B51E49022008602F48002246
:101E40000260AA238360552383600A622C4B986B3F
:101E50002024A04398630A62104600BF401CC82893
:101E6000FBD3134840300260012545604260456065
:101E70004468E407FCD08D609C6B8026B4439C636F
:101E8000CB68DB07FCD003210163456342634563F4
:101E9000416BC907FCD08563054880304561856189
:101EA000C56102620168012212041143016070BD24
:101EB00000800440801A060020A1070000350C00B5
:101EC000E0C81000C05C1500006A180040771B00D5
:101ED00080841E00C0912100009F240040AC270098
:101EE000E032290020402C00604D2F0000D430004B
:101EF00040E13300001BB7005800001000400040D4
:101F000000820440024610B5AD48002100680B462F
:101F100000F018FAAB4A002300F0E4F910BD0068A5
:101F2000084000D0012070470068704702680A43EB
:101F30000260704700214160A34AA449904202D147
:101F400008684A1504E0A24A904203D108681215B5
:101F500090430860704770B504469B4B9B489C4279
:101F600002D10368451504E0994B9C4203D10368F4
:101F700025152B430360A06A80088000A062A06A38
:101F8000A0620020A0602061E060002907D0A06A64
:101F90000C218843A0620020C043206070BD1078EF
:101FA0000028506801D0FFF7ADFF401EE060F2E767
:101FB000002802D000204870704701200870486057
:101FC000704730B50A78002A06D0012A07D0022AC5
:101FD00008D0032A0BD108E08A68826107E08A688A
:101FE000C26104E08A68026201E08A684262436971
:101FF0000A78540014190722A240934343614A7897
:102000000123002A07D044690A78550055191A4659
:10201000AA4014434461CA78002A08D044690A7867
:1020200055005219521C1D4695402C4344618A7834
:10203000002A07D044690A7855005219921C93402F
:102040001C434461C36B0A7803245200121D944060
:10205000A343C3630A7909789207920F4900091DC7
:102060008A40C26330BD30B5836A0A7854001419BF
:102070000722A240934383624A780123002A07D0B3
:10208000846A0A78550055191A46AA401443846296
:102090008A78002A08D0846A0A7855005219521C9E
:1020A0001D4695402C438462CA78002A07D0826A74
:1020B00009784C000919891C8B401A43826230BD93
:1020C00030B50A78002A06D0012A07D0022A08D0A3
:1020D000032A0BD108E08A68826107E08A68C2613E
:1020E00004E08A68026201E08A68426243690A7811
:1020F000540014190722A240934343614B780122F4
:10210000002B07D044690B785D005D191346AB4086
:102110001C434461CB78002B08D044690B785D00E8
:102120005B195B1C15469D402C4344618B78002B4A
:1021300008D044690B785D005B199B1C15469D40D7
:102140002C4344610B79002B436F097802D08A40FD
:10215000134301E08A409343436730BD012941683E
:1021600003D0490849004160704701221143FAE752
:10217000426802210A43426042688A4342607047D3
:1021800080687047002907D0012907D0022907D0AD
:10219000032907D000207047C06A7047006B704762
:1021A000406B7047806B7047426F01238B409A43AE
:1021B00042677047416F0909090141677047000094
:1021C0005800001040420F00008001408080044011
:1021D00000C0014010B5334C00212046FFF7BEFF80
:1021E0002046FFF7C5FF01212046FFF79FFE10BDE7
:1021F00010B52C4C2046FFF797FEC00713D00121E5
:102200002046FFF793FEFFF7E5FF274C0022012150
:102210002046FFF7C7F8002204212046FFF7C2F846
:10222000224800F057F910BD1CB501214802FEF705
:10223000DFFE01201E49C4030C60694608700A20B5
:1022400001906A4600211748FFF785FE194801688A
:102250000902090A02071143016015488038046029
:102260001CBD3EB50F4C054600212046FFF776FF0A
:1022700000216846017001224270C27081700171B4
:10228000694620460295FFF79CFE2046FFF770FF47
:1022900001212046FFF74AFE01212046FFF75EFF9D
:1022A0003EBD00000080014000800040440000105E
:1022B00080E100E00CE400E030B50B460146002070
:1022C0002022012409E00D46D5409D4205D31D463C
:1022D0009540491B2546954040191546521E002D34
:1022E000F1DC30BDF0B51FB40646002082B00546D3
:1022F0004024019100901BE0019922460F46304690
:1023000000F083F8049A059B801A994110D3104677
:102310001946224600F069F8361A8F410197224685
:1023200001200021009F00F060F838184D41009016
:102330002046641E0028DFDC019B009829463246B7
:1023400007B0F0BDF0B51FB486B00020009001903A
:1023500002900698069980B204900798090C02042E
:102360000014114307900027089D099806913E46E6
:102370003C4603900398A9B20204000C0390049811
:102380002D0C154348430021224600F02EF8C719B2
:10239000714110340E46402CECDB3846029A00F0B6
:1023A00024F8009A019B80180090594102980191ED
:1023B000103002904028CCDB00980BB0F0BD10B577
:1023C000044605E00B780370401C002B00D0491C2C
:1023D000521EF7D2204610BD034603220870491C46
:1023E000000A521EFAD51846704710B5202A04DBA1
:1023F0000146203A9140002010BD914020239C1AB4
:102400000346E3401943904010BD10B5202A04DB79
:102410000846203AD040002110BD0B46D340D040A2
:102420002024A21A91400843194610BD064C0125EC
:10243000064E05E02046E36807C82B439847103452
:10244000B442F7D3FDF73EFE602D0000802D000062
:102450000000000030B47446641E2578641CAB4252
:1024600000D21D46635D5B00E31830BC184702E0F4
:1024700008C8121F08C1002AFAD17047704700200F
:1024800001E001C1121F002AFBD1704710B5002ADC
:1024900006DA52005208D21DD308DB00102203E0F6
:1024A000D21C93089B000C22002B02D09C188C425B
:1024B00001D9012010BD821883604118026041607B
:1024C000C91AD018884202D810600246F9E70020E5
:1024D000106010BD10B5002100F0DCF900F0CAF961
:1024E00010BD000007480168074841610021816173
:1024F000072101610548016AFF22120611430162AA
:1025000040177047442D000000E000E000ED00E0BF
:1025100070470146EFF31080C207D20F72B6086809
:10252000002801D003680B60002A00D162B6704712
:1025300070B50D4600280FD00849094C884204D2D6
:1025400022680146104600F0C5F92068457005482C
:1025500000F0A5F800F080FA70BD0000FFFF000059
:1025600060000010400F001070B51B4DE868002897
:1025700031D0A88A401EA882002626E0A068002844
:1025800008D0616841606068002802D0A16881605D
:102590006660A66010482146183800F0C3F9A08A8A
:1025A000A8826078042804D10C49E08A0988401880
:1025B000A0820120607020210855E068E860E06892
:1025C000002801D00561E6602661A88A002802D1B2
:1025D000EC68002CD2D170BD580F001068000010BC
:1025E00070B504000ED00C4DA178286801268278C1
:1025F00091420BD900F0B4F928684670204600F0EB
:102600002BFA70BD054800F04AF8F8E766702146DD
:10261000024800F087F970BD60000010400F001004
:1026200010B50321FFF784FF10BD000010B504466C
:10263000008B084320836278618B062A15D0052A17
:1026400012D10A4610420FD0024062838843208391
:10265000204600F08FF901206070022120200155F2
:102660002146044800F05EF910BD0A468243EDD0D1
:1026700010BD0000400F0010814202D342688A4220
:1026800001D801207047EFF31082D207D20F72B643
:1026900003680B60016000D162B6002070470146FC
:1026A000406842684A600B780022022B05D0012B5B
:1026B00003D0032B01D0426070474368002B01D048
:1026C000996042608260704770B5044615460020EC
:1026D000207001226270A1706060A060E0602061E3
:1026E000A082E082208323466083203318705870D4
:1026F000608C002803D10448FFF70BFFA062294635
:10270000204600F003F870BD6802001030B5428C1E
:10271000920803D10E4A12881204920C836A920026
:102720009A18530700D5121F403A01231B06D363A2
:10273000002391631C469D005B1C54510E2BFAD361
:10274000C36913624262C162806A0249016030BD9E
:10275000402D0000A52E5AE2F8B504464068002638
:102760000F46002805D06078022818D0A0890028DC
:102770002FD0A089E18988423ED2208980000019AB
:10278000076172B6A089401CA08162B62089401CF6
:1027900080B22081E189884200D12681F8BD66702F
:1027A0002046FFF77CFF0546203006702189E86946
:1027B00089000919086172B6A089401CA08162B61F
:1027C0002089401C80B22081E18988420AD126817B
:1027D00008E02046FFF763FF0546C0690421076053
:1027E0002020415501206870284600F0C3F8294692
:1027F000034800F097F8F8BD0320FDF763FDF8BD2E
:10280000400F001070B5184801210068417000F0B9
:10281000A7F8164C657813E0E800011948680278BB
:10282000002A17D0012A1AD000F0DAF8E0786D1CDF
:10283000854200D1002572B6A078401EA07062B615
:10284000A0780028E8D165700948FFF728FF00F05C
:1028500003F970BD098989B2FFF7E8FEE6E78968E8
:10286000FFF77AFFE2E7000060000010780E00102A
:10287000400F001005480178002902D00121417065
:102880007047012002490007486070476C00001043
:1028900000ED00E070B50E4BDD789C1C1E4672B654
:1028A0009A78AA4207D2521C22703278541CAC4249
:1028B00000D10024347062B6DC78944204D9D2008E
:1028C000D2189160506070BD0220FDF7FBFC70BD16
:1028D000780E001010B5124AD368002B17D013469B
:1028E0009B8A04E0002C12D02246A48AE318D46804
:1028F0008B42F7D3C460D0600261C468002C00D062
:102900002061591A8182908A401A908210BD002459
:10291000C460D060C91A02619182848210BD000037
:10292000580F001030B502780023022A03D0012A84
:1029300001D0032A00D101238C7800E010464268C0
:10294000002A02D09578A542F8D24A604160002B57
:1029500004D0002A00D09160886030BD0020FBE7E1
:1029600003494A6842600022826048607047000064
:10297000400F001010B5016900290FD0C268CA606D
:10298000C3680022002B07D08B8A848A1B198B8294
:10299000C3681961C26000E08A82026110BD000054
:1029A0008168002907D042684A604168002901D047
:1029B000806888607047064906E04A68824202D112
:1029C00040684860704711460029F6D17047000002
:1029D000400F0010022202700022426041807047C6
:1029E00010B5416800290ED0FFF759FE0446FFF7E5
:1029F000C1FF0120607003212020015521460448B9
:102A0000FFF790FF10BD4188491C418010BD0000B8
:102A1000400F001010B50C464188002903D0491E14
:102A20004180002010BD002C07D00A4A436811687D
:102A3000002B04D0FFF776FF06E0012010BD4160B7
:102A4000116800234B60886007212046FFF770FD66
:102A5000F3E7000060000010024948600221417065
:102A60007047000060000010F7B5164600200446CD
:102A7000374A384902E08300D450401C0B88984202
:102A8000F9D33548302201883448FFF7FFFC344839
:102A900001210088C90780B24218324801683248D3
:102AA000FFF7F4FC31480822018831480068FFF73D
:102AB000EDFC304FFF25FD707C842F4A0021384605
:102AC000FFF702FE2D480421017044602C4801707C
:102AD000C46004618482786A2030FDF7F9FA2948DD
:102AE0002A490760022078702748047044700978EA
:102AF000C170FDF7E8FB2648016A2A041143016210
:102B0000C169026A5202920E92061143C161FFF737
:102B1000E9FC20490028086012DB82081E49920067
:102B200051180A688307DB0E9D402A430A60C206DB
:102B3000D20E012191404011184A80008018016096
:102B4000002332460199009800F068F8FEBD0000AD
:102B5000FC0E00103C2D0000542D00006C010010F4
:102B6000402D0000582D0000680200105E2D00006E
:102B700054000010100F0010C1020000400F0010A0
:102B8000580F001060000010780E00105C2D00003F
:102B900000ED00E07000001000E400E000E100E063
:102BA00010B50B48012100684170FFF7D9FEFDF711
:102BB0008BFB08480168491C0160FFF7D5FC00F059
:102BC0000DF80548FFF76BFDFFF746FF10BD00004D
:102BD0006000001068000010400F001070B50D4C30
:102BE0002068002815D0A0880B4E401EA0800AE067
:102BF000E888FDF766FBA888A08028682060294641
:102C00003068FFF739FDA088002802D12568002D23
:102C1000EED170BD7400001054000010FFB508061E
:102C200081B01E4617460C46000E00D14C1C1648BB
:102C3000FFF76FFC050025D02002000CAF6268840E
:102C4000EE61E1B22846019AFFF73EFD01240F48EC
:102C50000F4906E0A2001218403AD26B002A04D0B5
:102C6000641C0A889442F5D90024A1000818403851
:102C7000C563EC702846FFF7B3FC064800682030B7
:102C80000470204605B0F0BD6C010010FC0E001071
:102C90003C2D00006000001070B5214C0025214E35
:102CA0002168002802D0CA7882421AD14D70FDF7FF
:102CB00012FA21684862FDF708FB2068C178890094
:102CC00089194039CD63816A1748FFF7D5FC21681F
:102CD00016488D62FFF7D0FC00202560FFF780FCCE
:102CE00019E013490988884217D880008619403EA8
:102CF000F46B002C11D02046FFF752FE2046FFF760
:102D000039FEF5630848A16AFFF7B6FC214607487B
:102D1000A562FFF7B1FC002070BDFF2070BD000070
:102D200060000010FC0E0010680200106C01001022
:102D30003C2D0000000407060AC00A100500000030
:102D4000000200007FA9030000000000102700001F
:102D500000000000FC000000100C0000100000004B
:102D6000802D0000000000107C0000006E24000098
:102D7000FC2D00007C000010F41000007E240000F8
:102D80000000000000000000000000000000000043
:102D90000000000000000000000000000000000033
:102DA0000000000000000000000000000000000023
:102DB0000000000000000000000000000000000013
:102DC0000000000000000000000000000000000003
:102DD000000000000000000000366E0100366E01A9
:102DE00000000000000000000000000000000000E3
:0C2DF000000000000000000000000000D7
:04000005000000BD3A
:00000001FF
