:020000040000FA
:1000000070110010CD020000DD020000D5020000DA
:1000100000000000000000000000000000000000E0
:10002000000000000000000000000000410100008E
:100030000000000000000000E50100004502000093
:10004000DD020000DD020000DD020000DD02000034
:10005000DD020000DD020000DD020000DD02000024
:10006000DD020000DD020000DD020000DD02000014
:10007000DD020000DD020000DD020000F5210000CD
:10008000DD020000DD020000150800001708000076
:10009000DD020000DD020000DD020000DD020000E4
:1000A00000000000DD020000DD020000DD020000B3
:1000B00000000000DD020000DD020000034885466C
:1000C00002F0B6F900480047F11C00007011001062
:1000D00080F309887047EFF309807047684680F322
:1000E000098806480078C00703D1032080F31488EC
:1000F0007047022080F31488704700004C2D0000E8
:10010000064B9C46EFF305831B0605D1EFF31483E2
:10011000DB0701D000DF70476047000017250000B3
:10012000064B9C46EFF305831B0605D1EFF31483C2
:10013000DB0701D000DF7047604700007D2600002C
:10014000EFF309808169891E0978002933D1A64619
:100150001FC8A4467446E0471F4B06CB914224D0EB
:10016000083B002910D00CB4203101234B70EFF371
:100170000983203B4B60F0C344464D4656465F46DC
:10018000F0C300F0A2F80CBC1A60203253681033A0
:10019000F0CBA046A946B246BB4683F30988203B74
:1001A000F0CB5078002803D01078EFF30983186063
:1001B0000223DB43184710B5084A1268914209D858
:1001C000074C89006458A6461FC8A446F047EFF3C1
:1001D00009840FC410BD000060000010542400000A
:1001E0005424000002F010FB154B06CB914223D0A3
:1001F000083B0CB4203100234B70EFF30983203B04
:100200004B60F0C344464D4656465F46F0C300F08F
:100210005CF80CBC1A60203253681033F0CBA04657
:10022000A946B246BB4683F30988203BF0CB507801
:10023000002801D0107818610223DB431847000022
:100240006000001002F0AEFCCEE7000002F062F9A0
:1002500002F0A8FCC8E70000F0B5184902888E46F5
:1002600091091207120F94460589C278848903699F
:10027000242910D025290ED08678478900793E435D
:100280006746384306432E43164326431E438900E0
:1002900070464650F0BDC68860462E430243F3E7E1
:1002A0000021018010228270C170C18001814181D2
:1002B000802202718181016170470000004004408A
:1002C000FEE77047FEE77047704770470448804775
:1002D00004480047FEE7FEE7FEE7FEE7FEE7000012
:1002E000391E0000BD000000001D0321401E0378E0
:1002F00012021A43491EF9D510467047FFFFFFFF4F
:10030000F949CF220028C86802D01040202201E01D
:10031000104030221043C8607047F348C068302155
:100320000840202801D00020704701207047EF4985
:10033000CF220028C86802D01040202201E01040DF
:1003400030221043C8607047E848C0683021084038
:10035000202801D00020704701207047E449002286
:100360004A718A710A46C871203A107001200871DA
:100370007047DF490A79002A01D10023CB71CB797C
:100380001B18CB71DA4B203B98540879401C08713C
:10039000704770B5D64C0020203C2246203213799D
:1003A000D14D51798B4207D0665C2E60491C401CB0
:1003B000C0B251711028F4D370BDCD494E310A79C5
:1003C000002A01D10023CB71CB791B18CB71C84B0C
:1003D0002E3398540879401C0871704770B5C44C8E
:1003E00000202E34224620321379C04D51798B42A1
:1003F00007D0665C2E60491C401CC0B251711028A9
:10040000F4D370BD10B503460120FFF779FFB6485D
:1004100003600122022100F0C1FF10BD70B50D463E
:100420000646002404E0305DFFF7A3FF641CE4B23D
:10043000AC42F8D30020FFF763FFFFF7AAFF0122C9
:100440000221A94800F0AAFF70BD10B5A848817923
:1004500001710020FFF754FFFFF79BFF01220221EB
:10046000A14800F09BFF10BDF8B507460020A04D45
:100470000E464E3528716871044604E0385DFFF77A
:100480009CFF641CE4B2B442F8D3E879FFF795FF0F
:1004900098490320C870FFF7A1FF01220221934869
:1004A00000F07CFFF8BD70B5FFF737FF8E4B904C26
:1004B00001280FD020796179884219D11D4628463C
:1004C00000F069FF4006FAD50120FFF719FFE07937
:1004D000286070BD6079A0710021617121710846AA
:1004E000FFF70EFF00220221184600F057FF70BDF3
:1004F000FFF74FFF70BD7E4810B54E30027941794D
:100500008A420BD181710024447104712246022178
:10051000764800F043FF7748C47010BDFFF75EFFD8
:1005200010BD10B5734BDC78714A0832114620318A
:10053000002C11D0DC78012C0DD10C7910550879E4
:10054000401CC0B208715178884204D10220D87092
:10055000694801F0C1FF10BD242803D0262801D02E
:100560002728F8D10124DC7010700C7110BD604890
:1005700010B5263800790021401E0206120E0DD05B
:100580005B4B0020463B04E01C5C6118401CC9B278
:10059000C0B29042F8D3985C884201D1012010BDCE
:1005A000002010BDF8B5534A8C4691780646504B52
:1005B0001046463B1F4603240025007820370029BB
:1005C00016D011468978012932D1614600292FD1F0
:1005D00039794A1C242A2BD25E543979454A491C60
:1005E000C9B239719279002A59D0112825D032E048
:1005F000604600281CD0012090701E703871167063
:100600009179022000290AD0102E12D0112E04D088
:10061000122E0ED0142E0AD10DE0072009E0602E14
:1006200007D0612EF9D0622E03D0642E03D055700E
:10063000F8BD5070F8BD5470F8BD587801286DD1E0
:1006400007296BD1FFF793FF002804D129480D211A
:1006500041700121816027480178132904D01429B1
:1006600012D0172957D059E03979022956D13300D1
:1006700001F0F2FE05040E480E0E100081680029FC
:100680003ED009214170F8BD397902293CD045E0BE
:100690004470F8BD45705BE0002E57D03EE0612805
:1006A0000DD15878012839D1072937D1FFF75FFFDD
:1006B000002804D10F480D214170012181600D48AF
:1006C0000178632904D06429DED0672923D025E08E
:1006D0003979022922D1330001F0BEFE0511101430
:1006E00010100400D6E700000080004000C0004069
:1006F000C2000010000000104C000010C8E7BDE769
:100700000721BFE70521BDE7002EC1D0012EBFD0D4
:10071000022EBFD1BCE739790229BDD0FA48407812
:10072000002815D039798142B3D101F055FDF74C3D
:1007300000220121204600F031FE00220421204643
:1007400000F02CFEF24801F0C7FEF8BD202199E729
:10075000C82001F088FDF8BD10B5EE4800210079F1
:10076000401E0206120E0DD0EA4B0020203B04E092
:100770001C5C6118401CC9B2C0B29042F8D3985CAE
:10078000884201D1012010BD002010BD70B5E24D9E
:10079000284600F018FE04460E210C40284600F0C2
:1007A000FAFD062C08D0042C0AD00C2C08D0022C00
:1007B00001D1FFF7A0FE70BDC007FCD0286870BD56
:1007C0002868C0B2FFF7ADFE70BD70B5CF4D2846AA
:1007D00000F0F9FD04460E210C40284600F0DBFD38
:1007E000062C08D0042C0FD00C2C0DD0022C01D1DB
:1007F000FFF759FE70BDC107FCD029684007CAB297
:10080000F8D50121104602E028680021C0B2FFF7A8
:10081000C9FE70BDD9E7B9E7BB4801210C300170B2
:100820004170112282705622C27001714171C8223A
:100830008271C171704710B5B84C09202070032235
:10084000B7A1601C01F0BDFD0C22B6A1201D01F076
:10085000B8FD20460C22B6A1103001F0B2FD0120F7
:1008600020771820607710BD10B5B44C032020709D
:10087000C8222046427000218170E11CB04801F07E
:10088000ADFD0020E0712072607210BD10B588B01F
:100890006846FFF705FD0D20C0016A4610806846D6
:1008A000FFF7DAFC052001220821000700F008FB11
:1008B00001210C03204600F097FB122000F0C8FA3B
:1008C0006846FFF7EDFC9F496A4611806846FFF7CE
:1008D000C3FC9C496A46403111806846FFF7BCFC66
:1008E0000021042000F0AAFB0121204600F07CFB3F
:1008F000012000F0BCFB854C204600F0A9FC05A9B6
:10090000204600F0FCFC4B208001059003206A4645
:1009100010761820907600215176D1761177517794
:1009200005A9204600F0BBFC0121204600F0F6FCA2
:1009300001221146204600F031FD0122042120460B
:1009400000F02CFD122000F07CFA08B010BD30B58C
:100950007049002020390A4689B0044626320C54DA
:100960001454401CC0B22428F9D36A48447104715D
:100970002630C4710471447184716846FFF790FC9D
:10098000FF200130694608806846FFF765FC1521A5
:100990000122080700F094FA01214D03284600F0D7
:1009A00023FB132000F054FA6846FFF779FC654AF0
:1009B0006946C23A0A806846FFF74EFC61486946BC
:1009C000823808806846FFF747FC0021082000F0C5
:1009D00035FB0121284600F007FB012000F04CFB0D
:1009E0004D4D284600F034FC05A9284600F087FC50
:1009F0004B20C00105900320694608768C764C7622
:100A0000CC760C774C7705A9284600F048FC0121EC
:100A1000284600F083FC01221146284600F0BEFC67
:100A2000132000F00EFA38480221017146490C608B
:100A300046490C6046490C6046490C6046490C60CA
:100A400046490C60C47009B030BD10B588B0684626
:100A5000FFF726FC192080016A4610806846FFF7E0
:100A6000FBFB052001220721000700F029FA0121E4
:100A70000C03204600F0B8FA122000F0E9F96846AD
:100A8000FFF70EFC2F496A4611806846FFF7E4FB2A
:100A90002C496A46403111806846FFF7DDFB002192
:100AA000042000F0CBFA0121204600F09DFA01203D
:100AB00000F0DDFA154C204600F0CAFB05A92046DF
:100AC00000F01DFC4B20C001059003206A46107603
:100AD000002191765176D1761177517705A920467C
:100AE00000F0DDFB0121204600F018FC0122114638
:100AF000204600F053FC01220421204600F04EFC69
:100B0000122000F09EF920E7000000100080004055
:100B100044000010EA00001000C000403001001046
:100B20004D4343004B5730303236303030360000C2
:100B3000694B415745203236300000004E0100100D
:100B4000000001F4440700002C00001030000010E9
:100B500034000010380000103C000010400000106D
:100B600090B589B06846FFF79BFB1B2080016A4661
:100B700010806846FFF770FB05200122092100075D
:100B800000F09EF90121480700F02EFA6846FFF7B1
:100B900087FB032000026A4610806846FFF75CFB73
:100BA000AF4C01220D21204600F08AF901220D21CF
:100BB000204600F07BF9AB4F1920BC4600DF012234
:100BC0000D21204600F06DF901214C03204600F074
:100BD0000BFA132000F03CF96846FFF761FBA249CD
:100BE0006A4611806846FFF737FB9F496A464031E5
:100BF00011806846FFF730FB0021082000F01EFA44
:100C00000121204600F0F0F9012000F035FA974C60
:100C1000204600F01DFB05A9204600F070FB4B208C
:100C2000C001059003206A46107638209076002196
:100C30005176D1761177517705A9204600F02FFB28
:100C40000121204600F06AFB01221146204600F0F7
:100C5000A5FB01220421204600F0A0FB132000F098
:100C6000F0F809B090BD30B5814900200A4689B03E
:100C7000263204460C541454401CC0B22428F9D324
:100C80007B482030447104712630C4710471447172
:100C900084716846FFF704FBC02168460180FFF7B6
:100CA000DBFA14210122880600F00AF901210D0364
:100CB000284600F099F9122000F0CAF86846FFF7BC
:100CC000EFFA6C49684601804021C170FFF7C4FA11
:100CD0006849684640310180FFF7BEFA00210420D0
:100CE00000F0ACF90121284600F07EF9012000F067
:100CF000BEF9614D284600F0ABFA05A9284600F080
:100D0000FEFA4B20C0010590032168460176382188
:100D100081764476C4760477447705A9284600F0A6
:100D2000BEFA0121284600F0F9FA012211462846B0
:100D300000F034FB01220421284600F02FFB4F482D
:100D40000168FF2212049143EA011143016012205D
:100D500000F077F84A48847075E610B5484C86B0C4
:100D60000120A0710146800700F03EF96846FFF7B8
:100D700097FA35208001694608806846FFF76CFACB
:100D8000002206213F4800F09BF80020A07106B029
:100D900010BD70B5012186B0C80700F025F968467E
:100DA000FFF77EFA1320C001694608806846FFF706
:100DB00053FA052000220C21000700F081F80121E0
:100DC000880700F011F96846FFF76AFA0D20000263
:100DD000694608806846FFF73FFA2A4D0022052140
:100DE000284600F06DF83320800169460880684687
:100DF000FFF732FA00220421284600F061F819209A
:100E0000C001694608806846FFF726FA00220321E0
:100E1000284600F055F80321284600F03BF8064626
:100E20000421284600F036F804460521284600F043
:100E300031F86000124930434871FFF78EFF06B069
:100E400070BDC106C90E012088400F490860704777
:100E5000C106C90E012088400B49803108607047E7
:100E60000000025025260000C302000000C0004020
:100E70007C000010820400000080004010E400E0CC
:100E8000000000100000015000E100E010B500F08B
:100E90006EF810BD10B5001D00F05AF810BD81604D
:100EA000704710B50C3000F062F810BD10B510306E
:100EB00000F05DF810BD10B5143000F058F810BD0A
:100EC00010B5203000F053F810BD10B5203000F000
:100ED0003FF810BD10B501248C40130001F0BCFA9E
:100EE0000504070A111A1000416AA1430BE0416A88
:100EF000A14311E0416AA1434162816A21438162B9
:100F000010BD416A21434162816AA1438162C16A85
:100F1000A14307E0416A21434162816AA1438162A2
:100F2000C16A2143C16210BD10B5303000F01FF816
:100F300010BD10B5343000F00BF810BD10B53830CE
:100F400000F006F810BD10B53C3000F010F810BDF0
:100F5000024600201268202905D201238B4013424B
:100F600000D001207047FF29FCD11046704720298E
:100F700009D201238B400168002A01D0194300E007
:100F8000994301607047FF29FCD10260704700005F
:100F90007448006BC006C00E704780077149800F0F
:100FA0000860704781076F48890F40300160012158
:100FB00041600022426041604168C907FCD070472F
:100FC000704781076748890F403001630121416301
:100FD000002242634163416BC907FCD070476149FD
:100FE000C0B24031886370475E4A80320029116880
:100FF00001D0014300E08143116070474008202880
:101000000BD80F2909D84901401E014355484162B8
:101010005548816B40229143816370478307514853
:101020009B0FC030CAB203620121416200234362B8
:101030004162416AC907FCD082627047494A01296E
:10104000516802D00143516070478143FBE70122A0
:101050004449D2030128486802D090434860704751
:101060001043FBE73F49C0B28031486170473D49BA
:10107000C0B28031886170473A49C0B28031C861DE
:1010800070473949C0B2C039C86070473649C0B2EC
:10109000C039886070473449C0B2C0394860704771
:1010A0003149C0B2C039086070473049C0B2C86326
:1010B00070472E49C0B2886370472C49C0B248635C
:1010C0007047294A0129116B02D08143116370478F
:1010D0000143FBE7244A0129916B02D081439163CC
:1010E00070470143FBE7204A0129516B02D081433D
:1010F000516370470143FBE71C4940314863704727
:10110000194A0029516801D0014300E08143516030
:101110007047154A0029116801D0014300E081435E
:101120001160704710498A6802438A6070470E4A0E
:101130000029516901D0014300E0814351617047AA
:10114000094A0029116901D0014300E0814311617E
:10115000704705498A6902438A6170470448406BB9
:101160007047000000800440008204400081044079
:10117000C0830440F3B5054687B000200590049075
:101180000120009000200190029008989F4A400999
:101190000390A0489E490068954201D1896903E007
:1011A0009D4A954204D1C96901F088F8000904906C
:1011B0000026741C26E0049A2046A119504301F031
:1011C0007DF80690089901F079F8074608984008DC
:1011D000814200D97F1C9149F81E884211D23946BC
:1011E000069801F06BF80899884201D8081A00E0C7
:1011F000401A0399884204D26946D0C10390012065
:101200000590641C0F2CD6D9761C0F2ED1D30598CF
:1012100001281AD1E86880210843E8600299009A01
:10122000019B090412070298090E120E1B071B0FDF
:10123000C0B21A4306E028606960EB685B065B0E8B
:10124000EB60AA62EB681B06F5D4059809B0F0BD07
:1012500038B5102181620721816001E001680091A9
:101260004169C907FAD18021016341698906FCD52A
:10127000002404634460C46004624169009100F08A
:10128000BDF80C2100904843654903220C504018DA
:10129000027144718471C4710472447238BDF8B52E
:1012A0000C46074600F0AAF80C2105464D435C4E5B
:1012B00021687059884204D03846FFF75BFF2068E8
:1012C00070512079A179627A08436179114308430A
:1012D000F860207AE179084301210843CF210840D2
:1012E000B8602179A819017161794171A179817181
:1012F000617A4172E179C171217A0172F8BD10B54C
:101300000C4600F07BF80C214843454940184268E0
:101310000168806862602160A06010BD0129016BD6
:1013200002D000210163704780221143FAE770B5B3
:10133000002616E01C4602E0002C14D0641E45690D
:10134000AD06F9D5002C0ED0102507E00C78491C0D
:1013500004606D1E521E761C002D02D0002AF5D1AD
:1013600001E0002AE6D1304670BD70B50546002088
:101370000EE01C4602E0002C0CD0641E6E69F607DD
:10138000F9D0002C06D02C680C70491C521E401C51
:10139000002AEED170BD4069C0B2704770B50E46EC
:1013A0000446012A05D01F4D00F028F8002803D07C
:1013B00004E06068084304E01A4D88356068B5436E
:1013C0002840606070BD80681649C8310840704789
:1013D00010B5C36880242343C360002303604360C7
:1013E000C368A343C36010238362114301221143E6
:1013F000016210BD0321090201627047034988425E
:1014000001D100207047012070470000008000409B
:10141000808004405C00001000C00040FDFF000020
:10142000180100100703000010B505200C2100076B
:10143000FFF730FD002801D0002010BD012010BDB5
:10144000002086B006460090029001460190FE48BA
:10145000FE4FBC4600DFFC482421303801700321D8
:101460004170FB4802250390FA4C2078801E03004F
:1014700000F0F2FF0705FE3CFDFCFBFAFE00F64F14
:101480001420BC4600DFF0490020343948628862ED
:10149000ED4802213038FEF7E7FFF04F7D21C9000B
:1014A000E948BC4600DF012875D0FFF755F901284F
:1014B00071D1EB4800782428FAD1E94FB878012897
:1014C0000FD1E14E343EF061F81CFEF70DFF706164
:1014D000F81DFEF709FFB0610020064600900420C9
:1014E0003BE1D94900203439C8610EE2DA4F0320CC
:1014F000BC4600DFD44F343F386A002803D1FFF7E1
:1015000093FF002878D0D24926200B3908700B2091
:101510004870891D786900F061FF386A00280ED094
:10152000002038627862C84834380188C8480B38CF
:101530008170090AC170C4493239098806E0C4487B
:1015400001210B3881700021C1700C210171090A41
:101550004171BF480A210B38FEF786FFBA490120C6
:1015600034394862BD4F7D21C900B748BC4600DF11
:1015700001283CD0FFF7F0F801280AD1B8480078DC
:10158000262806D1B64804908078022804D0032883
:1015900002D0062028E020E0AF4F0320BC4600DF49
:1015A000A94802213038FEF75FFFAC4FFF21F5312B
:1015B000A548BC4600DF01280FD0FFF7CDF8012871
:1015C0000BD1A74800782428FAD1049880780628FF
:1015D00004D0082802D002287ED097E19A49002042
:1015E0003439886299E007E09E4908708DE19D4991
:1015F000062008700820B0E093483438406A00287C
:1016000013D00198002810D09748761CB6B20190EC
:10161000864215D900268C483146343846618661A9
:10162000426A002A04D0062203E04B200001ECE7C6
:101630000E228C4B1A70082222704162816265E191
:10164000884800780D2817D07F4802213038FEF7EF
:101650000BFF824F7D21C9007B48BC4600DF01287B
:10166000BBD0FFF779F804E0DCE0B4E087E056E0B7
:1016700019E101280AD049E12078082801D0082082
:101680002070714900203439C8613FE17448007806
:101690002428A2D17248817805290CD0022927D0AC
:1016A000032925D0062928D0042926D0082924D0AA
:1016B00007292CD02AE1644F343FB96A00298CD124
:1016C000C01CFEF711FE786161480B38C178827842
:1016D00008021043B86100E00AE0002078620120AF
:1016E000B8620020064600905E490520087034E08C
:1016F000554901203439486208E15A490E200870E2
:10170000514800213438416281620E46FDE04E4866
:1017100000213438416281620E460E2064E74E4F4C
:101720000220BC4600DFFFF77FFE002802D0002029
:10173000009011E000984D49401C80B20090884212
:101740000DD9002000904748017807290FD0007874
:10175000082810D0072000E006202070D6E041487D
:101760000178072903D00078082804D0CEE020783B
:101770000628F1D1CAE020780728EBD1C6E0364F21
:101780000320BC4600DF32492820491E08700A2089
:101790004870012088702C48491D3438406900F099
:1017A0001DFE29483238018803988170090AC170EA
:1017B00027480921401EFEF757FE284F7D21C9000A
:1017C0002148BC4600DF2AE0FEF7C6FF012801D110
:1017D0002348007899E0204F0320BC4600DF1C49D5
:1017E0002820491E08700A2048700020887016487A
:1017F000491D3438406900F0F1FD13483238018842
:1018000003988170090AC17011480921401EFEF732
:101810002BFE124F7D21C9000B48BC4600DF01287A
:10182000D2D172E00C4F0320BC4600DF06483021C5
:101830002E380170032141700298401C80B2029042
:10184000052817D9002013E04C000010D92900000A
:10185000630100100400001025260000192A000072
:10186000CA00001014000010D80E0000E02E000086
:1018700002904AE00221F848FEF7F6FDF648F74FDD
:1018800064212E30BC4600DF01283FD0FEF764FF04
:1018900001283AD1F2480078302836D1F0488078D3
:1018A000012832D032E0EF4F1420BC4600DFEA4876
:1018B0000221801EFEF7D8FD7D21E748E74FC900D1
:1018C0002E30BC4600DF01281FD0FEF745FF01285F
:1018D0001CD1E3480078242818D1E14FB8780128BA
:1018E00000D0FEE5F81CFEF7FFFCDB49891F4861CC
:1018F000F81DFEF7F9FCD849891F88610120C861ED
:10190000042020700020009000E02570D6490020BF
:101910000870A9E508B5FEF77FFFFEF78CFFFEF71C
:10192000A3FFCD48D14F00212630BC4600DFD04C6C
:1019300000202070CF4DD04802260090C648C74FE7
:10194000CE492630BC4600DFFEF711FE012801D04B
:10195000AA201BE0CA480670C74820380178103911
:101960000B0000F079FD08050716A1FAF0C8EFC8D2
:101970000020FAE0012121704078002802D00128DF
:1019800003D0B8E00821BF4838E00020FEF73AFD58
:10199000B1E0207800282ED02078022831D020789D
:1019A0000428F2D020780328EFD0207805283FD0F3
:1019B00020780728E9D02078062859D020780828F0
:1019C0001ED020780928E0D020780A2854D020782A
:1019D0000D2855D020780F2862D020780E28D4D139
:1019E0002878082801D0082028700121A648FEF791
:1019F00015FD03207EE0A4480121401EFEF70EFDE8
:101A000079E0954FBF1FF8690028BED00020F8612B
:101A1000032020709D49001F00F0E0FCB8699B493D
:101A2000C91E4870000A887098480A21C01EE5E760
:101A300089490520891C087008390878497800020E
:101A400008438549891C4870000A88700846083890
:101A5000816A012904D00020FEF7D4FC20784AE0F6
:101A6000002181627C480321801CFEF7D7FCF5E74A
:101A700085480121801CC1E783480221C01CBDE7C5
:101A80002878022805D07448801FC069002800D13A
:101A90002E707D480121401CFEF7C0FC26702AE014
:101AA00079480221401DA9E741780B0000F0D4FCE1
:101AB00007061C343B422353050066E704212170CE
:101AC000C178827809021143634A49BA921F118092
:101AD00041790279080210435F4940BA091F088022
:101AE0000120891E086250E7082028700020FEF7B8
:101AF00089FC062020700099002008716049087058
:101B0000634F012211463846FFF748FC01220421A9
:101B10003846FFF743FC11E7062028700020FEF747
:101B200071FC0720E6E7072028700020FEF76AFC1A
:101B30000820DFE74848801FC069002805D008203A
:101B4000287003E015E012E007E02E700020FEF799
:101B500059FC0D20CEE70B20CCE74078002803D0BD
:101B60000128AAD1267010E7012020700DE70C2172
:101B7000217040780028A0D144481E2121383DE73B
:101B800010B5142101228806FFF78BF910BD10B59E
:101B9000142101228806FFF789F910BD10B5142120
:101BA0008806FFF777F9002802D0FFF7F0FF10BD95
:101BB000FFF7E6FF10BDB0B50546002407E0FFF7CC
:101BC000EDFF284F0520BC4600DF641CE4B2AC42A8
:101BD000F5D3B0BD10B5152101220807FFF761F953
:101BE00010BD10B5152101220807FFF75FF910BDE0
:101BF00010B515210807FFF74DF9002802D0FFF7AF
:101C0000F0FF10BDFFF7E6FF10BDB0B5054600249C
:101C100007E0FFF7EDFF134F0A20BC4600DF641C0E
:101C2000E4B2AC42F5D3B0BD124C114D0D4F0A20B9
:101C3000BC4600DF2078022807D22878022804D288
:101C4000FFF7D6FFFFF7AAFF24E02078022821D271
:101C50000920FFF7DAFFF3E71E000010192A000041
:101C6000CA0000102526000003000010D92900003A
:101C700014000010040000109C000010FFFF000082
:101C8000020000100C000010392D0000510100105E
:101C9000008000402878022807D20920FFF78BFF38
:101CA000FFF77CFFFFF7A4FFC0E71B4F6420BC4693
:101CB00000DFFFF79DFFFFF771FFB7E70023184F25
:101CC0001A4614211548BC4600DF164CE06000237C
:101CD0001A460A211448BC4600DF206100231A4638
:101CE00002211248BC4600DF114F0020BC4600DF35
:101CF00080B5FFF74EF8FEF72AFEFEF7B4FF00F0BE
:101D000095FAFEF7EBF90C4F0022FA210948BC4680
:101D100000DF002080BD000025260000151900000E
:101D2000212C00001800001041140000291C0000A4
:101D30009D2C0000BD1C00006D2A000070B55D4D9B
:101D40000020696AC905090F0B0000F085FB100926
:101D50000B0D0F11131517191B1D1F2123252728E4
:101D600055481CE055481AE0554818E0554816E01B
:101D7000554814E0554812E0554810E055480EE02B
:101D800055480CE055480AE0554808E0554806E03B
:101D9000554804E0554802E0554800E05548696A56
:101DA000C906890E891C00F089FA424B4033196B31
:101DB000514A8907514C890F1BD00026012904D0B4
:101DC000022928D0032930D108E019688907890F32
:101DD0000FD001290DD0022908D11CE0196889070C
:101DE000890F0FD001290DD0022910D003291CD151
:101DF0001AE0226019E0A8683F49C006C00E401CE6
:101E0000484308E0A868C005800FF4D0F1E7A9684E
:101E1000C905890F01D0206007E0A968C906C90E6D
:101E2000491C4143216000E0266020686060996B96
:101E300000F044FA206070BD70B51E4902200860B1
:101E40002F4800220260AA238360552383600A6220
:101E50002C4B986B2024A04398630A62104600BF65
:101E6000401CC828FBD31348403002600125456060
:101E7000426045604468E407FCD08D609C6B80261E
:101E8000B4439C63CB68DB07FCD00321016345634B
:101E900042634563416BC907FCD0856305488030C8
:101EA00045618561C5610262016801221204114326
:101EB000016070BD00800440801A060020A1070068
:101EC00000350C00E0C81000C05C1500006A180066
:101ED00040771B0080841E00C0912100009F2400D9
:101EE00040AC2700E032290020402C00604D2F003C
:101EF00000D4300040E13300001BB7005800001050
:101F00000040004000820440024610B5AD48002168
:101F100000680B4600F018FAAB4A002300F0E4F921
:101F200010BD0068084000D001207047006870476D
:101F300002680A430260704700214160A34AA44935
:101F4000904202D108684A1504E0A24A904203D1A7
:101F50000868121590430860704770B504469B4BA3
:101F60009B489C4202D10368451504E0994B9C4272
:101F700003D1036825152B430360A06A8008800005
:101F8000A062A06AA0620020A0602061E060002939
:101F900007D0A06A0C218843A0620020C0432060C3
:101FA00070BD10780028506801D0FFF7ADFF401ECB
:101FB000E060F2E7002802D000204870704701205E
:101FC00008704860704730B50A78002A06D0012AA8
:101FD00007D0022A08D0032A0BD108E08A68826160
:101FE00007E08A68C26104E08A68026201E08A68E8
:101FF000426243690A78540014190722A2409343AD
:1020000043614A780123002A07D044690A785500C1
:1020100055191A46AA4014434461CA78002A08D0C8
:1020200044690A7855005219521C1D4695402C43AC
:1020300044618A78002A07D044690A785500521909
:10204000921C93401C434461C36B0A7803245200E2
:10205000121D9440A343C3630A7909789207920F33
:102060004900091D8A40C26330BD30B5836A0A78D1
:10207000540014190722A240934383624A78012333
:10208000002A07D0846A0A78550055191A46AA40D2
:10209000144384628A78002A08D0846A0A7855003A
:1020A0005219521C1D4695402C438462CA78002A5E
:1020B00007D0826A09784C000919891C8B401A43A1
:1020C000826230BD30B50A78002A06D0012A07D0D6
:1020D000022A08D0032A0BD108E08A68826107E04F
:1020E0008A68C26104E08A68026201E08A6842622A
:1020F00043690A78540014190722A24093434361AC
:102100004B780122002B07D044690B785D005D19E4
:102110001346AB401C434461CB78002B08D0446984
:102120000B785D005B195B1C15469D402C43446198
:102130008B78002B08D044690B785D005B199B1CE1
:1021400015469D402C4344610B79002B436F097861
:1021500002D08A40134301E08A409343436730BD75
:102160000129416803D049084900416070470122B4
:102170001143FAE7426802210A43426042688A43F7
:102180004260704780687047002907D0012907D056
:10219000022907D0032907D000207047C06A704782
:1021A000006B7047406B7047806B7047426F012334
:1021B0008B409A4342677047416F090909014167A3
:1021C000704700005800001040420F00008001409E
:1021D0008080044000C0014010B5334C00212046EF
:1021E000FFF7BEFF2046FFF7C5FF01212046FFF79E
:1021F0009FFE10BD10B52C4C2046FFF797FEC00780
:1022000013D001212046FFF793FEFFF7E5FF274C8F
:10221000002201212046FFF7C1F8002204212046B8
:10222000FFF7BCF8224800F057F910BD1CB501219A
:102230004802FEF7D9FE01201E49C4030C6069461E
:1022400008700A2001906A4600211748FFF785FEB2
:10225000194801680902090A02071143016015487B
:10226000803804601CBD3EB50F4C05460021204659
:10227000FFF776FF00216846017001224270C270AC
:1022800081700171694620460295FFF79CFE204649
:10229000FFF770FF01212046FFF74AFE012120468B
:1022A000FFF75EFF3EBD000000800140008000405F
:1022B0004400001080E100E00CE400E030B50B4683
:1022C000014600202022012409E00D46D5409D4210
:1022D00005D31D469540491B254695404019154696
:1022E000521E002DF1DC30BDF0B51FB406460020B3
:1022F00082B005464024019100901BE001992246DE
:102300000F46304600F083F8049A059B801A9941E5
:1023100010D310461946224600F069F8361A8F414C
:102320000197224601200021009F00F060F8381834
:102330004D4100902046641E0028DFDC019B009880
:102340002946324607B0F0BDF0B51FB486B0002074
:102350000090019002900698069980B20490079828
:10236000090C02040014114307900027089D0998E6
:1023700006913E463C4603900398A9B20204000C25
:10238000039004982D0C154348430021224600F089
:102390002EF8C719714110340E46402CECDB38463C
:1023A000029A00F024F8009A019B8018009059418D
:1023B00002980191103002904028CCDB00980BB0BD
:1023C000F0BD10B5044605E00B780370401C002BEF
:1023D00000D0491C521EF7D2204610BD03460322EE
:1023E0000870491C000A521EFAD51846704710B5ED
:1023F000202A04DB0146203A9140002010BD914084
:1024000020239C1A0346E3401943904010BD10B5A9
:10241000202A04DB0846203AD040002110BD0B469C
:10242000D340D0402024A21A91400843194610BD41
:10243000064C0125064E05E02046E36807C82B43FD
:1024400098471034B442F7D3FDF73CFE642D0000EA
:10245000842D00000000000030B47446641E25780E
:10246000641CAB4200D21D46635D5B00E31830BCC8
:10247000184702E008C8121F08C1002AFAD17047A5
:102480007047002001E001C1121F002AFBD17047F4
:1024900010B5002A06DA52005208D21DD308DB001C
:1024A000102203E0D21C93089B000C22002B02D0C8
:1024B0009C188C4201D9012010BD821883604118FC
:1024C00002604160C91AD018884202D810600246E2
:1024D000F9E70020106010BD10B5002100F0DCF914
:1024E00000F0CAF910BD00000748016807484161C3
:1024F00000218161072101610548016AFF2212065E
:102500001143016240177047482D000000E000E0D1
:1025100000ED00E070470146EFF31080C207D20FD4
:1025200072B60868002801D003680B60002A00D149
:1025300062B6704770B50D4600280FD00849094CA7
:10254000884204D222680146104600F0C5F920688E
:102550004570054800F0A5F800F080FA70BD000055
:10256000FFFF000060000010400F001070B51B4D11
:10257000E868002831D0A88A401EA882002626E0FC
:10258000A068002808D0616841606068002802D017
:10259000A16881606660A66010482146183800F086
:1025A000C3F9A08AA8826078042804D10C49E08A83
:1025B00009884018A0820120607020210855E06839
:1025C000E860E068002801D00561E6602661A88A1D
:1025D000002802D1EC68002CD2D170BD580F001039
:1025E0006800001070B504000ED00C4DA17828686A
:1025F0000126827891420BD900F0B4F92868467020
:10260000204600F02BFA70BD054800F04AF8F8E7C4
:1026100066702146024800F087F970BD6000001026
:10262000400F001010B50321FFF784FF10BD00001C
:1026300010B50446008B084320836278618B062A1C
:1026400015D0052A12D10A4610420FD002406283EB
:1026500088432083204600F08FF90120607002211A
:10266000202001552146044800F05EF910BD0A46BD
:102670008243EDD010BD0000400F0010814202D314
:1026800042688A4201D801207047EFF31082D207D6
:10269000D20F72B603680B60016000D162B60020F1
:1026A00070470146406842684A600B780022022B5E
:1026B00005D0012B03D0032B01D042607047436843
:1026C000002B01D0996042608260704770B504466B
:1026D00015460020207001226270A1706060A06029
:1026E000E0602061A082E082208323466083203363
:1026F00018705870608C002803D10448FFF70BFF56
:10270000A0622946204600F003F870BD6802001060
:1027100030B5428C920803D10E4A12881204920CF2
:10272000836A92009A18530700D5121F403A01237A
:102730001B06D363002391631C469D005B1C545110
:102740000E2BFAD3C36913624262C162806A0249E6
:10275000016030BD442D0000A52E5AE2F8B50446B4
:10276000406800260F46002805D06078022818D05F
:10277000A08900282FD0A089E18988423ED22089F3
:1027800080000019076172B6A089401CA08162B662
:102790002089401C80B22081E189884200D12681B5
:1027A000F8BD66702046FFF77CFF054620300670B6
:1027B0002189E86989000919086172B6A089401C5D
:1027C000A08162B62089401C80B22081E1898842C4
:1027D0000AD1268108E02046FFF763FF0546C0695D
:1027E000042107602020415501206870284600F030
:1027F000C3F82946034800F097F8F8BD0320FDF719
:1028000061FDF8BD400F001070B518480121006847
:10281000417000F0A7F8164C657813E0E800011944
:1028200048680278002A17D0012A1AD000F0DAF896
:10283000E0786D1C854200D1002572B6A078401E5C
:10284000A07062B6A0780028E8D165700948FFF74B
:1028500028FF00F003F970BD098989B2FFF7E8FE8F
:10286000E6E78968FFF77AFFE2E700006000001002
:10287000780E0010400F001005480178002902D0A2
:1028800001214170704701200249000748607047EC
:102890006C00001000ED00E070B50E4BDD789C1C64
:1028A0001E4672B69A78AA4207D2521C227032781B
:1028B000541CAC4200D10024347062B6DC789442DF
:1028C00004D9D200D2189160506070BD0220FDF78B
:1028D000F9FC70BD780E001010B5124AD368002BB9
:1028E00017D013469B8A04E0002C12D02246A48AFB
:1028F000E318D4688B42F7D3C460D0600261C46827
:10290000002C00D02061591A8182908A401A90824E
:1029100010BD0024C460D060C91A02619182848213
:1029200010BD0000580F001030B502780023022AB5
:1029300003D0012A01D0032A00D101238C7800E0C2
:1029400010464268002A02D09578A542F8D24A6023
:102950004160002B04D0002A00D09160886030BD17
:102960000020FBE703494A68426000228260486019
:1029700070470000400F001010B5016900290FD00A
:10298000C268CA60C3680022002B07D08B8A848A81
:102990001B198B82C3681961C26000E08A820261E0
:1029A00010BD00008168002907D042684A60416874
:1029B000002901D0806888607047064906E04A68AF
:1029C000824202D140684860704711460029F6D122
:1029D00070470000400F0010022202700022426087
:1029E0004180704710B5416800290ED0FFF759FEAD
:1029F0000446FFF7C1FF012060700321202001552C
:102A000021460448FFF790FF10BD4188491C4180D2
:102A100010BD0000400F001010B50C464188002981
:102A200003D0491E4180002010BD002C07D00A4A67
:102A300043681168002B04D0FFF776FF06E0012001
:102A400010BD4160116800234B608860072120465B
:102A5000FFF770FDF3E700006000001002494860D6
:102A6000022141707047000060000010F7B5164663
:102A700000200446374A384902E08300D450401C05
:102A80000B889842F9D33548302201883448FFF743
:102A9000FFFC344801210088C90780B2421832483F
:102AA00001683248FFF7F4FC3148082201883148B8
:102AB0000068FFF7EDFC304FFF25FD707C842F4A46
:102AC00000213846FFF702FE2D48042101704460C2
:102AD0002C480170C46004618482786A2030FDF75C
:102AE000F7FA29482A4907600220787027480470BD
:102AF00044700978C170FDF7E6FB2648016A2A0494
:102B000011430162C169026A5202920E9206114398
:102B1000C161FFF7E9FC20490028086012DB820848
:102B20001E49920051180A688307DB0E9D402A4314
:102B30000A60C206D20E012191404011184A80005D
:102B400080180160002332460199009800F068F86F
:102B5000FEBD0000FC0E0010402D0000582D0000AE
:102B60006C010010442D00005C2D00006802001074
:102B7000622D000054000010100F0010C102000070
:102B8000400F0010580F001060000010780E001069
:102B9000602D000000ED00E07000001000E400E097
:102BA00000E100E010B50B48012100684170FFF71B
:102BB000D9FEFDF789FB08480168491C0160FFF751
:102BC000D5FC00F00DF80548FFF76BFDFFF746FF59
:102BD00010BD00006000001068000010400F0010E1
:102BE00070B50D4C2068002815D0A0880B4E401EF3
:102BF000A0800AE0E888FDF764FBA888A080286828
:102C0000206029463068FFF739FDA088002802D1EE
:102C10002568002DEED170BD740000105400001026
:102C2000FFB5080681B01E4617460C46000E00D1BF
:102C30004C1C1648FFF76FFC050025D02002000C45
:102C4000AF626884EE61E1B22846019AFFF73EFD6B
:102C500001240F480F4906E0A2001218403AD26B37
:102C6000002A04D0641C0A889442F5D90024A100EB
:102C700008184038C563EC702846FFF7B3FC0648D7
:102C8000006820300470204605B0F0BD6C010010D3
:102C9000FC0E0010402D00006000001070B5214CAB
:102CA0000025214E2168002802D0CA7882421AD11C
:102CB0004D70FDF710FA21684862FDF706FB2068A9
:102CC000C178890089194039CD63816A1748FFF7B7
:102CD000D5FC216816488D62FFF7D0FC00202560E6
:102CE000FFF780FC19E013490988884217D8800053
:102CF0008619403EF46B002C11D02046FFF752FE9F
:102D00002046FFF739FEF5630848A16AFFF7B6FCD5
:102D100021460748A562FFF7B1FC002070BDFF20E7
:102D200070BD000060000010FC0E00106802001072
:102D30006C010010402D0000000407060AC00A10B4
:102D400005000000000200007FA903000000000051
:102D50001027000000000000FC000000100C000024
:102D600010000000842D0000000000107C00000016
:102D700072240000002E00007C000010F4100000FF
:102D8000822400000000000000000000000000009D
:102D90000000000000000000000000000000000033
:102DA0000000000000000000000000000000000023
:102DB0000000000000000000000000000000000013
:102DC0000000000000000000000000000000000003
:102DD00000000000000000000000000000366E014E
:102DE00000366E010000000000000000000000003E
:102DF00000000000000000000000000000000000D3
:04000005000000BD3A
:00000001FF
