:020000040000FA
:100000008011001059020000690200006102000026
:1000100000000000000000000000000000000000E0
:10002000000000000000000000000000410100008E
:100030000000000000000000E50100004502000093
:100040006902000069020000690200006902000004
:1000500069020000690200006902000069020000F4
:1000600069020000690200006902000069020000E4
:10007000690200006902000069020000FD0C000036
:100080006902000069020000DD120000DF120000BA
:1000900069020000690200006902000069020000B4
:1000A000000000006902000069020000690200000F
:1000B0000000000069020000690200000348854654
:1000C00002F0A8FA00480047C102000080110010A9
:1000D00080F309887047EFF309807047684680F322
:1000E000098806480078C00703D1032080F31488EC
:1000F0007047022080F3148870470000D82F00005A
:10010000064B9C46EFF305831B0605D1EFF31483E2
:10011000DB0701D000DF704760470000FB260000CE
:10012000064B9C46EFF305831B0605D1EFF31483C2
:10013000DB0701D000DF7047604700006128000046
:10014000EFF309808169891E0978002933D1A64619
:100150001FC8A4467446E0471F4B06CB914224D0EB
:10016000083B002910D00CB4203101238B71EFF330
:100170000983203BCB60F0C344464D4656465F465C
:10018000F0C300F0ACFD0CBC1A602032D368103311
:10019000F0CBA046A946B246BB4683F30988203B74
:1001A000F0CB9079002803D05079EFF309831860E1
:1001B0000223DB43184710B5084A1268914209D858
:1001C000074C89006458A6461FC8A446F047EFF3C1
:1001D00009840FC410BD0000600000103826000024
:1001E0003826000002F004FC154B06CB914223D0C8
:1001F000083B0CB4203100238B71EFF30983203BC3
:10020000CB60F0C344464D4656465F46F0C300F00F
:1002100066FD0CBC1A602032D3681033F0CBA046C8
:10022000A946B246BB4683F30988203BF0CB9079C0
:10023000002801D0507918610223DB4318470000E1
:100240006000001002F0A2FDCEE7000002F054FAB8
:1002500002F09CFDC8E700000448804704480047BE
:10026000FEE7FEE7FEE7FEE7FEE70000BD23000035
:10027000BD00000000231A4F1A4614211748BC463F
:1002800000DF184C206000231A460A211648BC469D
:1002900000DF606000231A4602211448BC4600DFDC
:1002A000134F0020BC4600DF10B502F087F801F0C4
:1002B0002FFB01F0C0F801F04DFA00F03BFD10BD3E
:1002C00080B5FFF7F1FFFFF709FF0B4F0022FA217E
:1002D0000848BC4600DF002080BD000099040000F3
:1002E000092E000000000010650700000103000057
:1002F000852E000075020000552C0000FFFFFFFF57
:10030000604E614F0A20BC4600DF6048007800283C
:1003100004D001221321052000070AE00524240748
:100320001321204601F066FB002805D0012213218D
:10033000204601F06BFB04E001221321204601F06E
:1003400060FB5348007800280CD00425002400F0FE
:1003500075F84D4F3220BC4600DF641CE4B2AC425D
:10036000F5D305E000F06AF8474F0A20BC4600DFED
:100370004848017802290FD2317802290CD209208D
:1003800000F071F800F046F83F4F0A20BC4600DF4D
:10039000092000F030F817E00078022803D2092085
:1003A00000F061F80EE03078022807D2092000F052
:1003B00022F800F00CF800F02DF8A2E7324F64208C
:1003C000BC4600DF00F026F800F001F899E710B510
:1003D00014218C06204601F00DFB002805D00122D7
:1003E0001421204601F012FB10BD012214212046E9
:1003F00001F007FB10BDB0B50546002407E0FFF78C
:10040000E6FF214F0520BC4600DF641CE4B2AC428D
:10041000F5D3B0BD10B515210C07204601F0EAFA5E
:10042000002805D001221521204601F0EFFA10BD69
:1004300001221521204601F0E4FA10BD10B5052473
:1004400024071621204601F0D5FA002805D0012204
:100450001621204601F0DAFA10BD012216212046AD
:1004600001F0CFFA10BDB0B50546002407E0FFF754
:10047000D1FF054F1420BC4600DF641CE4B2AC423F
:10048000F5D3B0BD5400001009280000460000104C
:10049000470000104400001008B500F021FF00F0F4
:1004A00036FF00F055FF9B4F00219948BC4600DF06
:1004B000994C00202070994D9948022600909A4F3F
:1004C00098499348BC4600DF00F0B5FD012801D0F3
:1004D000AA202EE0954806709149203908781828FE
:1004E00000D18F20924A1278002A0BD10209120102
:1004F000602A02D0102A04D004E00007000F103058
:1005000000E08F201038030002F098F80805071665
:100510009DDFE9F1EBF10020DFE001202070487859
:10052000002802D0012803D0E1E00821814839E009
:10053000002000F0C9FCDAE0207800282FD02078D5
:10054000022832D020780428F2D020780328EFD077
:100550002078052840D020780728E9D02078062880
:1005600056D02078082819D020780928E0D02078A3
:100570000A2851D020780D2852D020780F285ED03C
:1005800020780E28D4D12878082801D00820287097
:100590000121694800F0A4FC03202070A7E0664810
:1005A0000121401E00F09CFCA1E064480168002984
:1005B000BED000210160032020706149001F01F0BE
:1005C000FFFF604800685E49C91E4870000A8870D5
:1005D0005B480A21C01EE5E75B49052008705B49BE
:1005E000087849780002084357494870000A887023
:1005F00057480168012904D0002000F065FC042060
:10060000CBE70021016003214F4800F069FCF6E7C9
:1006100049480121801CC5E747480221C01CC1E7A9
:100620002878022804D045480068002800D12E70A0
:1006300041480121401C00F053FC267057E03E4821
:100640000221401DAEE74878030001F0F7FF0706DE
:100650001A21282F503C05006AE704202070C87832
:100660008A7800021043394A40BA108048790979E3
:1006700000020843374940BA088037490120086022
:1006800056E708202870002000F01EFC062084E7B2
:1006900006202870002000F017FC07207DE70720C7
:1006A0002870002000F010FC082076E7234800683E
:1006B000002802D00820287000E02E70002000F0F2
:1006C00003FC0D2069E70B2067E74878002803D07A
:1006D0000128C1D126702BE70120207028E70C20CB
:1006E000207048780028B7D122211C485AE7009989
:1006F000002008710D490870194F01221146384633
:1007000001F098FD01220421384601F093FDD6E660
:1007100024000010C12B0000540000104400001001
:10072000800E0010FFFF0000012C000042000010AE
:10073000460000104C000010C52F000010000010F3
:10074000A10000100C000010360000102000001066
:100750001C00001022000010140000107C0000108B
:10076000008000401FB50026FF48354601963146FF
:10077000FE4F0096BC4600DFFD4824210170032196
:100780004170FC480290FC4C2078030001F056FFB9
:1007900009F50606F54AF4F3F2F1F500F74F1420D7
:1007A000BC4600DFF64900200860F64908600221D7
:1007B000EF4800F0BBFBF44F7D21C900EA48BC467E
:1007C00000DF01282DD000F02BFD012829D1EF48B2
:1007D00000782428FAD1ED488178012904D007292E
:1007E00001D0082915D041E2E94A01211160C01C5D
:1007F00001F0DCFEE7490860E7480078002801D0F6
:10080000E64800E0E648E74908600026354604204F
:100810003FE1DF490020086002202070E2480F21FC
:10082000017037E1D54F0320BC4600DFDF4F386849
:10083000002803D100F02DFA002875D0DC492620CD
:1008400008700B204870D348891D006801F0B8FE7D
:100850003868002833D000203860C9490860CE4885
:1008600000780028D34802D001880A2905D20188DF
:10087000CF488170090AC17007E000880A2101F0A1
:1008800005FECB498870000AC870CB480188C8486B
:100890000171090A41710A21C54800F047FBB849B6
:1008A00001200860B84F7D21C900AF48BC4600DF79
:1008B00001280FD000F0B4FC012807D00AE0BC48A2
:1008C000012181700021C1700C21E1E7AF4800785F
:1008D000262801D00620BFE0AC480390807802288B
:1008E00001D003289DD1A54F0320BC4600DF022183
:1008F0009F4800F01BFBA44FFF21F5319A48BC46EE
:1009000000DF01280FD000F08BFC01280BD19F489D
:100910000078242807D103988078062805D0082875
:1009200003D0022809D0B5E00AE09649002008600B
:100930009D490E2008700220ABE00120904926E07E
:100940008F480068002819D00098002816D09B48CE
:100950006D1CADB2009085421BD900258D492846FB
:100960000D6090490D60864B1968002908D006215A
:1009700007E034E1D2E0A0E071E05BE19048E7E716
:100980000E21894A11700821217018607D49086084
:1009900080E0854800780D2810D00221744800F0CE
:1009A000C5FA794F7D21C9006F48BC4600DF012898
:1009B00070D000F035FC012808D06BE020780828C2
:1009C00001D00820207000207149E0E76F480078CE
:1009D00024285FD16D48817805290CD0022925D0C3
:1009E000032923D0062925D0042923D0082921D082
:1009F00007292AD04EE0634F396800294AD1C01C2C
:100A000001F0D4FD634908606948C1788278080222
:100A10006449104308605A4900200860012038608A
:100A20000026614905203546087032E0544801210E
:100A300001602FE05C490E200870514900200860D9
:100A4000504908600546082023E04D490020086011
:100A50004C49086005460E2053490870F3E7474F9C
:100A60000220BC4600DF00F014F9002801D0002667
:100A70000EE0761C5348B6B286420FD94A4800268B
:100A80000178072915D0007808280ED0072000E04B
:100A9000062020704C490020087074E64248017816
:100AA000072906D000780828F4D120780728EDD14E
:100AB000F0E720780628EBD1ECE7304F0320BC4666
:100AC00000DF2C492820491E08700A2048700120A8
:100AD00088703048491D006801F072FD3648018871
:100AE00002988170090AC17022480921401E00F055
:100AF0001DFA254F7D21C9001B48BC4600DF012897
:100B000064D11C480921401E00F010FA7D21C90063
:100B10001548BC4600DF012858D194E7174F032041
:100B2000BC4600DF13492820491E08700A2048707F
:100B3000002088701748491D006801F041FD1E48DB
:100B4000018802988170090AC1700A480921401E73
:100B500000F0ECF90C4F7D21C9000348BC4600DFD2
:100B6000012833D1E7E631E02C000010C12B000052
:100B700034000010B30000104400001009280000E9
:100B8000180000101C000010012C0000AE0E001018
:100B9000100000100800001047000010FFFF0000C8
:100BA000012C00000C000010540000101400001074
:100BB000A80000102000001022000010C40900004E
:100BC000DC050000282300004300001000F028FB93
:100BD0000128A2D13548007828289ED1ABE6344FB1
:100BE0000320BC4600DF33483021017003214170EF
:100BF0000198401C80B20190052802D90020019084
:100C000099E602212B4800F091F92C4F64212A48E3
:100C1000BC4600DF012800D13CE700F001FB0128C1
:100C2000A0D12248007830289CD120488078012823
:100C300098D02FE71E4F1420BC4600DF0221204829
:100C400000F074F91D4F7D21C9001B48BC4600DF30
:100C5000012887D000F0E4FA0128DDD1134800789C
:100C60002428D9D111488178012903D015490020C1
:100C7000086060E6C01C01F099FC13490860144943
:100C8000124808600F4901200860042020700026E7
:100C900000E710B505200C21000700F0ABFE00288E
:100CA00001D0002010BD012010BD0000AE0E0010CC
:100CB00009280000390000102C000010012C000051
:100CC0003400001010000010080000100BB80000E5
:100CD0000C000010FEE77047FEE770477047704752
:100CE00010B5334C0021204601F054F9204601F0A4
:100CF0005BF90121204601F035F810BD10B52C4CF0
:100D0000204601F02DF8C00713D00121204601F044
:100D100029F8FFF7E5FF274C00220121204601F0CA
:100D200089FA00220421204601F084FA224801F0C9
:100D3000C5FC10BD1CB50121480200F039FF01209F
:100D40001E49C4030C60694608700A2001906A4677
:100D50000021174801F01BF8194801680902090A27
:100D60000207114301601548803804601CBD3EB580
:100D70000F4C05460021204601F00CF90021684681
:100D8000017001224270C270817001716946204673
:100D9000029501F032F8204601F006F901212046C3
:100DA00000F0E0FF0121204601F0F4F83EBD000014
:100DB00000800140008000402400001080E100E03D
:100DC0000CE400E0FA49CF220028C86802D01040A5
:100DD000202201E0104030221043C8607047F448E0
:100DE000C06830210840202801D000207047012031
:100DF0007047F049CF220028C86802D01040202256
:100E000001E0104030221043C8607047E948C068D4
:100E100030210840202801D0002070470120704771
:100E2000E54900224A718A710A46C871203A107059
:100E3000012008717047E0490A79002A01D1002396
:100E4000CB71CB791B18CB71DB4B203B98540879C5
:100E5000401C0871704770B5D74C0020203C2246DA
:100E600020321379D24D51798B4207D0665C2E60C7
:100E7000491C401CC0B251711028F4D370BDCE493A
:100E80004E310A79002A01D10023CB71CB791B188E
:100E9000CB71C94B2E3398540879401C08717047A8
:100EA00070B5C54C00202E34224620321379C14D36
:100EB00051798B4207D0665C2E60491C401CC0B241
:100EC00051711028F4D370BD10B503460120FFF70F
:100ED00079FFB74803600122022101F0ABF910BD90
:100EE00070B50D460646002404E0305DFFF7A3FF11
:100EF000641CE4B2AC42F8D30020FFF763FFFFF7B5
:100F0000AAFF01220221AA4801F094F970BD10B590
:100F1000A948817901710020FFF754FFFFF79BFF7B
:100F200001220221A24801F085F910BDF8B507465B
:100F30000020A14D0E464E3528716871044604E02C
:100F4000385DFFF79CFF641CE4B2B442F8D3E87943
:100F5000FFF795FF99490320C870FFF7A1FF012211
:100F60000221944801F066F9F8BD70B5FFF737FF2C
:100F70008F4B914C01280FD020796179884219D18B
:100F80001D46284601F053F94006FAD50120FFF727
:100F900019FFE079286070BD6079A071002161714E
:100FA00021710846FFF70EFF00220221184601F0CA
:100FB00041F970BDFFF74FFF70BD7F4810B54E304F
:100FC000027941798A420BD1817100244471047104
:100FD00022460221774801F02DF97848C47010BDEF
:100FE000FFF75EFF10BD10B5744BDC78724A083213
:100FF00011462031002C11D0DC78012C0DD10C7958
:1010000010550879401CC0B208715178884204D14B
:101010000220D8706A4801F051FB10BD242805D089
:10102000262803D0282801D03028F6D10124DC70EE
:1010300010700C7110BD604810B526380079002181
:10104000401E0206120E0DD05B4B0020463B04E012
:101050001C5C6118401CC9B2C0B29042F8D3985CC5
:10106000884201D1012010BD002010BDF8B5534ABF
:101070008C4691780646504B1046463B1F4603244B
:10108000002500782037002916D0114689780129DB
:1010900032D1614600292FD139794A1C242A2BD21A
:1010A0005E543979454A491CC9B239719279002A8E
:1010B00059D0112825D032E0604600281CD00120EC
:1010C00090701E70387116709179022000290AD034
:1010D000102E12D0112E04D0122E0ED0142E0AD1A2
:1010E0000DE0072009E0602E07D0612EF9D0622EB6
:1010F00003D0642E03D05570F8BD5070F8BD547005
:10110000F8BD587801286DD107296BD1FFF793FFFF
:10111000002804D129480D21417001218160274810
:101120000178132904D0142912D0172957D059E077
:101130003979022956D1330001F080FA05040E48AE
:101140000E0E1000816800293ED009214170F8BDC3
:10115000397902293CD045E04470F8BD45705BE028
:10116000002E57D03EE061280DD15878012839D1A2
:10117000072937D1FFF75FFF002804D10F480D2161
:101180004170012181600D480178632904D06429F0
:10119000DED0672923D025E03979022922D1330016
:1011A00001F04CFA0511101410100400D6E70000ED
:1011B0000080004000C00040A60E0010400000105B
:1011C0002C000010C8E7BDE70721BFE70521BDE7F8
:1011D000002EC1D0012EBFD0022EBFD1BCE739797D
:1011E0000229BDD0FE484078002815D039798142C7
:1011F000B3D1FFF775FDFB4C00220121204601F021
:1012000019F800220421204601F014F8F64801F0F4
:1012100055FAF8BD202199E7C820FFF7A8FDF8BDD1
:1012200010B5F24800210079401E0206120E0DD0C2
:10123000EE4B0020203B04E01C5C6118401CC9B24E
:10124000C0B29042F8D3985C884201D1012010BD11
:10125000002010BD70B5E64D284601F000F80446A8
:101260000E210C40284600F0E2FF062C08D0042C8A
:101270000AD00C2C08D0022C01D1FFF79EFE70BDC5
:10128000C007FCD0286870BD2868C0B2FFF7ABFE6D
:1012900070BD70B5D34D284600F0E1FF04460E2125
:1012A0000C40284600F0C3FF062C08D0042C0FD0B9
:1012B0000C2C0DD0022C01D1FFF757FE70BDC107D9
:1012C000FCD029684007CAB2F8D50121104602E0D7
:1012D00028680021C0B2FFF7C9FE70BDD9E7B9E7A1
:1012E000BF4801210C30017002224270112383702B
:1012F0005623C370BA4B0171DB79002B01D04271C8
:1013000000E041713C2181710021C171704710B52D
:10131000B84C092020700322B7A1601C01F039F9F4
:101320000C22B6A1201D01F034F920460C22B6A1F2
:10133000103001F02EF90420207731206077222030
:10134000A07700212046E17720300170417010BD68
:1013500010B5B04C03202070AF4A20464270110AED
:101360008170E11CAD4801F02BF90020E071207282
:10137000607210BD10B588B0684600F0DDFB0D202E
:10138000C0016A461080684600F0B2FB05200122C9
:101390000821000700F044FB01210C03204600F067
:1013A00007FC122000F003FB684600F0C5FB9C49D7
:1013B0006A461180684600F09BFB99496A464031B5
:1013C0001180684600F094FB0021042000F01AFC14
:1013D0000121204600F0ECFB012000F02CFC814CA8
:1013E000204600F081FE05A9204600F0D4FE4B20E7
:1013F0008001059003206A4610761820907600211F
:101400005176D1761177517705A9204600F093FEE9
:101410000121204600F0CEFE01221146204600F0B8
:1014200009FF01220421204600F004FF122000F0F1
:10143000B7FA08B010BD30B56C49002020390A4613
:1014400089B0044626320C541454401CC0B22428DF
:10145000F9D36648447104712630C4710471447133
:101460008471684600F068FBFF20013069460880FF
:10147000684600F03DFB15210122080700F0D0FA74
:1014800001214D03284600F093FB132000F08FFA52
:10149000684600F051FB624A6946C23A0A806846D3
:1014A00000F026FB5E48694682380880684600F0F6
:1014B0001FFB0021082000F0A5FB0121284600F0B9
:1014C00077FB012000F0BCFB494D284600F00CFEE4
:1014D00005A9284600F05FFE4B20C00105900320BF
:1014E000694608768C764C76CC760C774C7705A9D5
:1014F000284600F020FE0121284600F05BFE012274
:101500001146284600F096FE132000F049FA3448B0
:101510000221017143490C6043490C6043490C604E
:1015200043490C6043490C6043490C60C47009B0E6
:1015300030BD10B588B0684600F0FEFA1920800171
:101540006A461080684600F0D3FA05200122072180
:10155000000700F065FA01210C03204600F028FB8B
:10156000122000F024FA684600F0E6FA2C496A4698
:101570001180684600F0BCFA29496A464031118062
:10158000684600F0B5FA0021042000F03BFB012181
:10159000204600F00DFB012000F04DFB114C2046D1
:1015A00000F0A2FD05A9204600F0F5FD4B20C0018A
:1015B000059003206A461076002191765176D17607
:1015C0001177517705A9204600F0B5FD012120468D
:1015D00000F0F0FD01221146204600F02BFE2DE028
:1015E000400000100080004024000010CE0E0010CB
:1015F00000C000407C0000104B5745004B57303076
:101600003236303131340000694B41574520323693
:10161000300000009E00001007D00000000001F420
:1016200044070000080000100C000010100000101B
:1016300014000010180000101C00001001220421EA
:10164000204600F0F7FD122000F0AAF9F1E690B56F
:1016500089B0684600F070FA1B2080016A4610804D
:10166000684600F045FA052001220921000700F034
:10167000D7F90121480700F09BFA684600F05CFAB0
:10168000032000026A461080684600F031FACC4C14
:1016900001220D21204600F0C3F901220D21204630
:1016A00000F0B4F9C74F1920BC4600DF01220D211C
:1016B000204600F0A6F901214C03204600F078FAFC
:1016C000132000F074F9684600F036FABE496A4605
:1016D0001180684600F00CFABB496A46403111801F
:1016E000684600F005FA0021082000F08BFA01217D
:1016F000204600F05DFA012000F0A2FAB34C20462B
:1017000000F0F2FC05A9204600F045FD4B20C00189
:10171000059003206A461076382090760021517695
:10172000D1761177517705A9204600F004FD0121FB
:10173000204600F03FFD01221146204600F07AFDD0
:1017400001220421204600F075FD132000F028F945
:1017500009B090BD30B59E4900200A4689B02632B6
:1017600004460C541454401CC0B22428F9D39848A1
:101770002030447104712630C47104714471847145
:10178000684600F0D9F9C0216846018000F0B0F940
:1017900014210122880600F043F901210D03284697
:1017A00000F006FA122000F002F9684600F0C4F9D1
:1017B0008849684601804021C17000F099F9854947
:1017C00068464031018000F093F90021042000F0C8
:1017D00019FA0121284600F0EBF9012000F02BFA5C
:1017E0007D4D284600F080FC05A9284600F0D3FC7A
:1017F0004B20C0010590032168460176382181768F
:101800004476C4760477447705A9284600F093FC13
:101810000121284600F0CEFC01221146284600F0A6
:1018200009FD01220421284600F004FD6B480168EF
:10183000FF2212049143EA0111430160122000F0DB
:10184000AFF86748847072E630B5654C85B001200A
:10185000E0710146800700F0ABF9684600F06CF9D2
:10186000FF20413069460880684600F041F90525AF
:101870002D0701221621284600F0D2F80122162158
:10188000284600F0BEF81920C00169460880684665
:1018900000F02EF9534D00220321284600F0C0F835
:1018A0000321284600F0A6F8E07105B030BD30B540
:1018B0004B4C85B00120A0710146800700F078F9FB
:1018C000684600F039F9802069460880684600F0D3
:1018D0000FF905252D0701221321284600F0A0F855
:1018E00001221321284600F091F835208001694635
:1018F0000880684600F0FCF83A4D00220621284690
:1019000000F08EF80621284600F074F8A071CCE7AC
:1019100030B5012185B0C80700F04AF9684600F0EB
:101920000BF91320C00169460880684600F0E0F812
:10193000052000220C21000700F072F80121880721
:1019400000F036F9684600F0F7F80D20000269460D
:101950000880684600F0CCF8224D00220521284678
:1019600000F05EF83320800169460880684600F088
:10197000BFF800220421284600F052F8042128462E
:1019800000F038F804460521284600F033F86100DD
:10199000014313484171FFF78AFFFFF755FF84E7C2
:1019A000C106C90E012088400F4908607047C10672
:1019B000C90E012088400C49803108607047000042
:1019C0000000025009280000C302000000C00040CF
:1019D000600E0010820400000080004010E400E06F
:1019E000400000100000015000E100E010B500F0E0
:1019F0006EF810BD10B5001D00F05AF810BD8160E2
:101A0000704710B50C3000F062F810BD10B5103002
:101A100000F05DF810BD10B5143000F058F810BD9E
:101A200010B5203000F053F810BD10B5203000F094
:101A30003FF810BD10B501248C40130000F0FEFDEE
:101A40000504070A111A1000416AA1430BE0416A1C
:101A5000A14311E0416AA1434162816A214381624D
:101A600010BD416A21434162816AA1438162C16A1A
:101A7000A14307E0416A21434162816AA143816237
:101A8000C16A2143C16210BD10B5303000F01FF8AB
:101A900010BD10B5343000F00BF810BD10B5383063
:101AA00000F006F810BD10B53C3000F010F810BD85
:101AB000024600201268202905D201238B401342E0
:101AC00000D001207047FF29FCD110467047202923
:101AD00009D201238B400168002A01D0194300E09C
:101AE000994301607047FF29FCD1026070470000F4
:101AF000F0B5184902888E4691091207120F9446D4
:101B00000589C27884890369242910D025290ED03B
:101B10008678478900793E436746384306432E431B
:101B2000164326431E43890070464650F0BDC688C2
:101B300060462E430243F3E70021018010228270A9
:101B4000C170C18001814181802202718181016166
:101B500070470000004004407448006BC006C00E8F
:101B6000704780077149800F0860704781076F4890
:101B7000890F4030016001214160002242604160D4
:101B80004168C907FCD07047704781076748890FD3
:101B90004030016301214163002242634163416B94
:101BA000C907FCD070476149C0B2403188637047B3
:101BB0005E4A80320029116801D0014300E0814370
:101BC00011607047400820280BD80F2909D8490117
:101BD000401E0143554841625548816B4022914364
:101BE00081637047830751489B0FC030CAB20362BC
:101BF00001214162002343624162416AC907FCD06E
:101C000082627047494A0129516802D001435160FC
:101C100070478143FBE701224449D2030128486809
:101C200002D09043486070471043FBE73F49C0B281
:101C30008031486170473D49C0B28031886170474A
:101C40003A49C0B28031C86170473949C0B2C03921
:101C5000C86070473649C0B2C0398860704734499F
:101C6000C0B2C039486070473149C0B2C03908605D
:101C700070473049C0B2C86370472E49C0B288630C
:101C800070472C49C0B248637047294A0129116B3B
:101C900002D08143116370470143FBE7244A0129C5
:101CA000916B02D08143916370470143FBE7204A67
:101CB0000129516B02D08143516370470143FBE717
:101CC0001C49403148637047194A0029516801D0C6
:101CD000014300E0814351607047154A00291168B3
:101CE00001D0014300E081431160704710498A68C8
:101CF00002438A6070470E4A0029516901D00143AE
:101D000000E0814351617047094A0029116901D0FF
:101D1000014300E081431161704705498A6902432C
:101D20008A6170470448406B70470000008004409F
:101D30000082044000810440C0830440024610B584
:101D4000AD48002100680B4600F0E6FBAB4A0023DB
:101D500000F0B2FB10BD0068084000D001207047C1
:101D60000068704702680A430260704700214160C2
:101D7000A34AA449904202D108684A1504E0A24A45
:101D8000904203D10868121590430860704770B5FF
:101D900004469B4B9B489C4202D10368451504E0D6
:101DA000994B9C4203D1036825152B430360A06A1D
:101DB00080088000A062A06AA0620020A06020616C
:101DC000E060002907D0A06A0C218843A0620020AF
:101DD000C043206070BD10780028506801D0FFF724
:101DE000ADFF401EE060F2E7002802D000204870FE
:101DF0007047012008704860704730B50A78002AA3
:101E000006D0012A07D0022A08D0032A0BD108E005
:101E10008A68826107E08A68C26104E08A680262B7
:101E200001E08A68426243690A7854001419072263
:101E3000A240934343614A780123002A07D04469B2
:101E40000A78550055191A46AA4014434461CA78C5
:101E5000002A08D044690A7855005219521C1D46C0
:101E600095402C4344618A78002A07D044690A7857
:101E700055005219921C93401C434461C36B0A786D
:101E800003245200121D9440A343C3630A790978C6
:101E90009207920F4900091D8A40C26330BD30B5D8
:101EA000836A0A78540014190722A240934383627C
:101EB0004A780123002A07D0846A0A785500551908
:101EC0001A46AA40144384628A78002A08D0846A99
:101ED0000A7855005219521C1D4695402C438462C5
:101EE000CA78002A07D0826A09784C000919891C2F
:101EF0008B401A43826230BD30B50A78002A06D082
:101F0000012A07D0022A08D0032A0BD108E08A68E8
:101F1000826107E08A68C26104E08A68026201E0C7
:101F20008A68426243690A78540014190722A24061
:101F3000934343614B780122002B07D044690B780F
:101F40005D005D191346AB401C434461CB78002B08
:101F500008D044690B785D005B195B1C15469D40F9
:101F60002C4344618B78002B08D044690B785D00CA
:101F70005B199B1C15469D402C4344610B79002B3B
:101F8000436F097802D08A40134301E08A409343AB
:101F9000436730BD0129416803D0490849004160C9
:101FA000704701221143FAE7426802210A43426066
:101FB00042688A434260704780687047002907D0B2
:101FC000012907D0022907D0032907D00020704734
:101FD000C06A7047006B7047406B7047806B7047FA
:101FE000426F01238B409A4342677047416F090952
:101FF00009014167704700005800001040420F007F
:10200000008001408080044000C00140F3B50546D7
:1020100087B00020059004900120009000200190DE
:10202000029008989F4A40090390A0489E49006882
:10203000954201D1896903E09D4A954204D1C9695D
:1020400000F024FA000904900026741C26E0049A8B
:102050002046A119504300F019FA0690089900F0A3
:1020600015FA074608984008814200D97F1C91491B
:10207000F81E884211D23946069800F007FA0899EE
:10208000884201D8081A00E0401A0399884204D215
:102090006946D0C1039001200590641C0F2CD6D94D
:1020A000761C0F2ED1D3059801281AD1E86880211B
:1020B0000843E8600299009A019B090412070298FC
:1020C000090E120E1B071B0FC0B21A4306E0286050
:1020D0006960EB685B065B0EEB60AA62EB681B064F
:1020E000F5D4059809B0F0BD38B5102181620721FB
:1020F000816001E0016800914169C907FAD180213E
:10210000016341698906FCD5002404634460C4600E
:1021100004624169009100F0BDF80C210090484331
:10212000654903220C504018027144718471C471D6
:102130000472447238BDF8B50C46074600F0AAF8A0
:102140000C2105464D435C4E21687059884204D0ED
:102150003846FFF75BFF206870512079A179627AD9
:102160000843617911430843F860207AE179084314
:1021700001210843CF210840B8602179A8190171D5
:1021800061794171A1798171617A4172E179C1719D
:10219000217A0172F8BD10B50C4600F07BF80C21D5
:1021A0004843454940184268016880686260216080
:1021B000A06010BD0129016B02D0002101637047AE
:1021C00080221143FAE770B5002616E01C4602E0B3
:1021D000002C14D0641E4569AD06F9D5002C0ED034
:1021E000102507E00C78491C04606D1E521E761CF9
:1021F000002D02D0002AF5D101E0002AE6D13046B8
:1022000070BD70B5054600200EE01C4602E0002CB3
:102210000CD0641E6E69F607F9D0002C06D02C682D
:102220000C70491C521E401C002AEED170BD406942
:10223000C0B2704770B50E460446012A05D01F4D46
:1022400000F028F8002803D004E06068084304E0A8
:102250001A4D88356068B5432840606070BD80685D
:102260001649C8310840704710B5C368802423431D
:10227000C360002303604360C368A343C3601023AB
:102280008362114301221143016210BD032109023F
:10229000016270470349884201D100207047012044
:1022A0007047000000800040808004405C00001007
:1022B00000C00040FDFF0000FC0E001007030000FE
:1022C00070B55D4D0020696AC905090F0B0000F06B
:1022D000B5F910090B0D0F11131517191B1D1F212F
:1022E0002325272855481CE055481AE0554818E092
:1022F000554816E0554814E0554812E0554810E09E
:1023000055480EE055480CE055480AE0554808E0AD
:10231000554806E0554804E0554802E0554800E0BD
:102320005548696AC906890E891C00F0AFF8424B0E
:102330004033196B514A8907514C890F1BD0002635
:10234000012904D0022928D0032930D108E01968D6
:102350008907890F0FD001290DD0022908D11CE06F
:1023600019688907890F0FD001290DD0022910D0D3
:1023700003291CD11AE0226019E0A8683F49C00671
:10238000C00E401C484308E0A868C005800FF4D088
:10239000F1E7A968C905890F01D0206007E0A968A5
:1023A000C906C90E491C4143216000E0266020682F
:1023B0006060996B00F06AF8206070BD70B51E49CE
:1023C000022008602F4800220260AA238360552360
:1023D00083600A622C4B986B2024A04398630A62A6
:1023E000104600BF401CC828FBD313484030026091
:1023F00001254560426045604468E407FCD08D607B
:102400009C6B8026B4439C63CB68DB07FCD0032124
:102410000163456342634563416BC907FCD0856333
:102420000548803045618561C5610262016801220D
:1024300012041143016070BD00800440801A060040
:1024400020A1070000350C00E0C81000C05C15009A
:10245000006A180040771B0080841E00C091210094
:10246000009F240040AC2700E032290020402C00CF
:10247000604D2F0000D4300040E13300001BB70056
:1024800058000010004000400082044030B50B4668
:10249000014600202022012409E00D46D5409D423E
:1024A00005D31D469540491B2546954040191546C4
:1024B000521E002DF1DC30BDF0B51FB406460020E1
:1024C00082B005464024019100901BE0019922460C
:1024D0000F46304600F08DF8049A059B801A99410A
:1024E00010D310461946224600F073F8361A8F4171
:1024F0000197224601200021009F00F06AF8381859
:102500004D4100902046641E0028DFDC019B0098AE
:102510002946324607B0F0BDF0B51FB486B00020A2
:102520000090019002900698069980B20490079856
:10253000090C02040014114307900027089D099814
:1025400006913E463C4603900398A9B20204000C53
:10255000039004982D0C154348430021224600F0B7
:1025600038F8C719714110340E46402CECDB384660
:10257000029A00F02EF8009A019B801800905941B1
:1025800002980191103002904028CCDB00980BB0EB
:10259000F0BD10B5044605E00B780370401C002B1D
:1025A00000D0491C521EF7D2204610BD001D032149
:1025B000401E037812021A43491EF9D5104670478F
:1025C000034603220870491C000A521EFAD5184619
:1025D000704710B5202A04DB0146203A91400020C4
:1025E00010BD914020239C1A0346E34019439040BC
:1025F00010BD10B5202A04DB0846203AD040002147
:1026000010BD0B46D340D0402024A21A914008436D
:10261000194610BD064C0125064E05E02046E3682C
:1026200007C82B4398471034B442F7D3FDF74AFD4F
:10263000F42F0000143000000000000030B4744695
:10264000641E2578641CAB4200D21D46635D5B00AE
:10265000E31830BC184702E008C8121F08C1002A5E
:10266000FAD170477047002001E001C1121F002A13
:10267000FBD1704710B5002A06DA52005208D21D6D
:10268000D308DB00102203E0D21C93089B000C222D
:10269000002B02D09C188C4201D9012010BD821859
:1026A0008360411802604160C91AD018884202D87C
:1026B00010600246F9E70020106010BD10B500213F
:1026C00000F0DEF900F0CCF910BD00000748016809
:1026D0000748416100218161072101610548016AC4
:1026E000FF2212061143016240177047D42F0000E9
:1026F00000E000E000ED00E070470146EFF31080DD
:10270000C207D20F72B60868002801D003680B60B8
:10271000002A00D162B6704770B50D4600280FD070
:102720000849094C884204D222680146104600F04C
:10273000C7F920684570054800F0A5F800F082FA56
:1027400070BD0000FFFF0000600000104C0F001083
:1027500070B51B4DE868002831D0A88A401EA882B9
:10276000002626E0A068002808D061684160606803
:10277000002802D0A16881606660A66010482146EA
:10278000183800F0C5F9A08AA8826078042804D11E
:102790000C49E08A09884018A08201206070252138
:1027A0000855E068E860E068002801D00561E6604F
:1027B0002661A88A002802D1EC68002CD2D170BD15
:1027C000640F00106800001070B504000ED00C4DAE
:1027D000A17828680126827891420BD900F0B6F9D9
:1027E00028684670204600F02DFA70BD054800F0BC
:1027F0004AF8F8E766702146024800F089F970BD92
:10280000600000104C0F001010B50321FFF784FF8B
:1028100010BD000010B50446008B08432083627889
:10282000618B062A15D0052A12D10A4610420FD014
:102830000240628388432083204600F091F9012002
:1028400060700221252001552146044800F060F9FE
:1028500010BD0A468243EDD010BD00004C0F0010A1
:10286000814202D342688A4201D801207047EFF3C7
:102870001082D207D20F72B603680B60016000D1DC
:1028800062B6002070470146406842684A600B7893
:102890000022022B05D0012B03D0032B01D0426074
:1028A00070474368002B01D0996042608260704796
:1028B00070B5044615460020207001226270234640
:1028C000A170203319716060A060E0602061206217
:1028D000A082E0822083608358719871208D002847
:1028E00003D10448FFF709FF20632946204600F082
:1028F00003F870BDB801001030B5028D920803D105
:102900000E4A12881204920C036B92009A18530715
:1029100000D5121F403A01231B06D36300239163A5
:102920001C469D005B1C54510E2BFAD3C3691362E5
:10293000C2624163006B0249016030BDD02F0000CC
:10294000A52E5AE2F8B50446406800260F46002836
:1029500005D06078022818D0A08900282FD0A0893F
:10296000E18988423ED2208980000019076172B651
:10297000A089401CA08162B62089401C80B22081C1
:10298000E189884200D12681F8BD66702046FFF7B4
:102990007AFF0546203046712189E86989000919C6
:1029A000086172B6A089401CA08162B62089401CD3
:1029B00080B22081E18988420AD1268108E0204640
:1029C000FFF761FF0546C0690421076025204155D6
:1029D00001206870284600F0C3F82946034800F03B
:1029E00097F8F8BD0320FEF777F9F8BD4C0F0010FB
:1029F00070B51848012102685170006800F0A6F80F
:102A0000154C657813E0E800011948680278002A3F
:102A100017D0012A1AD000F0D9F8E0786D1C854251
:102A200000D1002572B6A078401EA07062B6A078D2
:102A30000028E8D165700948FFF725FF00F002F98A
:102A400070BD098989B2FFF7E5FEE6E78968FFF7FF
:102A500079FFE2E760000010C80D00104C0F001075
:102A600005480178002902D00121417070470120FA
:102A700002490007486070476C00001000ED00E05C
:102A800070B50E4BDD789C1C1E4672B69A78AA4231
:102A900007D2521C22703278541CAC4200D1002460
:102AA000347062B6DC78944204D9D200D2189160B6
:102AB000506070BD0220FEF70FF970BDC80D001008
:102AC00010B5124AD368002B17D013469B8A04E036
:102AD000002C12D02246A48AE318D4688B42F7D384
:102AE000C460D0600261C468002C00D02061591A13
:102AF0008182908A401A908210BD0024C460D06008
:102B0000C91A02619182848210BD0000640F001016
:102B100030B502780023022A03D0012A01D0032A0B
:102B200000D101238C7800E010464268002A02D0D0
:102B30009578A542F8D24A604160002B04D0002A63
:102B400000D09160886030BD0020FBE703494A68EF
:102B50004260002282604860704700004C0F001005
:102B600010B5016900290FD0C268CA60C36800228D
:102B7000002B07D08B8A848A1B198B82C36819614A
:102B8000C26000E08A82026110BD000081680029F5
:102B900007D042684A604168002901D08068886097
:102BA0007047064906E04A68824202D140684860A0
:102BB000704711460029F6D1704700004C0F0010F5
:102BC00002220270002242604180704710B54168C5
:102BD00000290ED0FFF757FE0446FFF7C1FF012082
:102BE000607003212520015521460448FFF790FF1E
:102BF00010BD4188491C418010BD00004C0F0010E1
:102C000010B50C464188002903D0491E41800020A0
:102C100010BD002C07D00A4A43681168002B04D06D
:102C2000FFF776FF07E0012010BD41601368002127
:102C300059601168886007212046FFF76DFDF2E7B3
:102C40006000001002494860022141707047000096
:102C500060000010F7B5164600200446374A384990
:102C600002E08300D450401C0B889842F9D33548C9
:102C7000382201883448FFF7FDFC344801210088E0
:102C8000C90780B24218324801683248FFF7F2FCA7
:102C900031480822018831480068FFF7EBFC304FCB
:102CA000FF25FD703C852F4A00213846FFF700FEC6
:102CB0002D480421017044602C480170C4600461F7
:102CC0008482F86A2030FDF703FA29482A49076010
:102CD000022078702748047044700978C170FDF7AD
:102CE000FCFF2648016A2A0411430162C169026A95
:102CF0005202920E92061143C161FFF7E7FC204990
:102D00000028086012DB82081E49920051180A68E8
:102D10008307DB0E9D402A430A60C206D20E0121C2
:102D200091404011184A800080180160002332460B
:102D30000199009800F068F8FEBD00004C0E0010EC
:102D4000CC2F0000E42F0000BC000010D02F0000AA
:102D5000E82F0000B8010010EE2F00003C0000102A
:102D6000140F0010D50C00004C0F0010640F001061
:102D700060000010C80D0010EC2F000000ED00E016
:102D80007000001000E400E000E100E010B50B4826
:102D90000121026851700068FFF7D8FEFDF79EFF21
:102DA00007480168491C0160FFF7D2FC00F00CF8ED
:102DB0000448FFF768FDFFF745FF10BD60000010F5
:102DC000680000104C0F001070B50D4C20680028F2
:102DD00015D0A0880B4E401EA0800AE0E888FDF7C1
:102DE0007AFFA888A0802868206029463068FFF70D
:102DF00037FDA088002802D12568002DEED170BDD6
:102E0000740000103C000010FFB5080681B01E469B
:102E100017460C46000E00D14C1C1648FFF76DFCFF
:102E2000050025D02002000C2F632885EE61E1B259
:102E30002846019AFFF73CFD01240F480F4906E0A0
:102E4000A2001218403AD26B002A04D0641C0A88EF
:102E50009442F5D90024A10008184038C563EC70ED
:102E60002846FFF7B1FC0648006820304471204630
:102E700005B0F0BDBC0000104C0E0010CC2F0000BF
:102E800060000010F8B5494D0028296802D0CA78C2
:102E900082423AD100274F70FDF71DF92968C862B8
:102EA000FDF71DFF2868046A1BE06068002817D042
:102EB0002046FFF7E8FC06460520252188553046C8
:102EC000FFF74EFE0120707031463948FFF720FEB3
:102ED00001206080A660306AE0603462E46800E04F
:102EE000E468002CE1D12868C1788A003149511882
:102EF0004039CF63016B3048FFF7B2FC29682F4897
:102F00000F63FFF7ADFC2F604AE02D490988884226
:102F10000ED8810027480F18403FFD6B002D07D0C9
:102F20002846FFF733FE2846FFF71AFE2C6A1DE0FD
:102F3000FF20F8BD6068002817D02046FFF7A3FCEB
:102F400006460520252188553046FFF709FE012059
:102F5000707031461648FFF7DBFD01216180A660E5
:102F6000316AE1603462E46800E0E468002CE1D199
:102F7000FC631148296BFFF773FC29460F482C634B
:102F8000FFF76EFC0A4840688278084801688B7831
:102F90009A4208D901224A7001680548FFF7B8FD36
:102FA0000020FFF711FC0020F8BD000060000010B9
:102FB0004C0F00104C0E0010B8010010BC000010A7
:102FC000CC2F0000000407060AC00A10050000000C
:102FD000000200007FA9030000000000102700008D
:102FE00000000000FC000000100C000010000000B9
:102FF0004900040014300000000000107C000000B4
:1030000056260000903000007C00001004110000E3
:103010006626000000000000000000000000000024
:1030200000000000000000000000000000000000A0
:103030000000000000000000000000000000000090
:103040000000000000000000000000000000000080
:103050000000000000000000000000000000000070
:1030600000000000000000000000000000366E01BB
:1030700000366E01000000000000000000000000AB
:103080000000000000000000000000000000000040
:04000005000000BD3A
:00000001FF
